{
  "contractName": "Producers",
  "abi": [
    {
      "inputs": [],
      "stateMutability": "nonpayable",
      "type": "constructor"
    },
    {
      "anonymous": false,
      "inputs": [
        {
          "indexed": false,
          "internalType": "address",
          "name": "sender",
          "type": "address"
        },
        {
          "indexed": false,
          "internalType": "uint256",
          "name": "id",
          "type": "uint256"
        },
        {
          "indexed": false,
          "internalType": "string",
          "name": "name",
          "type": "string"
        },
        {
          "indexed": false,
          "internalType": "string",
          "name": "email",
          "type": "string"
        },
        {
          "indexed": false,
          "internalType": "string",
          "name": "phone",
          "type": "string"
        },
        {
          "indexed": false,
          "internalType": "string",
          "name": "whatsapp",
          "type": "string"
        },
        {
          "indexed": false,
          "internalType": "string",
          "name": "region",
          "type": "string"
        },
        {
          "indexed": false,
          "internalType": "string",
          "name": "country",
          "type": "string"
        },
        {
          "indexed": false,
          "internalType": "string",
          "name": "bio",
          "type": "string"
        },
        {
          "indexed": false,
          "internalType": "string",
          "name": "image",
          "type": "string"
        },
        {
          "indexed": false,
          "internalType": "address",
          "name": "editor",
          "type": "address"
        }
      ],
      "name": "AddProducerEvent",
      "type": "event"
    },
    {
      "anonymous": false,
      "inputs": [
        {
          "indexed": false,
          "internalType": "address",
          "name": "sender",
          "type": "address"
        },
        {
          "indexed": false,
          "internalType": "uint256",
          "name": "id",
          "type": "uint256"
        },
        {
          "indexed": false,
          "internalType": "string",
          "name": "name",
          "type": "string"
        },
        {
          "indexed": false,
          "internalType": "string",
          "name": "email",
          "type": "string"
        },
        {
          "indexed": false,
          "internalType": "string",
          "name": "phone",
          "type": "string"
        },
        {
          "indexed": false,
          "internalType": "string",
          "name": "whatsapp",
          "type": "string"
        },
        {
          "indexed": false,
          "internalType": "string",
          "name": "region",
          "type": "string"
        },
        {
          "indexed": false,
          "internalType": "string",
          "name": "country",
          "type": "string"
        },
        {
          "indexed": false,
          "internalType": "string",
          "name": "bio",
          "type": "string"
        },
        {
          "indexed": false,
          "internalType": "string",
          "name": "image",
          "type": "string"
        },
        {
          "indexed": false,
          "internalType": "address",
          "name": "editor",
          "type": "address"
        }
      ],
      "name": "EditProducerEvent",
      "type": "event"
    },
    {
      "inputs": [
        {
          "internalType": "address",
          "name": "",
          "type": "address"
        }
      ],
      "name": "addessIsAdmin",
      "outputs": [
        {
          "internalType": "bool",
          "name": "",
          "type": "bool"
        }
      ],
      "stateMutability": "view",
      "type": "function",
      "constant": true
    },
    {
      "inputs": [],
      "name": "producer_count",
      "outputs": [
        {
          "internalType": "uint256",
          "name": "",
          "type": "uint256"
        }
      ],
      "stateMutability": "view",
      "type": "function",
      "constant": true
    },
    {
      "inputs": [
        {
          "internalType": "uint256",
          "name": "",
          "type": "uint256"
        }
      ],
      "name": "producers",
      "outputs": [
        {
          "internalType": "string",
          "name": "name",
          "type": "string"
        },
        {
          "internalType": "string",
          "name": "email",
          "type": "string"
        },
        {
          "internalType": "string",
          "name": "phone",
          "type": "string"
        },
        {
          "internalType": "string",
          "name": "whatsapp",
          "type": "string"
        },
        {
          "internalType": "string",
          "name": "region",
          "type": "string"
        },
        {
          "internalType": "string",
          "name": "country",
          "type": "string"
        },
        {
          "internalType": "string",
          "name": "bio",
          "type": "string"
        },
        {
          "internalType": "string",
          "name": "image",
          "type": "string"
        },
        {
          "internalType": "address",
          "name": "editor",
          "type": "address"
        }
      ],
      "stateMutability": "view",
      "type": "function",
      "constant": true
    },
    {
      "inputs": [
        {
          "internalType": "address",
          "name": "_address",
          "type": "address"
        }
      ],
      "name": "addAdminAddress",
      "outputs": [],
      "stateMutability": "nonpayable",
      "type": "function"
    },
    {
      "inputs": [
        {
          "internalType": "address",
          "name": "_address",
          "type": "address"
        }
      ],
      "name": "removeAdminAddress",
      "outputs": [],
      "stateMutability": "nonpayable",
      "type": "function"
    },
    {
      "inputs": [
        {
          "internalType": "string",
          "name": "name",
          "type": "string"
        },
        {
          "internalType": "string",
          "name": "email",
          "type": "string"
        },
        {
          "internalType": "string",
          "name": "phone",
          "type": "string"
        },
        {
          "internalType": "string",
          "name": "whatsapp",
          "type": "string"
        },
        {
          "internalType": "string",
          "name": "region",
          "type": "string"
        },
        {
          "internalType": "string",
          "name": "country",
          "type": "string"
        },
        {
          "internalType": "string",
          "name": "bio",
          "type": "string"
        },
        {
          "internalType": "string",
          "name": "image",
          "type": "string"
        },
        {
          "internalType": "address",
          "name": "editor",
          "type": "address"
        }
      ],
      "name": "addProducer",
      "outputs": [],
      "stateMutability": "nonpayable",
      "type": "function"
    },
    {
      "inputs": [
        {
          "internalType": "uint256",
          "name": "id",
          "type": "uint256"
        },
        {
          "internalType": "string",
          "name": "name",
          "type": "string"
        },
        {
          "internalType": "string",
          "name": "email",
          "type": "string"
        },
        {
          "internalType": "string",
          "name": "phone",
          "type": "string"
        },
        {
          "internalType": "string",
          "name": "whatsapp",
          "type": "string"
        },
        {
          "internalType": "string",
          "name": "region",
          "type": "string"
        },
        {
          "internalType": "string",
          "name": "country",
          "type": "string"
        },
        {
          "internalType": "string",
          "name": "bio",
          "type": "string"
        },
        {
          "internalType": "string",
          "name": "image",
          "type": "string"
        },
        {
          "internalType": "address",
          "name": "editor",
          "type": "address"
        }
      ],
      "name": "editProducer",
      "outputs": [],
      "stateMutability": "nonpayable",
      "type": "function"
    }
  ],
  "bytecode": "0x608060405234801561001057600080fd5b506001600260003373ffffffffffffffffffffffffffffffffffffffff1673ffffffffffffffffffffffffffffffffffffffff16815260200190815260200160002060006101000a81548160ff021916908315150217905550611803806100786000396000f3fe608060405234801561001057600080fd5b506004361061007c5760003560e01c8063951011811161005b57806395101181146100d75780639b68ade7146100f3578063d1ba06c71461012b578063edbc1827146101475761007c565b80624fba0014610081578063587c601b1461009d57806382fc85e5146100bb575b600080fd5b61009b60048036038101906100969190610e59565b610177565b005b6100a5610260565b6040516100b291906114cb565b60405180910390f35b6100d560048036038101906100d09190610e86565b610266565b005b6100f160048036038101906100ec9190610e59565b610502565b005b61010d60048036038101906101089190611030565b6105eb565b604051610122999897969594939291906113c6565b60405180910390f35b6101456004803603810190610140919061105d565b610a99565b005b610161600480360381019061015c9190610e59565b610cfc565b60405161016e91906113ab565b60405180910390f35b33600260008273ffffffffffffffffffffffffffffffffffffffff1673ffffffffffffffffffffffffffffffffffffffff16815260200190815260200160002060009054906101000a900460ff16610204576040517f08c379a00000000000000000000000000000000000000000000000000000000081526004016101fb9061148b565b60405180910390fd5b6001600260008473ffffffffffffffffffffffffffffffffffffffff1673ffffffffffffffffffffffffffffffffffffffff16815260200190815260200160002060006101000a81548160ff0219169083151502179055505050565b60005481565b33600260008273ffffffffffffffffffffffffffffffffffffffff1673ffffffffffffffffffffffffffffffffffffffff16815260200190815260200160002060009054906101000a900460ff166102f3576040517f08c379a00000000000000000000000000000000000000000000000000000000081526004016102ea9061148b565b60405180910390fd5b6040518061012001604052808b81526020018a81526020018981526020018881526020018781526020018681526020018581526020018481526020018373ffffffffffffffffffffffffffffffffffffffff1681525060016000805481526020019081526020016000206000820151816000019080519060200190610379929190610d1c565b506020820151816001019080519060200190610396929190610d1c565b5060408201518160020190805190602001906103b3929190610d1c565b5060608201518160030190805190602001906103d0929190610d1c565b5060808201518160040190805190602001906103ed929190610d1c565b5060a082015181600501908051906020019061040a929190610d1c565b5060c0820151816006019080519060200190610427929190610d1c565b5060e0820151816007019080519060200190610444929190610d1c565b506101008201518160080160006101000a81548173ffffffffffffffffffffffffffffffffffffffff021916908373ffffffffffffffffffffffffffffffffffffffff1602179055509050507fc29c39102a21059c8d79f39ae19c53ebec902d35cd0078ee64944e3f47d2a220336000548c8c8c8c8c8c8c8c8c6040516104d59b9a999897969594939291906112c8565b60405180910390a160016000808282546104ef9190611558565b9250508190555050505050505050505050565b33600260008273ffffffffffffffffffffffffffffffffffffffff1673ffffffffffffffffffffffffffffffffffffffff16815260200190815260200160002060009054906101000a900460ff1661058f576040517f08c379a00000000000000000000000000000000000000000000000000000000081526004016105869061148b565b60405180910390fd5b6000600260008473ffffffffffffffffffffffffffffffffffffffff1673ffffffffffffffffffffffffffffffffffffffff16815260200190815260200160002060006101000a81548160ff0219169083151502179055505050565b600160205280600052604060002060009150905080600001805461060e90611638565b80601f016020809104026020016040519081016040528092919081815260200182805461063a90611638565b80156106875780601f1061065c57610100808354040283529160200191610687565b820191906000526020600020905b81548152906001019060200180831161066a57829003601f168201915b50505050509080600101805461069c90611638565b80601f01602080910402602001604051908101604052809291908181526020018280546106c890611638565b80156107155780601f106106ea57610100808354040283529160200191610715565b820191906000526020600020905b8154815290600101906020018083116106f857829003601f168201915b50505050509080600201805461072a90611638565b80601f016020809104026020016040519081016040528092919081815260200182805461075690611638565b80156107a35780601f10610778576101008083540402835291602001916107a3565b820191906000526020600020905b81548152906001019060200180831161078657829003601f168201915b5050505050908060030180546107b890611638565b80601f01602080910402602001604051908101604052809291908181526020018280546107e490611638565b80156108315780601f1061080657610100808354040283529160200191610831565b820191906000526020600020905b81548152906001019060200180831161081457829003601f168201915b50505050509080600401805461084690611638565b80601f016020809104026020016040519081016040528092919081815260200182805461087290611638565b80156108bf5780601f10610894576101008083540402835291602001916108bf565b820191906000526020600020905b8154815290600101906020018083116108a257829003601f168201915b5050505050908060050180546108d490611638565b80601f016020809104026020016040519081016040528092919081815260200182805461090090611638565b801561094d5780601f106109225761010080835404028352916020019161094d565b820191906000526020600020905b81548152906001019060200180831161093057829003601f168201915b50505050509080600601805461096290611638565b80601f016020809104026020016040519081016040528092919081815260200182805461098e90611638565b80156109db5780601f106109b0576101008083540402835291602001916109db565b820191906000526020600020905b8154815290600101906020018083116109be57829003601f168201915b5050505050908060070180546109f090611638565b80601f0160208091040260200160405190810160405280929190818152602001828054610a1c90611638565b8015610a695780601f10610a3e57610100808354040283529160200191610a69565b820191906000526020600020905b815481529060010190602001808311610a4c57829003601f168201915b5050505050908060080160009054906101000a900473ffffffffffffffffffffffffffffffffffffffff16905089565b808073ffffffffffffffffffffffffffffffffffffffff163373ffffffffffffffffffffffffffffffffffffffff1614610b08576040517f08c379a0000000000000000000000000000000000000000000000000000000008152600401610aff906114ab565b60405180910390fd5b6040518061012001604052808b81526020018a81526020018981526020018881526020018781526020018681526020018581526020018481526020018373ffffffffffffffffffffffffffffffffffffffff16815250600160008d81526020019081526020016000206000820151816000019080519060200190610b8d929190610d1c565b506020820151816001019080519060200190610baa929190610d1c565b506040820151816002019080519060200190610bc7929190610d1c565b506060820151816003019080519060200190610be4929190610d1c565b506080820151816004019080519060200190610c01929190610d1c565b5060a0820151816005019080519060200190610c1e929190610d1c565b5060c0820151816006019080519060200190610c3b929190610d1c565b5060e0820151816007019080519060200190610c58929190610d1c565b506101008201518160080160006101000a81548173ffffffffffffffffffffffffffffffffffffffff021916908373ffffffffffffffffffffffffffffffffffffffff1602179055509050507f6dee3ffba145787da108e0e1aca54973d9bee83a774b8779bfcc79b8e64ed3c6338c8c8c8c8c8c8c8c8c8c604051610ce79b9a999897969594939291906112c8565b60405180910390a15050505050505050505050565b60026020528060005260406000206000915054906101000a900460ff1681565b828054610d2890611638565b90600052602060002090601f016020900481019282610d4a5760008555610d91565b82601f10610d6357805160ff1916838001178555610d91565b82800160010185558215610d91579182015b82811115610d90578251825591602001919060010190610d75565b5b509050610d9e9190610da2565b5090565b5b80821115610dbb576000816000905550600101610da3565b5090565b6000610dd2610dcd8461150b565b6114e6565b905082815260208101848484011115610dee57610ded61172d565b5b610df98482856115f6565b509392505050565b600081359050610e108161179f565b92915050565b600082601f830112610e2b57610e2a611728565b5b8135610e3b848260208601610dbf565b91505092915050565b600081359050610e53816117b6565b92915050565b600060208284031215610e6f57610e6e611737565b5b6000610e7d84828501610e01565b91505092915050565b60008060008060008060008060006101208a8c031215610ea957610ea8611737565b5b60008a013567ffffffffffffffff811115610ec757610ec6611732565b5b610ed38c828d01610e16565b99505060208a013567ffffffffffffffff811115610ef457610ef3611732565b5b610f008c828d01610e16565b98505060408a013567ffffffffffffffff811115610f2157610f20611732565b5b610f2d8c828d01610e16565b97505060608a013567ffffffffffffffff811115610f4e57610f4d611732565b5b610f5a8c828d01610e16565b96505060808a013567ffffffffffffffff811115610f7b57610f7a611732565b5b610f878c828d01610e16565b95505060a08a013567ffffffffffffffff811115610fa857610fa7611732565b5b610fb48c828d01610e16565b94505060c08a013567ffffffffffffffff811115610fd557610fd4611732565b5b610fe18c828d01610e16565b93505060e08a013567ffffffffffffffff81111561100257611001611732565b5b61100e8c828d01610e16565b9250506101006110208c828d01610e01565b9150509295985092959850929598565b60006020828403121561104657611045611737565b5b600061105484828501610e44565b91505092915050565b6000806000806000806000806000806101408b8d03121561108157611080611737565b5b600061108f8d828e01610e44565b9a505060208b013567ffffffffffffffff8111156110b0576110af611732565b5b6110bc8d828e01610e16565b99505060408b013567ffffffffffffffff8111156110dd576110dc611732565b5b6110e98d828e01610e16565b98505060608b013567ffffffffffffffff81111561110a57611109611732565b5b6111168d828e01610e16565b97505060808b013567ffffffffffffffff81111561113757611136611732565b5b6111438d828e01610e16565b96505060a08b013567ffffffffffffffff81111561116457611163611732565b5b6111708d828e01610e16565b95505060c08b013567ffffffffffffffff81111561119157611190611732565b5b61119d8d828e01610e16565b94505060e08b013567ffffffffffffffff8111156111be576111bd611732565b5b6111ca8d828e01610e16565b9350506101008b013567ffffffffffffffff8111156111ec576111eb611732565b5b6111f88d828e01610e16565b92505061012061120a8d828e01610e01565b9150509295989b9194979a5092959850565b611225816115ae565b82525050565b611234816115c0565b82525050565b60006112458261153c565b61124f8185611547565b935061125f818560208601611605565b6112688161173c565b840191505092915050565b6000611280601483611547565b915061128b8261174d565b602082019050919050565b60006112a3601683611547565b91506112ae82611776565b602082019050919050565b6112c2816115ec565b82525050565b6000610160820190506112de600083018e61121c565b6112eb602083018d6112b9565b81810360408301526112fd818c61123a565b90508181036060830152611311818b61123a565b90508181036080830152611325818a61123a565b905081810360a0830152611339818961123a565b905081810360c083015261134d818861123a565b905081810360e0830152611361818761123a565b9050818103610100830152611376818661123a565b905081810361012083015261138b818561123a565b905061139b61014083018461121c565b9c9b505050505050505050505050565b60006020820190506113c0600083018461122b565b92915050565b60006101208201905081810360008301526113e1818c61123a565b905081810360208301526113f5818b61123a565b90508181036040830152611409818a61123a565b9050818103606083015261141d818961123a565b90508181036080830152611431818861123a565b905081810360a0830152611445818761123a565b905081810360c0830152611459818661123a565b905081810360e083015261146d818561123a565b905061147d61010083018461121c565b9a9950505050505050505050565b600060208201905081810360008301526114a481611273565b9050919050565b600060208201905081810360008301526114c481611296565b9050919050565b60006020820190506114e060008301846112b9565b92915050565b60006114f0611501565b90506114fc828261166a565b919050565b6000604051905090565b600067ffffffffffffffff821115611526576115256116f9565b5b61152f8261173c565b9050602081019050919050565b600081519050919050565b600082825260208201905092915050565b6000611563826115ec565b915061156e836115ec565b9250827fffffffffffffffffffffffffffffffffffffffffffffffffffffffffffffffff038211156115a3576115a261169b565b5b828201905092915050565b60006115b9826115cc565b9050919050565b60008115159050919050565b600073ffffffffffffffffffffffffffffffffffffffff82169050919050565b6000819050919050565b82818337600083830152505050565b60005b83811015611623578082015181840152602081019050611608565b83811115611632576000848401525b50505050565b6000600282049050600182168061165057607f821691505b60208210811415611664576116636116ca565b5b50919050565b6116738261173c565b810181811067ffffffffffffffff82111715611692576116916116f9565b5b80604052505050565b7f4e487b7100000000000000000000000000000000000000000000000000000000600052601160045260246000fd5b7f4e487b7100000000000000000000000000000000000000000000000000000000600052602260045260246000fd5b7f4e487b7100000000000000000000000000000000000000000000000000000000600052604160045260246000fd5b600080fd5b600080fd5b600080fd5b600080fd5b6000601f19601f8301169050919050565b7f53656e646572206d7573742062652061646d696e000000000000000000000000600082015250565b7f53656e646572206d75737420626520656469746f722e00000000000000000000600082015250565b6117a8816115ae565b81146117b357600080fd5b50565b6117bf816115ec565b81146117ca57600080fd5b5056fea26469706673582212207e92d3783d85f1050f36b4e8dbd3201dad0bf2cd1a9431c5174b1b015fd16e3564736f6c63430008050033",
  "immutableReferences": {},
  "source": "// SPDX-License-Identifier: MIT\n\npragma solidity 0.8.5;\n\ncontract Producers\n{\n  /* Structs */\n  struct Producer {\n    string name;\n    string email;\n    string phone;\n    string whatsapp;\n    string region;\n    string country;\n    string bio;\n    string image;\n    address editor;\n  }\n\n  /* Events */\n  event AddProducerEvent(\n    address sender,\n    uint256 id,\n    string name,\n    string email,\n    string phone,\n    string whatsapp,\n    string region,\n    string country,\n    string bio,\n    string image,\n    address editor\n  );\n\n  event EditProducerEvent(\n    address sender,\n    uint256 id,\n    string name,\n    string email,\n    string phone,\n    string whatsapp,\n    string region,\n    string country,\n    string bio,\n    string image,\n    address editor\n  );\n  \n  /* Public Variables */\n  uint256 public producer_count;\n  mapping(uint256 => Producer) public producers;\n  mapping(address => bool) public addessIsAdmin;\n\n  constructor()\n  {\n    addessIsAdmin[msg.sender] = true;\n  }\n\n  /* Modifer */\n  modifier addressIsAdmin(address _address) {\n    require(addessIsAdmin[_address], \"Sender must be admin\");\n    _;\n  }\n\n  modifier addressIsEditor(address editor) {\n    require(msg.sender == editor, \"Sender must be editor.\");\n    _;\n  }\n\n  /* Public Functions */\n  function addAdminAddress(address _address) public addressIsAdmin(msg.sender)\n  {\n    addessIsAdmin[_address] = true;\n  }\n\n  function removeAdminAddress(address _address) public addressIsAdmin(msg.sender)\n  {\n    addessIsAdmin[_address] = false;\n  }\n  \n  function addProducer(\n    string memory name,\n    string memory email,\n    string memory phone,\n    string memory whatsapp,\n    string memory region,\n    string memory country,\n    string memory bio,\n    string memory image,\n    address editor\n    ) public addressIsAdmin(msg.sender)\n  {\n    producers[producer_count] = Producer(\n      name, email, phone, whatsapp, region, country, bio, image, editor\n    );\n    emit AddProducerEvent(\n      msg.sender, producer_count, name, email, phone, whatsapp, region, country, bio, image, editor\n    );\n    producer_count += 1;\n  }\n\n  function editProducer(\n    uint256 id,\n    string memory name,\n    string memory email,\n    string memory phone,\n    string memory whatsapp,\n    string memory region,\n    string memory country,\n    string memory bio,\n    string memory image,\n    address editor) public addressIsEditor(editor) // addressIsAdmin(msg.sender) can admin edit producers?\n  {\n    producers[id] = Producer(\n      name, email, phone, whatsapp, region, country, bio, image, editor\n    );\n    emit EditProducerEvent(\n      msg.sender, id, name, email, phone, whatsapp, region, country, bio, image, editor\n    );\n  }\n}",
  "sourcePath": "/home/turupawn/Projects/Productores/contracts/Producers.sol",
  "compiler": {
    "name": "solc",
    "version": "0.8.5+commit.a4f2e591.Emscripten.clang"
  },
  "schemaVersion": "3.4.1",
  "updatedAt": "2021-07-01T00:18:21.277Z",
  "networkType": "ethereum",
  "devdoc": {
    "kind": "dev",
    "methods": {},
    "version": 1
  },
  "userdoc": {
    "kind": "user",
    "methods": {},
    "version": 1
  }
}