{
  "contractName": "Producers",
  "abi": [
    {
      "inputs": [
        {
          "internalType": "uint256",
          "name": "",
          "type": "uint256"
        }
      ],
      "name": "producers",
      "outputs": [
        {
          "internalType": "uint256",
          "name": "id",
          "type": "uint256"
        },
        {
          "internalType": "string",
          "name": "name",
          "type": "string"
        },
        {
          "internalType": "string",
          "name": "email",
          "type": "string"
        },
        {
          "internalType": "string",
          "name": "phone",
          "type": "string"
        },
        {
          "internalType": "string",
          "name": "whatsapp",
          "type": "string"
        },
        {
          "internalType": "string",
          "name": "region",
          "type": "string"
        },
        {
          "internalType": "string",
          "name": "country",
          "type": "string"
        },
        {
          "internalType": "string",
          "name": "bio",
          "type": "string"
        },
        {
          "internalType": "string",
          "name": "image",
          "type": "string"
        }
      ],
      "stateMutability": "view",
      "type": "function"
    },
    {
      "inputs": [
        {
          "internalType": "string",
          "name": "name",
          "type": "string"
        },
        {
          "internalType": "string",
          "name": "email",
          "type": "string"
        },
        {
          "internalType": "string",
          "name": "phone",
          "type": "string"
        },
        {
          "internalType": "string",
          "name": "whatsapp",
          "type": "string"
        },
        {
          "internalType": "string",
          "name": "region",
          "type": "string"
        },
        {
          "internalType": "string",
          "name": "country",
          "type": "string"
        },
        {
          "internalType": "string",
          "name": "bio",
          "type": "string"
        },
        {
          "internalType": "string",
          "name": "image",
          "type": "string"
        }
      ],
      "name": "addProducer",
      "outputs": [],
      "stateMutability": "nonpayable",
      "type": "function"
    }
  ],
  "bytecode": "0x608060405234801561001057600080fd5b50610cfa806100206000396000f3fe608060405234801561001057600080fd5b50600436106100365760003560e01c8063093f754b1461003b5780639b68ade714610057575b600080fd5b610055600480360381019061005091906107b4565b61008f565b005b610071600480360381019061006c919061094a565b6101fe565b604051610086999897969594939291906109bf565b60405180910390f35b60016000808282546100a19190610af6565b92505081905550604051806101200160405280600054815260200189815260200188815260200187815260200186815260200185815260200184815260200183815260200182815250600160008054815260200190815260200160002060008201518160000155602082015181600101908051906020019061012492919061068c565b50604082015181600201908051906020019061014192919061068c565b50606082015181600301908051906020019061015e92919061068c565b50608082015181600401908051906020019061017b92919061068c565b5060a082015181600501908051906020019061019892919061068c565b5060c08201518160060190805190602001906101b592919061068c565b5060e08201518160070190805190602001906101d292919061068c565b506101008201518160080190805190602001906101f092919061068c565b509050505050505050505050565b600160205280600052604060002060009150905080600001549080600101805461022790610b98565b80601f016020809104026020016040519081016040528092919081815260200182805461025390610b98565b80156102a05780601f10610275576101008083540402835291602001916102a0565b820191906000526020600020905b81548152906001019060200180831161028357829003601f168201915b5050505050908060020180546102b590610b98565b80601f01602080910402602001604051908101604052809291908181526020018280546102e190610b98565b801561032e5780601f106103035761010080835404028352916020019161032e565b820191906000526020600020905b81548152906001019060200180831161031157829003601f168201915b50505050509080600301805461034390610b98565b80601f016020809104026020016040519081016040528092919081815260200182805461036f90610b98565b80156103bc5780601f10610391576101008083540402835291602001916103bc565b820191906000526020600020905b81548152906001019060200180831161039f57829003601f168201915b5050505050908060040180546103d190610b98565b80601f01602080910402602001604051908101604052809291908181526020018280546103fd90610b98565b801561044a5780601f1061041f5761010080835404028352916020019161044a565b820191906000526020600020905b81548152906001019060200180831161042d57829003601f168201915b50505050509080600501805461045f90610b98565b80601f016020809104026020016040519081016040528092919081815260200182805461048b90610b98565b80156104d85780601f106104ad576101008083540402835291602001916104d8565b820191906000526020600020905b8154815290600101906020018083116104bb57829003601f168201915b5050505050908060060180546104ed90610b98565b80601f016020809104026020016040519081016040528092919081815260200182805461051990610b98565b80156105665780601f1061053b57610100808354040283529160200191610566565b820191906000526020600020905b81548152906001019060200180831161054957829003601f168201915b50505050509080600701805461057b90610b98565b80601f01602080910402602001604051908101604052809291908181526020018280546105a790610b98565b80156105f45780601f106105c9576101008083540402835291602001916105f4565b820191906000526020600020905b8154815290600101906020018083116105d757829003601f168201915b50505050509080600801805461060990610b98565b80601f016020809104026020016040519081016040528092919081815260200182805461063590610b98565b80156106825780601f1061065757610100808354040283529160200191610682565b820191906000526020600020905b81548152906001019060200180831161066557829003601f168201915b5050505050905089565b82805461069890610b98565b90600052602060002090601f0160209004810192826106ba5760008555610701565b82601f106106d357805160ff1916838001178555610701565b82800160010185558215610701579182015b828111156107005782518255916020019190600101906106e5565b5b50905061070e9190610712565b5090565b5b8082111561072b576000816000905550600101610713565b5090565b600061074261073d84610aa9565b610a84565b90508281526020810184848401111561075e5761075d610c8d565b5b610769848285610b56565b509392505050565b600082601f83011261078657610785610c88565b5b813561079684826020860161072f565b91505092915050565b6000813590506107ae81610cad565b92915050565b600080600080600080600080610100898b0312156107d5576107d4610c97565b5b600089013567ffffffffffffffff8111156107f3576107f2610c92565b5b6107ff8b828c01610771565b985050602089013567ffffffffffffffff8111156108205761081f610c92565b5b61082c8b828c01610771565b975050604089013567ffffffffffffffff81111561084d5761084c610c92565b5b6108598b828c01610771565b965050606089013567ffffffffffffffff81111561087a57610879610c92565b5b6108868b828c01610771565b955050608089013567ffffffffffffffff8111156108a7576108a6610c92565b5b6108b38b828c01610771565b94505060a089013567ffffffffffffffff8111156108d4576108d3610c92565b5b6108e08b828c01610771565b93505060c089013567ffffffffffffffff81111561090157610900610c92565b5b61090d8b828c01610771565b92505060e089013567ffffffffffffffff81111561092e5761092d610c92565b5b61093a8b828c01610771565b9150509295985092959890939650565b6000602082840312156109605761095f610c97565b5b600061096e8482850161079f565b91505092915050565b600061098282610ada565b61098c8185610ae5565b935061099c818560208601610b65565b6109a581610c9c565b840191505092915050565b6109b981610b4c565b82525050565b6000610120820190506109d5600083018c6109b0565b81810360208301526109e7818b610977565b905081810360408301526109fb818a610977565b90508181036060830152610a0f8189610977565b90508181036080830152610a238188610977565b905081810360a0830152610a378187610977565b905081810360c0830152610a4b8186610977565b905081810360e0830152610a5f8185610977565b9050818103610100830152610a748184610977565b90509a9950505050505050505050565b6000610a8e610a9f565b9050610a9a8282610bca565b919050565b6000604051905090565b600067ffffffffffffffff821115610ac457610ac3610c59565b5b610acd82610c9c565b9050602081019050919050565b600081519050919050565b600082825260208201905092915050565b6000610b0182610b4c565b9150610b0c83610b4c565b9250827fffffffffffffffffffffffffffffffffffffffffffffffffffffffffffffffff03821115610b4157610b40610bfb565b5b828201905092915050565b6000819050919050565b82818337600083830152505050565b60005b83811015610b83578082015181840152602081019050610b68565b83811115610b92576000848401525b50505050565b60006002820490506001821680610bb057607f821691505b60208210811415610bc457610bc3610c2a565b5b50919050565b610bd382610c9c565b810181811067ffffffffffffffff82111715610bf257610bf1610c59565b5b80604052505050565b7f4e487b7100000000000000000000000000000000000000000000000000000000600052601160045260246000fd5b7f4e487b7100000000000000000000000000000000000000000000000000000000600052602260045260246000fd5b7f4e487b7100000000000000000000000000000000000000000000000000000000600052604160045260246000fd5b600080fd5b600080fd5b600080fd5b600080fd5b6000601f19601f8301169050919050565b610cb681610b4c565b8114610cc157600080fd5b5056fea264697066735822122060a73ef22d01f5cda5387d2d5bbce833d75a1cf64abd99847302c3e17b727b5364736f6c63430008050033",
  "immutableReferences": {},
  "source": "// SPDX-License-Identifier: MIT\n\npragma solidity 0.8.5;\n\ncontract Producers\n{\n  struct Producer {\n    uint256 id;\n    string name;\n    string email;\n    string phone;\n    string whatsapp;\n    string region;\n    string country;\n    string bio;\n    string image;\n  }\n  struct Farm {\n    string name;\n    string country;\n    string region; // ??\n    uint256 lat;   // ??\n    uint256 lang;  // ??\n    string description;\n  }\n  struct Lot {\n    uint256 height;\n    string variety;\n    string procedure;\n    uint256 size;\n  }\n  \n  uint256 producer_count;\n  mapping(uint256 => Producer) public producers;\n  \n  function addProducer(\n    string memory name,\n    string memory email,\n    string memory phone,\n    string memory whatsapp,\n    string memory region,\n    string memory country,\n    string memory bio,\n    string memory image\n    ) public\n  {\n    producer_count += 1;\n    producers[producer_count] = Producer(producer_count,\n      name,\n      email,\n      phone,\n      whatsapp,\n      region,\n      country,bio,\n      image);\n  }\n}",
  "sourcePath": "/home/turupawn/Projects/Blockchain/Productores/contracts/Producers.sol",
  "compiler": {
    "name": "solc",
    "version": "0.8.5+commit.a4f2e591.Emscripten.clang"
  },
  "schemaVersion": "3.4.1",
  "updatedAt": "2021-06-15T02:11:37.323Z",
  "devdoc": {
    "kind": "dev",
    "methods": {},
    "version": 1
  },
  "userdoc": {
    "kind": "user",
    "methods": {},
    "version": 1
  }
}