{
  "contractName": "Producers",
  "abi": [
    {
      "inputs": [],
      "name": "producer_count",
      "outputs": [
        {
          "internalType": "uint256",
          "name": "",
          "type": "uint256"
        }
      ],
      "stateMutability": "view",
      "type": "function",
      "constant": true
    },
    {
      "inputs": [
        {
          "internalType": "uint256",
          "name": "",
          "type": "uint256"
        }
      ],
      "name": "producers",
      "outputs": [
        {
          "internalType": "uint256",
          "name": "id",
          "type": "uint256"
        },
        {
          "internalType": "string",
          "name": "name",
          "type": "string"
        },
        {
          "internalType": "string",
          "name": "email",
          "type": "string"
        },
        {
          "internalType": "string",
          "name": "phone",
          "type": "string"
        },
        {
          "internalType": "string",
          "name": "whatsapp",
          "type": "string"
        },
        {
          "internalType": "string",
          "name": "region",
          "type": "string"
        },
        {
          "internalType": "string",
          "name": "country",
          "type": "string"
        },
        {
          "internalType": "string",
          "name": "bio",
          "type": "string"
        },
        {
          "internalType": "string",
          "name": "image",
          "type": "string"
        }
      ],
      "stateMutability": "view",
      "type": "function",
      "constant": true
    },
    {
      "inputs": [
        {
          "internalType": "string",
          "name": "name",
          "type": "string"
        },
        {
          "internalType": "string",
          "name": "email",
          "type": "string"
        },
        {
          "internalType": "string",
          "name": "phone",
          "type": "string"
        },
        {
          "internalType": "string",
          "name": "whatsapp",
          "type": "string"
        },
        {
          "internalType": "string",
          "name": "region",
          "type": "string"
        },
        {
          "internalType": "string",
          "name": "country",
          "type": "string"
        },
        {
          "internalType": "string",
          "name": "bio",
          "type": "string"
        },
        {
          "internalType": "string",
          "name": "image",
          "type": "string"
        }
      ],
      "name": "addProducer",
      "outputs": [],
      "stateMutability": "nonpayable",
      "type": "function"
    }
  ],
  "bytecode": "0x608060405234801561001057600080fd5b50610d44806100206000396000f3fe608060405234801561001057600080fd5b50600436106100415760003560e01c8063093f754b14610046578063587c601b146100625780639b68ade714610080575b600080fd5b610060600480360381019061005b91906107e3565b6100b8565b005b61006a610227565b60405161007791906109ee565b60405180910390f35b61009a60048036038101906100959190610979565b61022d565b6040516100af99989796959493929190610a09565b60405180910390f35b60405180610120016040528060005481526020018981526020018881526020018781526020018681526020018581526020018481526020018381526020018281525060016000805481526020019081526020016000206000820151816000015560208201518160010190805190602001906101349291906106bb565b5060408201518160020190805190602001906101519291906106bb565b50606082015181600301908051906020019061016e9291906106bb565b50608082015181600401908051906020019061018b9291906106bb565b5060a08201518160050190805190602001906101a89291906106bb565b5060c08201518160060190805190602001906101c59291906106bb565b5060e08201518160070190805190602001906101e29291906106bb565b506101008201518160080190805190602001906102009291906106bb565b5090505060016000808282546102169190610b40565b925050819055505050505050505050565b60005481565b600160205280600052604060002060009150905080600001549080600101805461025690610be2565b80601f016020809104026020016040519081016040528092919081815260200182805461028290610be2565b80156102cf5780601f106102a4576101008083540402835291602001916102cf565b820191906000526020600020905b8154815290600101906020018083116102b257829003601f168201915b5050505050908060020180546102e490610be2565b80601f016020809104026020016040519081016040528092919081815260200182805461031090610be2565b801561035d5780601f106103325761010080835404028352916020019161035d565b820191906000526020600020905b81548152906001019060200180831161034057829003601f168201915b50505050509080600301805461037290610be2565b80601f016020809104026020016040519081016040528092919081815260200182805461039e90610be2565b80156103eb5780601f106103c0576101008083540402835291602001916103eb565b820191906000526020600020905b8154815290600101906020018083116103ce57829003601f168201915b50505050509080600401805461040090610be2565b80601f016020809104026020016040519081016040528092919081815260200182805461042c90610be2565b80156104795780601f1061044e57610100808354040283529160200191610479565b820191906000526020600020905b81548152906001019060200180831161045c57829003601f168201915b50505050509080600501805461048e90610be2565b80601f01602080910402602001604051908101604052809291908181526020018280546104ba90610be2565b80156105075780601f106104dc57610100808354040283529160200191610507565b820191906000526020600020905b8154815290600101906020018083116104ea57829003601f168201915b50505050509080600601805461051c90610be2565b80601f016020809104026020016040519081016040528092919081815260200182805461054890610be2565b80156105955780601f1061056a57610100808354040283529160200191610595565b820191906000526020600020905b81548152906001019060200180831161057857829003601f168201915b5050505050908060070180546105aa90610be2565b80601f01602080910402602001604051908101604052809291908181526020018280546105d690610be2565b80156106235780601f106105f857610100808354040283529160200191610623565b820191906000526020600020905b81548152906001019060200180831161060657829003601f168201915b50505050509080600801805461063890610be2565b80601f016020809104026020016040519081016040528092919081815260200182805461066490610be2565b80156106b15780601f10610686576101008083540402835291602001916106b1565b820191906000526020600020905b81548152906001019060200180831161069457829003601f168201915b5050505050905089565b8280546106c790610be2565b90600052602060002090601f0160209004810192826106e95760008555610730565b82601f1061070257805160ff1916838001178555610730565b82800160010185558215610730579182015b8281111561072f578251825591602001919060010190610714565b5b50905061073d9190610741565b5090565b5b8082111561075a576000816000905550600101610742565b5090565b600061077161076c84610af3565b610ace565b90508281526020810184848401111561078d5761078c610cd7565b5b610798848285610ba0565b509392505050565b600082601f8301126107b5576107b4610cd2565b5b81356107c584826020860161075e565b91505092915050565b6000813590506107dd81610cf7565b92915050565b600080600080600080600080610100898b03121561080457610803610ce1565b5b600089013567ffffffffffffffff81111561082257610821610cdc565b5b61082e8b828c016107a0565b985050602089013567ffffffffffffffff81111561084f5761084e610cdc565b5b61085b8b828c016107a0565b975050604089013567ffffffffffffffff81111561087c5761087b610cdc565b5b6108888b828c016107a0565b965050606089013567ffffffffffffffff8111156108a9576108a8610cdc565b5b6108b58b828c016107a0565b955050608089013567ffffffffffffffff8111156108d6576108d5610cdc565b5b6108e28b828c016107a0565b94505060a089013567ffffffffffffffff81111561090357610902610cdc565b5b61090f8b828c016107a0565b93505060c089013567ffffffffffffffff8111156109305761092f610cdc565b5b61093c8b828c016107a0565b92505060e089013567ffffffffffffffff81111561095d5761095c610cdc565b5b6109698b828c016107a0565b9150509295985092959890939650565b60006020828403121561098f5761098e610ce1565b5b600061099d848285016107ce565b91505092915050565b60006109b182610b24565b6109bb8185610b2f565b93506109cb818560208601610baf565b6109d481610ce6565b840191505092915050565b6109e881610b96565b82525050565b6000602082019050610a0360008301846109df565b92915050565b600061012082019050610a1f600083018c6109df565b8181036020830152610a31818b6109a6565b90508181036040830152610a45818a6109a6565b90508181036060830152610a5981896109a6565b90508181036080830152610a6d81886109a6565b905081810360a0830152610a8181876109a6565b905081810360c0830152610a9581866109a6565b905081810360e0830152610aa981856109a6565b9050818103610100830152610abe81846109a6565b90509a9950505050505050505050565b6000610ad8610ae9565b9050610ae48282610c14565b919050565b6000604051905090565b600067ffffffffffffffff821115610b0e57610b0d610ca3565b5b610b1782610ce6565b9050602081019050919050565b600081519050919050565b600082825260208201905092915050565b6000610b4b82610b96565b9150610b5683610b96565b9250827fffffffffffffffffffffffffffffffffffffffffffffffffffffffffffffffff03821115610b8b57610b8a610c45565b5b828201905092915050565b6000819050919050565b82818337600083830152505050565b60005b83811015610bcd578082015181840152602081019050610bb2565b83811115610bdc576000848401525b50505050565b60006002820490506001821680610bfa57607f821691505b60208210811415610c0e57610c0d610c74565b5b50919050565b610c1d82610ce6565b810181811067ffffffffffffffff82111715610c3c57610c3b610ca3565b5b80604052505050565b7f4e487b7100000000000000000000000000000000000000000000000000000000600052601160045260246000fd5b7f4e487b7100000000000000000000000000000000000000000000000000000000600052602260045260246000fd5b7f4e487b7100000000000000000000000000000000000000000000000000000000600052604160045260246000fd5b600080fd5b600080fd5b600080fd5b600080fd5b6000601f19601f8301169050919050565b610d0081610b96565b8114610d0b57600080fd5b5056fea2646970667358221220303912d73bee494a2e2727bb591aba9c31c17ce55d1aeaebe29d8d35a6ca8d3064736f6c63430008050033",
  "immutableReferences": {},
  "source": "// SPDX-License-Identifier: MIT\n\npragma solidity 0.8.5;\n\ncontract Producers\n{\n  struct Producer {\n    uint256 id;\n    string name;\n    string email;\n    string phone;\n    string whatsapp;\n    string region;\n    string country;\n    string bio;\n    string image;\n  }\n  struct Farm {\n    string name;\n    string country;\n    string region; // ??\n    uint256 lat;   // ??\n    uint256 lang;  // ??\n    string description;\n  }\n  struct Lot {\n    uint256 height;\n    string variety;\n    string procedure;\n    uint256 size;\n  }\n  \n  uint256 public producer_count;\n  mapping(uint256 => Producer) public producers;\n  \n  function addProducer(\n    string memory name,\n    string memory email,\n    string memory phone,\n    string memory whatsapp,\n    string memory region,\n    string memory country,\n    string memory bio,\n    string memory image\n    ) public\n  {\n    producers[producer_count] = Producer(producer_count,\n      name,\n      email,\n      phone,\n      whatsapp,\n      region,\n      country,bio,\n      image);\n    producer_count += 1;\n  }\n}",
  "sourcePath": "/home/turupawn/Projects/Blockchain/Productores/contracts/Producers.sol",
  "compiler": {
    "name": "solc",
    "version": "0.8.5+commit.a4f2e591.Emscripten.clang"
  },
  "schemaVersion": "3.4.1",
  "updatedAt": "2021-06-15T22:51:58.124Z",
  "networkType": "ethereum",
  "devdoc": {
    "kind": "dev",
    "methods": {},
    "version": 1
  },
  "userdoc": {
    "kind": "user",
    "methods": {},
    "version": 1
  }
}