{
  "contractName": "Producers",
  "abi": [
    {
      "inputs": [],
      "stateMutability": "nonpayable",
      "type": "constructor"
    },
    {
      "anonymous": false,
      "inputs": [
        {
          "indexed": false,
          "internalType": "address",
          "name": "sender",
          "type": "address"
        },
        {
          "indexed": false,
          "internalType": "uint256",
          "name": "id",
          "type": "uint256"
        },
        {
          "indexed": false,
          "internalType": "string",
          "name": "name",
          "type": "string"
        }
      ],
      "name": "AddProducerEvent",
      "type": "event"
    },
    {
      "anonymous": false,
      "inputs": [
        {
          "indexed": false,
          "internalType": "address",
          "name": "sender",
          "type": "address"
        },
        {
          "indexed": false,
          "internalType": "address",
          "name": "new_admin",
          "type": "address"
        }
      ],
      "name": "AdminAdded",
      "type": "event"
    },
    {
      "anonymous": false,
      "inputs": [
        {
          "indexed": false,
          "internalType": "address",
          "name": "sender",
          "type": "address"
        },
        {
          "indexed": false,
          "internalType": "address",
          "name": "new_admin",
          "type": "address"
        }
      ],
      "name": "AdminRevoked",
      "type": "event"
    },
    {
      "anonymous": false,
      "inputs": [
        {
          "indexed": false,
          "internalType": "address",
          "name": "sender",
          "type": "address"
        },
        {
          "indexed": false,
          "internalType": "uint256",
          "name": "id",
          "type": "uint256"
        },
        {
          "indexed": false,
          "internalType": "string",
          "name": "name",
          "type": "string"
        }
      ],
      "name": "EditProducerEvent",
      "type": "event"
    },
    {
      "inputs": [
        {
          "internalType": "address",
          "name": "",
          "type": "address"
        }
      ],
      "name": "addessIsAdmin",
      "outputs": [
        {
          "internalType": "bool",
          "name": "",
          "type": "bool"
        }
      ],
      "stateMutability": "view",
      "type": "function",
      "constant": true
    },
    {
      "inputs": [],
      "name": "register_count",
      "outputs": [
        {
          "internalType": "uint256",
          "name": "",
          "type": "uint256"
        }
      ],
      "stateMutability": "view",
      "type": "function",
      "constant": true
    },
    {
      "inputs": [
        {
          "internalType": "uint256",
          "name": "",
          "type": "uint256"
        }
      ],
      "name": "registers",
      "outputs": [
        {
          "internalType": "address",
          "name": "editor",
          "type": "address"
        },
        {
          "components": [
            {
              "internalType": "string",
              "name": "photo",
              "type": "string"
            },
            {
              "internalType": "string",
              "name": "name",
              "type": "string"
            },
            {
              "internalType": "string",
              "name": "bio",
              "type": "string"
            },
            {
              "internalType": "string",
              "name": "id_number",
              "type": "string"
            },
            {
              "internalType": "string",
              "name": "sex",
              "type": "string"
            },
            {
              "internalType": "uint256",
              "name": "birthday_year",
              "type": "uint256"
            },
            {
              "internalType": "uint256",
              "name": "birthday_month",
              "type": "uint256"
            },
            {
              "internalType": "uint256",
              "name": "birthday_day",
              "type": "uint256"
            }
          ],
          "internalType": "struct Producers.Producer",
          "name": "producer",
          "type": "tuple"
        },
        {
          "components": [
            {
              "internalType": "string",
              "name": "name",
              "type": "string"
            },
            {
              "internalType": "string",
              "name": "org_address",
              "type": "string"
            },
            {
              "internalType": "string",
              "name": "location",
              "type": "string"
            },
            {
              "internalType": "string",
              "name": "farm_name",
              "type": "string"
            },
            {
              "internalType": "string",
              "name": "general_description",
              "type": "string"
            }
          ],
          "internalType": "struct Producers.Organization",
          "name": "organization",
          "type": "tuple"
        },
        {
          "components": [
            {
              "internalType": "uint256",
              "name": "georreference_utm_x",
              "type": "uint256"
            },
            {
              "internalType": "uint256",
              "name": "georreference_utm_y",
              "type": "uint256"
            },
            {
              "internalType": "uint256",
              "name": "height",
              "type": "uint256"
            },
            {
              "internalType": "uint256",
              "name": "total_area",
              "type": "uint256"
            },
            {
              "internalType": "uint256",
              "name": "other_farm_area",
              "type": "uint256"
            },
            {
              "internalType": "uint256",
              "name": "forest_area",
              "type": "uint256"
            },
            {
              "internalType": "uint256",
              "name": "cacao_area",
              "type": "uint256"
            },
            {
              "internalType": "uint256",
              "name": "production_area",
              "type": "uint256"
            },
            {
              "internalType": "uint256",
              "name": "template_area",
              "type": "uint256"
            },
            {
              "internalType": "uint256",
              "name": "projection_area",
              "type": "uint256"
            },
            {
              "internalType": "string",
              "name": "variety1",
              "type": "string"
            },
            {
              "internalType": "string",
              "name": "variety2",
              "type": "string"
            },
            {
              "internalType": "string",
              "name": "variety3",
              "type": "string"
            },
            {
              "internalType": "string",
              "name": "variety4",
              "type": "string"
            },
            {
              "internalType": "bool",
              "name": "is_chemical",
              "type": "bool"
            },
            {
              "internalType": "bool",
              "name": "is_organic",
              "type": "bool"
            },
            {
              "internalType": "string",
              "name": "performance",
              "type": "string"
            }
          ],
          "internalType": "struct Producers.Farm",
          "name": "farm",
          "type": "tuple"
        },
        {
          "components": [
            {
              "internalType": "string",
              "name": "start1",
              "type": "string"
            },
            {
              "internalType": "string",
              "name": "end1",
              "type": "string"
            },
            {
              "internalType": "string",
              "name": "start2",
              "type": "string"
            },
            {
              "internalType": "string",
              "name": "end2",
              "type": "string"
            }
          ],
          "internalType": "struct Producers.Harvest",
          "name": "harvest",
          "type": "tuple"
        },
        {
          "components": [
            {
              "internalType": "uint256",
              "name": "punds",
              "type": "uint256"
            },
            {
              "internalType": "uint256",
              "name": "quintal",
              "type": "uint256"
            },
            {
              "internalType": "uint256",
              "name": "fruit",
              "type": "uint256"
            }
          ],
          "internalType": "struct Producers.ProductionVolume",
          "name": "production_volume",
          "type": "tuple"
        },
        {
          "components": [
            {
              "internalType": "bool",
              "name": "is_handcrafter",
              "type": "bool"
            },
            {
              "internalType": "bool",
              "name": "is_industrial",
              "type": "bool"
            }
          ],
          "internalType": "struct Producers.Beneficiary",
          "name": "beneficiary",
          "type": "tuple"
        },
        {
          "components": [
            {
              "internalType": "bool",
              "name": "has_timber",
              "type": "bool"
            },
            {
              "internalType": "string",
              "name": "timber_specs",
              "type": "string"
            },
            {
              "internalType": "bool",
              "name": "has_fruit",
              "type": "bool"
            },
            {
              "internalType": "string",
              "name": "fruit_specs",
              "type": "string"
            },
            {
              "internalType": "bool",
              "name": "has_palm",
              "type": "bool"
            },
            {
              "internalType": "string",
              "name": "palm_specs",
              "type": "string"
            },
            {
              "internalType": "bool",
              "name": "has_musaceae",
              "type": "bool"
            },
            {
              "internalType": "string",
              "name": "musaceae_specs",
              "type": "string"
            }
          ],
          "internalType": "struct Producers.CacaoAgroforestalSystem",
          "name": "cacao_agroforestal_system",
          "type": "tuple"
        }
      ],
      "stateMutability": "view",
      "type": "function",
      "constant": true
    },
    {
      "inputs": [
        {
          "components": [
            {
              "internalType": "uint256",
              "name": "x",
              "type": "uint256"
            },
            {
              "internalType": "string",
              "name": "y",
              "type": "string"
            }
          ],
          "internalType": "struct Producers.A",
          "name": "_a",
          "type": "tuple"
        }
      ],
      "name": "functionA",
      "outputs": [],
      "stateMutability": "nonpayable",
      "type": "function"
    },
    {
      "inputs": [
        {
          "components": [
            {
              "components": [
                {
                  "internalType": "uint256",
                  "name": "x",
                  "type": "uint256"
                },
                {
                  "internalType": "string",
                  "name": "y",
                  "type": "string"
                }
              ],
              "internalType": "struct Producers.A",
              "name": "a",
              "type": "tuple"
            },
            {
              "internalType": "uint256",
              "name": "x",
              "type": "uint256"
            }
          ],
          "internalType": "struct Producers.B",
          "name": "_b",
          "type": "tuple"
        }
      ],
      "name": "functionB",
      "outputs": [],
      "stateMutability": "nonpayable",
      "type": "function"
    },
    {
      "inputs": [
        {
          "internalType": "address",
          "name": "_address",
          "type": "address"
        }
      ],
      "name": "addAdminAddress",
      "outputs": [],
      "stateMutability": "nonpayable",
      "type": "function"
    },
    {
      "inputs": [
        {
          "internalType": "address",
          "name": "_address",
          "type": "address"
        }
      ],
      "name": "revokeAdminAddress",
      "outputs": [],
      "stateMutability": "nonpayable",
      "type": "function"
    },
    {
      "inputs": [
        {
          "components": [
            {
              "internalType": "address",
              "name": "editor",
              "type": "address"
            },
            {
              "components": [
                {
                  "internalType": "string",
                  "name": "photo",
                  "type": "string"
                },
                {
                  "internalType": "string",
                  "name": "name",
                  "type": "string"
                },
                {
                  "internalType": "string",
                  "name": "bio",
                  "type": "string"
                },
                {
                  "internalType": "string",
                  "name": "id_number",
                  "type": "string"
                },
                {
                  "internalType": "string",
                  "name": "sex",
                  "type": "string"
                },
                {
                  "internalType": "uint256",
                  "name": "birthday_year",
                  "type": "uint256"
                },
                {
                  "internalType": "uint256",
                  "name": "birthday_month",
                  "type": "uint256"
                },
                {
                  "internalType": "uint256",
                  "name": "birthday_day",
                  "type": "uint256"
                }
              ],
              "internalType": "struct Producers.Producer",
              "name": "producer",
              "type": "tuple"
            },
            {
              "components": [
                {
                  "internalType": "string",
                  "name": "name",
                  "type": "string"
                },
                {
                  "internalType": "string",
                  "name": "org_address",
                  "type": "string"
                },
                {
                  "internalType": "string",
                  "name": "location",
                  "type": "string"
                },
                {
                  "internalType": "string",
                  "name": "farm_name",
                  "type": "string"
                },
                {
                  "internalType": "string",
                  "name": "general_description",
                  "type": "string"
                }
              ],
              "internalType": "struct Producers.Organization",
              "name": "organization",
              "type": "tuple"
            },
            {
              "components": [
                {
                  "internalType": "uint256",
                  "name": "georreference_utm_x",
                  "type": "uint256"
                },
                {
                  "internalType": "uint256",
                  "name": "georreference_utm_y",
                  "type": "uint256"
                },
                {
                  "internalType": "uint256",
                  "name": "height",
                  "type": "uint256"
                },
                {
                  "internalType": "uint256",
                  "name": "total_area",
                  "type": "uint256"
                },
                {
                  "internalType": "uint256",
                  "name": "other_farm_area",
                  "type": "uint256"
                },
                {
                  "internalType": "uint256",
                  "name": "forest_area",
                  "type": "uint256"
                },
                {
                  "internalType": "uint256",
                  "name": "cacao_area",
                  "type": "uint256"
                },
                {
                  "internalType": "uint256",
                  "name": "production_area",
                  "type": "uint256"
                },
                {
                  "internalType": "uint256",
                  "name": "template_area",
                  "type": "uint256"
                },
                {
                  "internalType": "uint256",
                  "name": "projection_area",
                  "type": "uint256"
                },
                {
                  "internalType": "string",
                  "name": "variety1",
                  "type": "string"
                },
                {
                  "internalType": "string",
                  "name": "variety2",
                  "type": "string"
                },
                {
                  "internalType": "string",
                  "name": "variety3",
                  "type": "string"
                },
                {
                  "internalType": "string",
                  "name": "variety4",
                  "type": "string"
                },
                {
                  "internalType": "bool",
                  "name": "is_chemical",
                  "type": "bool"
                },
                {
                  "internalType": "bool",
                  "name": "is_organic",
                  "type": "bool"
                },
                {
                  "internalType": "string",
                  "name": "performance",
                  "type": "string"
                }
              ],
              "internalType": "struct Producers.Farm",
              "name": "farm",
              "type": "tuple"
            },
            {
              "components": [
                {
                  "internalType": "string",
                  "name": "start1",
                  "type": "string"
                },
                {
                  "internalType": "string",
                  "name": "end1",
                  "type": "string"
                },
                {
                  "internalType": "string",
                  "name": "start2",
                  "type": "string"
                },
                {
                  "internalType": "string",
                  "name": "end2",
                  "type": "string"
                }
              ],
              "internalType": "struct Producers.Harvest",
              "name": "harvest",
              "type": "tuple"
            },
            {
              "components": [
                {
                  "internalType": "uint256",
                  "name": "punds",
                  "type": "uint256"
                },
                {
                  "internalType": "uint256",
                  "name": "quintal",
                  "type": "uint256"
                },
                {
                  "internalType": "uint256",
                  "name": "fruit",
                  "type": "uint256"
                }
              ],
              "internalType": "struct Producers.ProductionVolume",
              "name": "production_volume",
              "type": "tuple"
            },
            {
              "components": [
                {
                  "internalType": "bool",
                  "name": "is_handcrafter",
                  "type": "bool"
                },
                {
                  "internalType": "bool",
                  "name": "is_industrial",
                  "type": "bool"
                }
              ],
              "internalType": "struct Producers.Beneficiary",
              "name": "beneficiary",
              "type": "tuple"
            },
            {
              "components": [
                {
                  "internalType": "bool",
                  "name": "has_timber",
                  "type": "bool"
                },
                {
                  "internalType": "string",
                  "name": "timber_specs",
                  "type": "string"
                },
                {
                  "internalType": "bool",
                  "name": "has_fruit",
                  "type": "bool"
                },
                {
                  "internalType": "string",
                  "name": "fruit_specs",
                  "type": "string"
                },
                {
                  "internalType": "bool",
                  "name": "has_palm",
                  "type": "bool"
                },
                {
                  "internalType": "string",
                  "name": "palm_specs",
                  "type": "string"
                },
                {
                  "internalType": "bool",
                  "name": "has_musaceae",
                  "type": "bool"
                },
                {
                  "internalType": "string",
                  "name": "musaceae_specs",
                  "type": "string"
                }
              ],
              "internalType": "struct Producers.CacaoAgroforestalSystem",
              "name": "cacao_agroforestal_system",
              "type": "tuple"
            }
          ],
          "internalType": "struct Producers.Registry",
          "name": "registry",
          "type": "tuple"
        }
      ],
      "name": "addProducer",
      "outputs": [],
      "stateMutability": "nonpayable",
      "type": "function"
    },
    {
      "inputs": [
        {
          "internalType": "uint256",
          "name": "id",
          "type": "uint256"
        },
        {
          "components": [
            {
              "internalType": "address",
              "name": "editor",
              "type": "address"
            },
            {
              "components": [
                {
                  "internalType": "string",
                  "name": "photo",
                  "type": "string"
                },
                {
                  "internalType": "string",
                  "name": "name",
                  "type": "string"
                },
                {
                  "internalType": "string",
                  "name": "bio",
                  "type": "string"
                },
                {
                  "internalType": "string",
                  "name": "id_number",
                  "type": "string"
                },
                {
                  "internalType": "string",
                  "name": "sex",
                  "type": "string"
                },
                {
                  "internalType": "uint256",
                  "name": "birthday_year",
                  "type": "uint256"
                },
                {
                  "internalType": "uint256",
                  "name": "birthday_month",
                  "type": "uint256"
                },
                {
                  "internalType": "uint256",
                  "name": "birthday_day",
                  "type": "uint256"
                }
              ],
              "internalType": "struct Producers.Producer",
              "name": "producer",
              "type": "tuple"
            },
            {
              "components": [
                {
                  "internalType": "string",
                  "name": "name",
                  "type": "string"
                },
                {
                  "internalType": "string",
                  "name": "org_address",
                  "type": "string"
                },
                {
                  "internalType": "string",
                  "name": "location",
                  "type": "string"
                },
                {
                  "internalType": "string",
                  "name": "farm_name",
                  "type": "string"
                },
                {
                  "internalType": "string",
                  "name": "general_description",
                  "type": "string"
                }
              ],
              "internalType": "struct Producers.Organization",
              "name": "organization",
              "type": "tuple"
            },
            {
              "components": [
                {
                  "internalType": "uint256",
                  "name": "georreference_utm_x",
                  "type": "uint256"
                },
                {
                  "internalType": "uint256",
                  "name": "georreference_utm_y",
                  "type": "uint256"
                },
                {
                  "internalType": "uint256",
                  "name": "height",
                  "type": "uint256"
                },
                {
                  "internalType": "uint256",
                  "name": "total_area",
                  "type": "uint256"
                },
                {
                  "internalType": "uint256",
                  "name": "other_farm_area",
                  "type": "uint256"
                },
                {
                  "internalType": "uint256",
                  "name": "forest_area",
                  "type": "uint256"
                },
                {
                  "internalType": "uint256",
                  "name": "cacao_area",
                  "type": "uint256"
                },
                {
                  "internalType": "uint256",
                  "name": "production_area",
                  "type": "uint256"
                },
                {
                  "internalType": "uint256",
                  "name": "template_area",
                  "type": "uint256"
                },
                {
                  "internalType": "uint256",
                  "name": "projection_area",
                  "type": "uint256"
                },
                {
                  "internalType": "string",
                  "name": "variety1",
                  "type": "string"
                },
                {
                  "internalType": "string",
                  "name": "variety2",
                  "type": "string"
                },
                {
                  "internalType": "string",
                  "name": "variety3",
                  "type": "string"
                },
                {
                  "internalType": "string",
                  "name": "variety4",
                  "type": "string"
                },
                {
                  "internalType": "bool",
                  "name": "is_chemical",
                  "type": "bool"
                },
                {
                  "internalType": "bool",
                  "name": "is_organic",
                  "type": "bool"
                },
                {
                  "internalType": "string",
                  "name": "performance",
                  "type": "string"
                }
              ],
              "internalType": "struct Producers.Farm",
              "name": "farm",
              "type": "tuple"
            },
            {
              "components": [
                {
                  "internalType": "string",
                  "name": "start1",
                  "type": "string"
                },
                {
                  "internalType": "string",
                  "name": "end1",
                  "type": "string"
                },
                {
                  "internalType": "string",
                  "name": "start2",
                  "type": "string"
                },
                {
                  "internalType": "string",
                  "name": "end2",
                  "type": "string"
                }
              ],
              "internalType": "struct Producers.Harvest",
              "name": "harvest",
              "type": "tuple"
            },
            {
              "components": [
                {
                  "internalType": "uint256",
                  "name": "punds",
                  "type": "uint256"
                },
                {
                  "internalType": "uint256",
                  "name": "quintal",
                  "type": "uint256"
                },
                {
                  "internalType": "uint256",
                  "name": "fruit",
                  "type": "uint256"
                }
              ],
              "internalType": "struct Producers.ProductionVolume",
              "name": "production_volume",
              "type": "tuple"
            },
            {
              "components": [
                {
                  "internalType": "bool",
                  "name": "is_handcrafter",
                  "type": "bool"
                },
                {
                  "internalType": "bool",
                  "name": "is_industrial",
                  "type": "bool"
                }
              ],
              "internalType": "struct Producers.Beneficiary",
              "name": "beneficiary",
              "type": "tuple"
            },
            {
              "components": [
                {
                  "internalType": "bool",
                  "name": "has_timber",
                  "type": "bool"
                },
                {
                  "internalType": "string",
                  "name": "timber_specs",
                  "type": "string"
                },
                {
                  "internalType": "bool",
                  "name": "has_fruit",
                  "type": "bool"
                },
                {
                  "internalType": "string",
                  "name": "fruit_specs",
                  "type": "string"
                },
                {
                  "internalType": "bool",
                  "name": "has_palm",
                  "type": "bool"
                },
                {
                  "internalType": "string",
                  "name": "palm_specs",
                  "type": "string"
                },
                {
                  "internalType": "bool",
                  "name": "has_musaceae",
                  "type": "bool"
                },
                {
                  "internalType": "string",
                  "name": "musaceae_specs",
                  "type": "string"
                }
              ],
              "internalType": "struct Producers.CacaoAgroforestalSystem",
              "name": "cacao_agroforestal_system",
              "type": "tuple"
            }
          ],
          "internalType": "struct Producers.Registry",
          "name": "registry",
          "type": "tuple"
        }
      ],
      "name": "editProducer",
      "outputs": [],
      "stateMutability": "nonpayable",
      "type": "function"
    }
  ],
  "bytecode": "0x608060405234801561001057600080fd5b506001600760003373ffffffffffffffffffffffffffffffffffffffff1673ffffffffffffffffffffffffffffffffffffffff16815260200190815260200160002060006101000a81548160ff0219169083151502179055506136a4806100786000396000f3fe608060405234801561001057600080fd5b50600436106100925760003560e01c80633dcf08d5116100665780633dcf08d5146101245780634ee282e4146101405780639fa5adb21461015c578063d7a1660414610178578063edbc18271461019457610092565b80624fba00146100975780630c3c9b67146100b35780631d1d1af4146100d15780633077431c14610108575b600080fd5b6100b160048036038101906100ac9190612aac565b6101c4565b005b6100bb6102e6565b6040516100c8919061333a565b60405180910390f35b6100eb60048036038101906100e69190612bb4565b6102ec565b6040516100ff9897969594939291906131fe565b60405180910390f35b610122600480360381019061011d9190612ad9565b611233565b005b61013e60048036038101906101399190612be1565b611262565b005b61015a60048036038101906101559190612b6b565b611862565b005b61017660048036038101906101719190612b22565b611e43565b005b610192600480360381019061018d9190612aac565b611e88565b005b6101ae60048036038101906101a99190612aac565b611faa565b6040516101bb91906132df565b60405180910390f35b33600760008273ffffffffffffffffffffffffffffffffffffffff1673ffffffffffffffffffffffffffffffffffffffff16815260200190815260200160002060009054906101000a900460ff16610251576040517f08c379a0000000000000000000000000000000000000000000000000000000008152600401610248906132fa565b60405180910390fd5b6001600760008473ffffffffffffffffffffffffffffffffffffffff1673ffffffffffffffffffffffffffffffffffffffff16815260200190815260200160002060006101000a81548160ff0219169083151502179055507fbf3f493c772c8c283fd124432c2d0f539ab343faa04258fe88e52912d36b102b33836040516102da9291906131d5565b60405180910390a15050565b60055481565b60066020528060005260406000206000915090508060000160009054906101000a900473ffffffffffffffffffffffffffffffffffffffff16908060010160405180610100016040529081600082018054610346906134b8565b80601f0160208091040260200160405190810160405280929190818152602001828054610372906134b8565b80156103bf5780601f10610394576101008083540402835291602001916103bf565b820191906000526020600020905b8154815290600101906020018083116103a257829003601f168201915b505050505081526020016001820180546103d8906134b8565b80601f0160208091040260200160405190810160405280929190818152602001828054610404906134b8565b80156104515780601f1061042657610100808354040283529160200191610451565b820191906000526020600020905b81548152906001019060200180831161043457829003601f168201915b5050505050815260200160028201805461046a906134b8565b80601f0160208091040260200160405190810160405280929190818152602001828054610496906134b8565b80156104e35780601f106104b8576101008083540402835291602001916104e3565b820191906000526020600020905b8154815290600101906020018083116104c657829003601f168201915b505050505081526020016003820180546104fc906134b8565b80601f0160208091040260200160405190810160405280929190818152602001828054610528906134b8565b80156105755780601f1061054a57610100808354040283529160200191610575565b820191906000526020600020905b81548152906001019060200180831161055857829003601f168201915b5050505050815260200160048201805461058e906134b8565b80601f01602080910402602001604051908101604052809291908181526020018280546105ba906134b8565b80156106075780601f106105dc57610100808354040283529160200191610607565b820191906000526020600020905b8154815290600101906020018083116105ea57829003601f168201915b50505050508152602001600582015481526020016006820154815260200160078201548152505090806009016040518060a001604052908160008201805461064e906134b8565b80601f016020809104026020016040519081016040528092919081815260200182805461067a906134b8565b80156106c75780601f1061069c576101008083540402835291602001916106c7565b820191906000526020600020905b8154815290600101906020018083116106aa57829003601f168201915b505050505081526020016001820180546106e0906134b8565b80601f016020809104026020016040519081016040528092919081815260200182805461070c906134b8565b80156107595780601f1061072e57610100808354040283529160200191610759565b820191906000526020600020905b81548152906001019060200180831161073c57829003601f168201915b50505050508152602001600282018054610772906134b8565b80601f016020809104026020016040519081016040528092919081815260200182805461079e906134b8565b80156107eb5780601f106107c0576101008083540402835291602001916107eb565b820191906000526020600020905b8154815290600101906020018083116107ce57829003601f168201915b50505050508152602001600382018054610804906134b8565b80601f0160208091040260200160405190810160405280929190818152602001828054610830906134b8565b801561087d5780601f106108525761010080835404028352916020019161087d565b820191906000526020600020905b81548152906001019060200180831161086057829003601f168201915b50505050508152602001600482018054610896906134b8565b80601f01602080910402602001604051908101604052809291908181526020018280546108c2906134b8565b801561090f5780601f106108e45761010080835404028352916020019161090f565b820191906000526020600020905b8154815290600101906020018083116108f257829003601f168201915b5050505050815250509080600e016040518061022001604052908160008201548152602001600182015481526020016002820154815260200160038201548152602001600482015481526020016005820154815260200160068201548152602001600782015481526020016008820154815260200160098201548152602001600a8201805461099d906134b8565b80601f01602080910402602001604051908101604052809291908181526020018280546109c9906134b8565b8015610a165780601f106109eb57610100808354040283529160200191610a16565b820191906000526020600020905b8154815290600101906020018083116109f957829003601f168201915b50505050508152602001600b82018054610a2f906134b8565b80601f0160208091040260200160405190810160405280929190818152602001828054610a5b906134b8565b8015610aa85780601f10610a7d57610100808354040283529160200191610aa8565b820191906000526020600020905b815481529060010190602001808311610a8b57829003601f168201915b50505050508152602001600c82018054610ac1906134b8565b80601f0160208091040260200160405190810160405280929190818152602001828054610aed906134b8565b8015610b3a5780601f10610b0f57610100808354040283529160200191610b3a565b820191906000526020600020905b815481529060010190602001808311610b1d57829003601f168201915b50505050508152602001600d82018054610b53906134b8565b80601f0160208091040260200160405190810160405280929190818152602001828054610b7f906134b8565b8015610bcc5780601f10610ba157610100808354040283529160200191610bcc565b820191906000526020600020905b815481529060010190602001808311610baf57829003601f168201915b50505050508152602001600e820160009054906101000a900460ff16151515158152602001600e820160019054906101000a900460ff16151515158152602001600f82018054610c1b906134b8565b80601f0160208091040260200160405190810160405280929190818152602001828054610c47906134b8565b8015610c945780601f10610c6957610100808354040283529160200191610c94565b820191906000526020600020905b815481529060010190602001808311610c7757829003601f168201915b5050505050815250509080601e01604051806080016040529081600082018054610cbd906134b8565b80601f0160208091040260200160405190810160405280929190818152602001828054610ce9906134b8565b8015610d365780601f10610d0b57610100808354040283529160200191610d36565b820191906000526020600020905b815481529060010190602001808311610d1957829003601f168201915b50505050508152602001600182018054610d4f906134b8565b80601f0160208091040260200160405190810160405280929190818152602001828054610d7b906134b8565b8015610dc85780601f10610d9d57610100808354040283529160200191610dc8565b820191906000526020600020905b815481529060010190602001808311610dab57829003601f168201915b50505050508152602001600282018054610de1906134b8565b80601f0160208091040260200160405190810160405280929190818152602001828054610e0d906134b8565b8015610e5a5780601f10610e2f57610100808354040283529160200191610e5a565b820191906000526020600020905b815481529060010190602001808311610e3d57829003601f168201915b50505050508152602001600382018054610e73906134b8565b80601f0160208091040260200160405190810160405280929190818152602001828054610e9f906134b8565b8015610eec5780601f10610ec157610100808354040283529160200191610eec565b820191906000526020600020905b815481529060010190602001808311610ecf57829003601f168201915b5050505050815250509080602201604051806060016040529081600082015481526020016001820154815260200160028201548152505090806025016040518060400160405290816000820160009054906101000a900460ff161515151581526020016000820160019054906101000a900460ff1615151515815250509080602601604051806101000160405290816000820160009054906101000a900460ff16151515158152602001600182018054610fa5906134b8565b80601f0160208091040260200160405190810160405280929190818152602001828054610fd1906134b8565b801561101e5780601f10610ff35761010080835404028352916020019161101e565b820191906000526020600020905b81548152906001019060200180831161100157829003601f168201915b505050505081526020016002820160009054906101000a900460ff16151515158152602001600382018054611052906134b8565b80601f016020809104026020016040519081016040528092919081815260200182805461107e906134b8565b80156110cb5780601f106110a0576101008083540402835291602001916110cb565b820191906000526020600020905b8154815290600101906020018083116110ae57829003601f168201915b505050505081526020016004820160009054906101000a900460ff161515151581526020016005820180546110ff906134b8565b80601f016020809104026020016040519081016040528092919081815260200182805461112b906134b8565b80156111785780601f1061114d57610100808354040283529160200191611178565b820191906000526020600020905b81548152906001019060200180831161115b57829003601f168201915b505050505081526020016006820160009054906101000a900460ff161515151581526020016007820180546111ac906134b8565b80601f01602080910402602001604051908101604052809291908181526020018280546111d8906134b8565b80156112255780601f106111fa57610100808354040283529160200191611225565b820191906000526020600020905b81548152906001019060200180831161120857829003601f168201915b505050505081525050905088565b806000808201518160000155602082015181600101908051906020019061125b929190611fca565b5090505050565b8060000151600760003373ffffffffffffffffffffffffffffffffffffffff1673ffffffffffffffffffffffffffffffffffffffff16815260200190815260200160002060009054906101000a900460ff16806112ea57508073ffffffffffffffffffffffffffffffffffffffff163373ffffffffffffffffffffffffffffffffffffffff16145b611329576040517f08c379a00000000000000000000000000000000000000000000000000000000081526004016113209061331a565b60405180910390fd5b816006600085815260200190815260200160002060008201518160000160006101000a81548173ffffffffffffffffffffffffffffffffffffffff021916908373ffffffffffffffffffffffffffffffffffffffff16021790555060208201518160010160008201518160000190805190602001906113a9929190611fca565b5060208201518160010190805190602001906113c6929190611fca565b5060408201518160020190805190602001906113e3929190611fca565b506060820151816003019080519060200190611400929190611fca565b50608082015181600401908051906020019061141d929190611fca565b5060a0820151816005015560c0820151816006015560e0820151816007015550506040820151816009016000820151816000019080519060200190611463929190611fca565b506020820151816001019080519060200190611480929190611fca565b50604082015181600201908051906020019061149d929190611fca565b5060608201518160030190805190602001906114ba929190611fca565b5060808201518160040190805190602001906114d7929190611fca565b505050606082015181600e01600082015181600001556020820151816001015560408201518160020155606082015181600301556080820151816004015560a0820151816005015560c0820151816006015560e082015181600701556101008201518160080155610120820151816009015561014082015181600a019080519060200190611566929190611fca565b5061016082015181600b019080519060200190611584929190611fca565b5061018082015181600c0190805190602001906115a2929190611fca565b506101a082015181600d0190805190602001906115c0929190611fca565b506101c082015181600e0160006101000a81548160ff0219169083151502179055506101e082015181600e0160016101000a81548160ff02191690831515021790555061020082015181600f019080519060200190611620929190611fca565b505050608082015181601e016000820151816000019080519060200190611648929190611fca565b506020820151816001019080519060200190611665929190611fca565b506040820151816002019080519060200190611682929190611fca565b50606082015181600301908051906020019061169f929190611fca565b50505060a082015181602201600082015181600001556020820151816001015560408201518160020155505060c08201518160250160008201518160000160006101000a81548160ff02191690831515021790555060208201518160000160016101000a81548160ff021916908315150217905550505060e08201518160260160008201518160000160006101000a81548160ff021916908315150217905550602082015181600101908051906020019061175b929190611fca565b5060408201518160020160006101000a81548160ff0219169083151502179055506060820151816003019080519060200190611798929190611fca565b5060808201518160040160006101000a81548160ff02191690831515021790555060a08201518160050190805190602001906117d5929190611fca565b5060c08201518160060160006101000a81548160ff02191690831515021790555060e0820151816007019080519060200190611812929190611fca565b5050509050507f755f1ec6a421c918300a1fe03bb60771d8371d1e7578b6d196fe0f374ef2574033600554846020015160200151604051611855939291906132a1565b60405180910390a1505050565b33600760008273ffffffffffffffffffffffffffffffffffffffff1673ffffffffffffffffffffffffffffffffffffffff16815260200190815260200160002060009054906101000a900460ff166118ef576040517f08c379a00000000000000000000000000000000000000000000000000000000081526004016118e6906132fa565b60405180910390fd5b8160066000600554815260200190815260200160002060008201518160000160006101000a81548173ffffffffffffffffffffffffffffffffffffffff021916908373ffffffffffffffffffffffffffffffffffffffff1602179055506020820151816001016000820151816000019080519060200190611971929190611fca565b50602082015181600101908051906020019061198e929190611fca565b5060408201518160020190805190602001906119ab929190611fca565b5060608201518160030190805190602001906119c8929190611fca565b5060808201518160040190805190602001906119e5929190611fca565b5060a0820151816005015560c0820151816006015560e0820151816007015550506040820151816009016000820151816000019080519060200190611a2b929190611fca565b506020820151816001019080519060200190611a48929190611fca565b506040820151816002019080519060200190611a65929190611fca565b506060820151816003019080519060200190611a82929190611fca565b506080820151816004019080519060200190611a9f929190611fca565b505050606082015181600e01600082015181600001556020820151816001015560408201518160020155606082015181600301556080820151816004015560a0820151816005015560c0820151816006015560e082015181600701556101008201518160080155610120820151816009015561014082015181600a019080519060200190611b2e929190611fca565b5061016082015181600b019080519060200190611b4c929190611fca565b5061018082015181600c019080519060200190611b6a929190611fca565b506101a082015181600d019080519060200190611b88929190611fca565b506101c082015181600e0160006101000a81548160ff0219169083151502179055506101e082015181600e0160016101000a81548160ff02191690831515021790555061020082015181600f019080519060200190611be8929190611fca565b505050608082015181601e016000820151816000019080519060200190611c10929190611fca565b506020820151816001019080519060200190611c2d929190611fca565b506040820151816002019080519060200190611c4a929190611fca565b506060820151816003019080519060200190611c67929190611fca565b50505060a082015181602201600082015181600001556020820151816001015560408201518160020155505060c08201518160250160008201518160000160006101000a81548160ff02191690831515021790555060208201518160000160016101000a81548160ff021916908315150217905550505060e08201518160260160008201518160000160006101000a81548160ff0219169083151502179055506020820151816001019080519060200190611d23929190611fca565b5060408201518160020160006101000a81548160ff0219169083151502179055506060820151816003019080519060200190611d60929190611fca565b5060808201518160040160006101000a81548160ff02191690831515021790555060a0820151816005019080519060200190611d9d929190611fca565b5060c08201518160060160006101000a81548160ff02191690831515021790555060e0820151816007019080519060200190611dda929190611fca565b5050509050507f72eec265048d506496d8a735700f777c16cd3e8374adc2ea6c2a339c7b2b15b633600554846020015160200151604051611e1d939291906132a1565b60405180910390a1600160056000828254611e3891906133d8565b925050819055505050565b806002600082015181600001600082015181600001556020820151816001019080519060200190611e75929190611fca565b5050506020820151816002015590505050565b33600760008273ffffffffffffffffffffffffffffffffffffffff1673ffffffffffffffffffffffffffffffffffffffff16815260200190815260200160002060009054906101000a900460ff16611f15576040517f08c379a0000000000000000000000000000000000000000000000000000000008152600401611f0c906132fa565b60405180910390fd5b6000600760008473ffffffffffffffffffffffffffffffffffffffff1673ffffffffffffffffffffffffffffffffffffffff16815260200190815260200160002060006101000a81548160ff0219169083151502179055507f7c0c3c84c67c85fcac635147348bfe374c24a1a93d0366d1cfe9d8853cbf89d53383604051611f9e9291906131d5565b60405180910390a15050565b60076020528060005260406000206000915054906101000a900460ff1681565b828054611fd6906134b8565b90600052602060002090601f016020900481019282611ff8576000855561203f565b82601f1061201157805160ff191683800117855561203f565b8280016001018555821561203f579182015b8281111561203e578251825591602001919060010190612023565b5b50905061204c9190612050565b5090565b5b80821115612069576000816000905550600101612051565b5090565b600061208061207b8461337a565b613355565b90508281526020810184848401111561209c5761209b6135b7565b5b6120a7848285613476565b509392505050565b6000813590506120be81613629565b92915050565b6000813590506120d381613640565b92915050565b600082601f8301126120ee576120ed6135a8565b5b81356120fe84826020860161206d565b91505092915050565b60006040828403121561211d5761211c6135ad565b5b6121276040613355565b9050600061213784828501612a97565b600083015250602082013567ffffffffffffffff81111561215b5761215a6135b2565b5b612167848285016120d9565b60208301525092915050565b600060408284031215612189576121886135ad565b5b6121936040613355565b9050600082013567ffffffffffffffff8111156121b3576121b26135b2565b5b6121bf84828501612107565b60008301525060206121d384828501612a97565b60208301525092915050565b6000604082840312156121f5576121f46135ad565b5b6121ff6040613355565b9050600061220f848285016120c4565b6000830152506020612223848285016120c4565b60208301525092915050565b60006101008284031215612246576122456135ad565b5b612251610100613355565b90506000612261848285016120c4565b600083015250602082013567ffffffffffffffff811115612285576122846135b2565b5b612291848285016120d9565b60208301525060406122a5848285016120c4565b604083015250606082013567ffffffffffffffff8111156122c9576122c86135b2565b5b6122d5848285016120d9565b60608301525060806122e9848285016120c4565b60808301525060a082013567ffffffffffffffff81111561230d5761230c6135b2565b5b612319848285016120d9565b60a08301525060c061232d848285016120c4565b60c08301525060e082013567ffffffffffffffff811115612351576123506135b2565b5b61235d848285016120d9565b60e08301525092915050565b600061022082840312156123805761237f6135ad565b5b61238b610220613355565b9050600061239b84828501612a97565b60008301525060206123af84828501612a97565b60208301525060406123c384828501612a97565b60408301525060606123d784828501612a97565b60608301525060806123eb84828501612a97565b60808301525060a06123ff84828501612a97565b60a08301525060c061241384828501612a97565b60c08301525060e061242784828501612a97565b60e08301525061010061243c84828501612a97565b6101008301525061012061245284828501612a97565b6101208301525061014082013567ffffffffffffffff811115612478576124776135b2565b5b612484848285016120d9565b6101408301525061016082013567ffffffffffffffff8111156124aa576124a96135b2565b5b6124b6848285016120d9565b6101608301525061018082013567ffffffffffffffff8111156124dc576124db6135b2565b5b6124e8848285016120d9565b610180830152506101a082013567ffffffffffffffff81111561250e5761250d6135b2565b5b61251a848285016120d9565b6101a0830152506101c0612530848285016120c4565b6101c0830152506101e0612546848285016120c4565b6101e08301525061020082013567ffffffffffffffff81111561256c5761256b6135b2565b5b612578848285016120d9565b6102008301525092915050565b60006080828403121561259b5761259a6135ad565b5b6125a56080613355565b9050600082013567ffffffffffffffff8111156125c5576125c46135b2565b5b6125d1848285016120d9565b600083015250602082013567ffffffffffffffff8111156125f5576125f46135b2565b5b612601848285016120d9565b602083015250604082013567ffffffffffffffff811115612625576126246135b2565b5b612631848285016120d9565b604083015250606082013567ffffffffffffffff811115612655576126546135b2565b5b612661848285016120d9565b60608301525092915050565b600060a08284031215612683576126826135ad565b5b61268d60a0613355565b9050600082013567ffffffffffffffff8111156126ad576126ac6135b2565b5b6126b9848285016120d9565b600083015250602082013567ffffffffffffffff8111156126dd576126dc6135b2565b5b6126e9848285016120d9565b602083015250604082013567ffffffffffffffff81111561270d5761270c6135b2565b5b612719848285016120d9565b604083015250606082013567ffffffffffffffff81111561273d5761273c6135b2565b5b612749848285016120d9565b606083015250608082013567ffffffffffffffff81111561276d5761276c6135b2565b5b612779848285016120d9565b60808301525092915050565b6000610100828403121561279c5761279b6135ad565b5b6127a7610100613355565b9050600082013567ffffffffffffffff8111156127c7576127c66135b2565b5b6127d3848285016120d9565b600083015250602082013567ffffffffffffffff8111156127f7576127f66135b2565b5b612803848285016120d9565b602083015250604082013567ffffffffffffffff811115612827576128266135b2565b5b612833848285016120d9565b604083015250606082013567ffffffffffffffff811115612857576128566135b2565b5b612863848285016120d9565b606083015250608082013567ffffffffffffffff811115612887576128866135b2565b5b612893848285016120d9565b60808301525060a06128a784828501612a97565b60a08301525060c06128bb84828501612a97565b60c08301525060e06128cf84828501612a97565b60e08301525092915050565b6000606082840312156128f1576128f06135ad565b5b6128fb6060613355565b9050600061290b84828501612a97565b600083015250602061291f84828501612a97565b602083015250604061293384828501612a97565b60408301525092915050565b60006101608284031215612956576129556135ad565b5b612961610100613355565b90506000612971848285016120af565b600083015250602082013567ffffffffffffffff811115612995576129946135b2565b5b6129a184828501612785565b602083015250604082013567ffffffffffffffff8111156129c5576129c46135b2565b5b6129d18482850161266d565b604083015250606082013567ffffffffffffffff8111156129f5576129f46135b2565b5b612a0184828501612369565b606083015250608082013567ffffffffffffffff811115612a2557612a246135b2565b5b612a3184828501612585565b60808301525060a0612a45848285016128db565b60a083015250610100612a5a848285016121df565b60c08301525061014082013567ffffffffffffffff811115612a7f57612a7e6135b2565b5b612a8b8482850161222f565b60e08301525092915050565b600081359050612aa681613657565b92915050565b600060208284031215612ac257612ac16135c1565b5b6000612ad0848285016120af565b91505092915050565b600060208284031215612aef57612aee6135c1565b5b600082013567ffffffffffffffff811115612b0d57612b0c6135bc565b5b612b1984828501612107565b91505092915050565b600060208284031215612b3857612b376135c1565b5b600082013567ffffffffffffffff811115612b5657612b556135bc565b5b612b6284828501612173565b91505092915050565b600060208284031215612b8157612b806135c1565b5b600082013567ffffffffffffffff811115612b9f57612b9e6135bc565b5b612bab8482850161293f565b91505092915050565b600060208284031215612bca57612bc96135c1565b5b6000612bd884828501612a97565b91505092915050565b60008060408385031215612bf857612bf76135c1565b5b6000612c0685828601612a97565b925050602083013567ffffffffffffffff811115612c2757612c266135bc565b5b612c338582860161293f565b9150509250929050565b612c468161342e565b82525050565b612c5581613440565b82525050565b612c6481613440565b82525050565b6000612c75826133ab565b612c7f81856133b6565b9350612c8f818560208601613485565b612c98816135c6565b840191505092915050565b6000612cae826133ab565b612cb881856133c7565b9350612cc8818560208601613485565b612cd1816135c6565b840191505092915050565b6000612ce96014836133c7565b9150612cf4826135d7565b602082019050919050565b6000612d0c6016836133c7565b9150612d1782613600565b602082019050919050565b604082016000820151612d386000850182612c4c565b506020820151612d4b6020850182612c4c565b50505050565b600061010083016000830151612d6a6000860182612c4c565b5060208301518482036020860152612d828282612c6a565b9150506040830151612d976040860182612c4c565b5060608301518482036060860152612daf8282612c6a565b9150506080830151612dc46080860182612c4c565b5060a083015184820360a0860152612ddc8282612c6a565b91505060c0830151612df160c0860182612c4c565b5060e083015184820360e0860152612e098282612c6a565b9150508091505092915050565b600061022083016000830151612e2f60008601826131b7565b506020830151612e4260208601826131b7565b506040830151612e5560408601826131b7565b506060830151612e6860608601826131b7565b506080830151612e7b60808601826131b7565b5060a0830151612e8e60a08601826131b7565b5060c0830151612ea160c08601826131b7565b5060e0830151612eb460e08601826131b7565b50610100830151612ec96101008601826131b7565b50610120830151612ede6101208601826131b7565b50610140830151848203610140860152612ef88282612c6a565b915050610160830151848203610160860152612f148282612c6a565b915050610180830151848203610180860152612f308282612c6a565b9150506101a08301518482036101a0860152612f4c8282612c6a565b9150506101c0830151612f636101c0860182612c4c565b506101e0830151612f786101e0860182612c4c565b50610200830151848203610200860152612f928282612c6a565b9150508091505092915050565b60006080830160008301518482036000860152612fbc8282612c6a565b91505060208301518482036020860152612fd68282612c6a565b91505060408301518482036040860152612ff08282612c6a565b9150506060830151848203606086015261300a8282612c6a565b9150508091505092915050565b600060a08301600083015184820360008601526130348282612c6a565b9150506020830151848203602086015261304e8282612c6a565b915050604083015184820360408601526130688282612c6a565b915050606083015184820360608601526130828282612c6a565b9150506080830151848203608086015261309c8282612c6a565b9150508091505092915050565b60006101008301600083015184820360008601526130c78282612c6a565b915050602083015184820360208601526130e18282612c6a565b915050604083015184820360408601526130fb8282612c6a565b915050606083015184820360608601526131158282612c6a565b9150506080830151848203608086015261312f8282612c6a565b91505060a083015161314460a08601826131b7565b5060c083015161315760c08601826131b7565b5060e083015161316a60e08601826131b7565b508091505092915050565b60608201600082015161318b60008501826131b7565b50602082015161319e60208501826131b7565b5060408201516131b160408501826131b7565b50505050565b6131c08161346c565b82525050565b6131cf8161346c565b82525050565b60006040820190506131ea6000830185612c3d565b6131f76020830184612c3d565b9392505050565b600061016082019050613214600083018b612c3d565b8181036020830152613226818a6130a9565b9050818103604083015261323a8189613017565b9050818103606083015261324e8188612e16565b905081810360808301526132628187612f9f565b905061327160a0830186613175565b61327f610100830185612d22565b8181036101408301526132928184612d51565b90509998505050505050505050565b60006060820190506132b66000830186612c3d565b6132c360208301856131c6565b81810360408301526132d58184612ca3565b9050949350505050565b60006020820190506132f46000830184612c5b565b92915050565b6000602082019050818103600083015261331381612cdc565b9050919050565b6000602082019050818103600083015261333381612cff565b9050919050565b600060208201905061334f60008301846131c6565b92915050565b600061335f613370565b905061336b82826134ea565b919050565b6000604051905090565b600067ffffffffffffffff82111561339557613394613579565b5b61339e826135c6565b9050602081019050919050565b600081519050919050565b600082825260208201905092915050565b600082825260208201905092915050565b60006133e38261346c565b91506133ee8361346c565b9250827fffffffffffffffffffffffffffffffffffffffffffffffffffffffffffffffff038211156134235761342261351b565b5b828201905092915050565b60006134398261344c565b9050919050565b60008115159050919050565b600073ffffffffffffffffffffffffffffffffffffffff82169050919050565b6000819050919050565b82818337600083830152505050565b60005b838110156134a3578082015181840152602081019050613488565b838111156134b2576000848401525b50505050565b600060028204905060018216806134d057607f821691505b602082108114156134e4576134e361354a565b5b50919050565b6134f3826135c6565b810181811067ffffffffffffffff8211171561351257613511613579565b5b80604052505050565b7f4e487b7100000000000000000000000000000000000000000000000000000000600052601160045260246000fd5b7f4e487b7100000000000000000000000000000000000000000000000000000000600052602260045260246000fd5b7f4e487b7100000000000000000000000000000000000000000000000000000000600052604160045260246000fd5b600080fd5b600080fd5b600080fd5b600080fd5b600080fd5b600080fd5b6000601f19601f8301169050919050565b7f53656e646572206d7573742062652061646d696e000000000000000000000000600082015250565b7f53656e646572206d75737420626520656469746f722e00000000000000000000600082015250565b6136328161342e565b811461363d57600080fd5b50565b61364981613440565b811461365457600080fd5b50565b6136608161346c565b811461366b57600080fd5b5056fea26469706673582212200886128f2d4c755c217897dc2f94d794f663942943abd6104c9fe765bf31ed7164736f6c63430008050033",
  "immutableReferences": {},
  "source": "// SPDX-License-Identifier: MIT\n\npragma solidity 0.8.5;\n\ncontract Producers\n{\n  struct A {\n    uint256 x;\n    string y;\n  }\n  struct B {\n    A a;\n    uint256 x;\n  }\n\n  A a;\n  B b;\n\n  function functionA(A memory _a) public\n  {\n    a = _a;\n  }\n\n  function functionB(B memory _b) public\n  {\n    b = _b;\n  }\n\n  /* Structs */\n  struct Registry {\n    address editor;\n    Producer producer;\n    Organization organization;\n    Farm farm;\n    Harvest harvest;\n    ProductionVolume production_volume;\n    Beneficiary beneficiary;\n    CacaoAgroforestalSystem cacao_agroforestal_system;\n  }\n\n  struct Producer {\n    string photo;\n    string name;\n    string bio;\n    string id_number;\n    string sex;\n    uint256 birthday_year;\n    uint256 birthday_month;\n    uint256 birthday_day;\n  }\n\n  struct Organization {\n    string name;\n    string org_address;\n    string location;\n    string farm_name;\n    string general_description;\n  }\n\n  struct Farm {\n    uint256 georreference_utm_x;\n    uint256 georreference_utm_y;\n    uint256 height;\n    uint256 total_area;\n    uint256 other_farm_area;\n    uint256 forest_area;\n    uint256 cacao_area;\n    uint256 production_area;\n    uint256 template_area;\n    uint256 projection_area;\n    string variety1;\n    string variety2;\n    string variety3;\n    string variety4;\n    bool is_chemical;\n    bool is_organic;\n    string performance;\n  }\n\n  struct Harvest {\n    string start1;\n    string end1;\n    string start2;\n    string end2;\n  }\n\n  struct ProductionVolume {\n    uint256 punds;\n    uint256 quintal;\n    uint256 fruit;\n  }\n\n  struct CacaoAgroforestalSystem {\n    bool has_timber;\n    string timber_specs;\n    bool has_fruit;\n    string fruit_specs;\n    bool has_palm;\n    string palm_specs;\n    bool has_musaceae;\n    string musaceae_specs;\n  }\n\n  struct Beneficiary {\n    bool is_handcrafter;\n    bool is_industrial;\n  }\n\n  /* Events */\n  event AddProducerEvent(\n    address sender,\n    uint256 id,\n    string name\n  );\n\n  event EditProducerEvent(\n    address sender,\n    uint256 id,\n    string name\n  );\n\n  event AdminAdded(\n    address sender,\n    address new_admin\n  );\n\n  event AdminRevoked(\n    address sender,\n    address new_admin\n  );\n  \n  /* Public Variables */\n  uint256 public register_count;\n  mapping(uint256 => Registry) public registers;\n  mapping(address => bool) public addessIsAdmin;\n\n  constructor()\n  {\n    addessIsAdmin[msg.sender] = true;\n  }\n\n  /* Modifer */\n  modifier addressIsAdmin(address _address) {\n    require(addessIsAdmin[_address], \"Sender must be admin\");\n    _;\n  }\n\n  modifier addressIsEditor(address editor) {\n    require(addessIsAdmin[msg.sender] || msg.sender == editor, \"Sender must be editor.\");\n    _;\n  }\n\n  /* Public Functions */\n  function addAdminAddress(address _address) public addressIsAdmin(msg.sender)\n  {\n    addessIsAdmin[_address] = true;\n    emit AdminAdded(\n      msg.sender, _address\n    );\n  }\n\n  function revokeAdminAddress(address _address) public addressIsAdmin(msg.sender)\n  {\n    addessIsAdmin[_address] = false;\n    emit AdminRevoked(\n      msg.sender, _address\n    );\n  }\n\n  function addProducer(Registry memory registry)\n    public addressIsAdmin(msg.sender)\n  {\n    registers[register_count] = registry;\n    emit AddProducerEvent(\n      msg.sender, register_count, registry.producer.name\n    );\n    register_count += 1;\n  }\n\n  function editProducer(uint256 id, Registry memory registry)\n    public addressIsEditor(registry.editor)\n  {\n    registers[id] = registry;\n    emit EditProducerEvent(\n      msg.sender, register_count, registry.producer.name\n    );\n  }\n}",
  "sourcePath": "/home/turupawn/Projects/Blockchain/Productores/contracts/Producers.sol",
  "compiler": {
    "name": "solc",
    "version": "0.8.5+commit.a4f2e591.Emscripten.clang"
  },
  "schemaVersion": "3.4.1",
  "updatedAt": "2021-07-03T22:17:01.675Z",
  "networkType": "ethereum",
  "devdoc": {
    "kind": "dev",
    "methods": {},
    "version": 1
  },
  "userdoc": {
    "kind": "user",
    "methods": {},
    "version": 1
  }
}