{
  "contractName": "Producers",
  "abi": [
    {
      "inputs": [],
      "stateMutability": "nonpayable",
      "type": "constructor"
    },
    {
      "anonymous": false,
      "inputs": [
        {
          "indexed": true,
          "internalType": "address",
          "name": "previousOwner",
          "type": "address"
        },
        {
          "indexed": true,
          "internalType": "address",
          "name": "newOwner",
          "type": "address"
        }
      ],
      "name": "OwnershipTransferred",
      "type": "event"
    },
    {
      "inputs": [],
      "name": "owner",
      "outputs": [
        {
          "internalType": "address",
          "name": "",
          "type": "address"
        }
      ],
      "stateMutability": "view",
      "type": "function",
      "constant": true
    },
    {
      "inputs": [],
      "name": "producer_count",
      "outputs": [
        {
          "internalType": "uint256",
          "name": "",
          "type": "uint256"
        }
      ],
      "stateMutability": "view",
      "type": "function",
      "constant": true
    },
    {
      "inputs": [
        {
          "internalType": "uint256",
          "name": "",
          "type": "uint256"
        }
      ],
      "name": "producers",
      "outputs": [
        {
          "components": [
            {
              "internalType": "string",
              "name": "photo",
              "type": "string"
            },
            {
              "internalType": "string",
              "name": "name",
              "type": "string"
            },
            {
              "internalType": "string",
              "name": "id_number",
              "type": "string"
            },
            {
              "internalType": "string",
              "name": "rtn",
              "type": "string"
            },
            {
              "internalType": "string",
              "name": "birthday",
              "type": "string"
            },
            {
              "internalType": "string",
              "name": "gender",
              "type": "string"
            },
            {
              "internalType": "string",
              "name": "marital_status",
              "type": "string"
            },
            {
              "internalType": "uint256",
              "name": "amount_childs",
              "type": "uint256"
            },
            {
              "internalType": "uint256",
              "name": "amount_sons",
              "type": "uint256"
            },
            {
              "internalType": "uint256",
              "name": "amount_daugters",
              "type": "uint256"
            },
            {
              "internalType": "string",
              "name": "cellphone",
              "type": "string"
            },
            {
              "internalType": "string",
              "name": "email",
              "type": "string"
            },
            {
              "internalType": "string",
              "name": "bio",
              "type": "string"
            }
          ],
          "internalType": "struct Producers.PersonalInformation",
          "name": "personal_information",
          "type": "tuple"
        },
        {
          "components": [
            {
              "internalType": "string",
              "name": "name",
              "type": "string"
            },
            {
              "internalType": "string",
              "name": "zone_description",
              "type": "string"
            },
            {
              "internalType": "string",
              "name": "belonging_organization",
              "type": "string"
            },
            {
              "internalType": "string",
              "name": "organization_address",
              "type": "string"
            },
            {
              "internalType": "string",
              "name": "location",
              "type": "string"
            },
            {
              "internalType": "uint256",
              "name": "georeference_x",
              "type": "uint256"
            },
            {
              "internalType": "uint256",
              "name": "georeference_y",
              "type": "uint256"
            },
            {
              "internalType": "uint256",
              "name": "msnm_height",
              "type": "uint256"
            }
          ],
          "internalType": "struct Producers.FarmInfo",
          "name": "farm_info",
          "type": "tuple"
        },
        {
          "components": [
            {
              "internalType": "uint256",
              "name": "total",
              "type": "uint256"
            },
            {
              "internalType": "uint256",
              "name": "other_farm",
              "type": "uint256"
            },
            {
              "internalType": "uint256",
              "name": "forest",
              "type": "uint256"
            },
            {
              "internalType": "uint256",
              "name": "cacao",
              "type": "uint256"
            },
            {
              "internalType": "uint256",
              "name": "production",
              "type": "uint256"
            },
            {
              "internalType": "uint256",
              "name": "template",
              "type": "uint256"
            },
            {
              "internalType": "uint256",
              "name": "projection",
              "type": "uint256"
            }
          ],
          "internalType": "struct Producers.FarmArea",
          "name": "farm_area",
          "type": "tuple"
        },
        {
          "components": [
            {
              "internalType": "string",
              "name": "variety_1",
              "type": "string"
            },
            {
              "internalType": "string",
              "name": "variety_2",
              "type": "string"
            },
            {
              "internalType": "string",
              "name": "variety_3",
              "type": "string"
            },
            {
              "internalType": "string",
              "name": "variety_4",
              "type": "string"
            },
            {
              "internalType": "string",
              "name": "variety_5",
              "type": "string"
            },
            {
              "internalType": "string",
              "name": "variety_6",
              "type": "string"
            },
            {
              "internalType": "string",
              "name": "variety_7",
              "type": "string"
            },
            {
              "internalType": "string",
              "name": "variety_8",
              "type": "string"
            }
          ],
          "internalType": "struct Producers.Plantation",
          "name": "plantation",
          "type": "tuple"
        },
        {
          "components": [
            {
              "internalType": "uint256",
              "name": "management",
              "type": "uint256"
            },
            {
              "internalType": "uint256",
              "name": "performance",
              "type": "uint256"
            }
          ],
          "internalType": "struct Producers.Farm",
          "name": "farm",
          "type": "tuple"
        },
        {
          "components": [
            {
              "internalType": "uint256",
              "name": "timber",
              "type": "uint256"
            },
            {
              "internalType": "string",
              "name": "timber_description",
              "type": "string"
            },
            {
              "internalType": "uint256",
              "name": "fruit",
              "type": "uint256"
            },
            {
              "internalType": "string",
              "name": "fruit_description",
              "type": "string"
            },
            {
              "internalType": "uint256",
              "name": "palm",
              "type": "uint256"
            },
            {
              "internalType": "string",
              "name": "palm_description",
              "type": "string"
            },
            {
              "internalType": "uint256",
              "name": "musaceae",
              "type": "uint256"
            },
            {
              "internalType": "string",
              "name": "musaceae_description",
              "type": "string"
            }
          ],
          "internalType": "struct Producers.CSA",
          "name": "csa",
          "type": "tuple"
        },
        {
          "components": [
            {
              "internalType": "string",
              "name": "start_1",
              "type": "string"
            },
            {
              "internalType": "string",
              "name": "end_1",
              "type": "string"
            },
            {
              "internalType": "string",
              "name": "start_2",
              "type": "string"
            },
            {
              "internalType": "string",
              "name": "end_2",
              "type": "string"
            },
            {
              "internalType": "uint256",
              "name": "cob",
              "type": "uint256"
            },
            {
              "internalType": "uint256",
              "name": "slime",
              "type": "uint256"
            },
            {
              "internalType": "uint256",
              "name": "dry_and_fermented",
              "type": "uint256"
            },
            {
              "internalType": "uint256",
              "name": "dry_only",
              "type": "uint256"
            },
            {
              "internalType": "uint256",
              "name": "total_year_volume",
              "type": "uint256"
            },
            {
              "internalType": "string",
              "name": "cacao_atributes_and_profile",
              "type": "string"
            },
            {
              "internalType": "uint256",
              "name": "status",
              "type": "uint256"
            }
          ],
          "internalType": "struct Producers.Harvest",
          "name": "harvest",
          "type": "tuple"
        }
      ],
      "stateMutability": "view",
      "type": "function",
      "constant": true
    },
    {
      "inputs": [],
      "name": "renounceOwnership",
      "outputs": [],
      "stateMutability": "nonpayable",
      "type": "function"
    },
    {
      "inputs": [
        {
          "internalType": "address",
          "name": "newOwner",
          "type": "address"
        }
      ],
      "name": "transferOwnership",
      "outputs": [],
      "stateMutability": "nonpayable",
      "type": "function"
    },
    {
      "inputs": [
        {
          "components": [
            {
              "components": [
                {
                  "internalType": "string",
                  "name": "photo",
                  "type": "string"
                },
                {
                  "internalType": "string",
                  "name": "name",
                  "type": "string"
                },
                {
                  "internalType": "string",
                  "name": "id_number",
                  "type": "string"
                },
                {
                  "internalType": "string",
                  "name": "rtn",
                  "type": "string"
                },
                {
                  "internalType": "string",
                  "name": "birthday",
                  "type": "string"
                },
                {
                  "internalType": "string",
                  "name": "gender",
                  "type": "string"
                },
                {
                  "internalType": "string",
                  "name": "marital_status",
                  "type": "string"
                },
                {
                  "internalType": "uint256",
                  "name": "amount_childs",
                  "type": "uint256"
                },
                {
                  "internalType": "uint256",
                  "name": "amount_sons",
                  "type": "uint256"
                },
                {
                  "internalType": "uint256",
                  "name": "amount_daugters",
                  "type": "uint256"
                },
                {
                  "internalType": "string",
                  "name": "cellphone",
                  "type": "string"
                },
                {
                  "internalType": "string",
                  "name": "email",
                  "type": "string"
                },
                {
                  "internalType": "string",
                  "name": "bio",
                  "type": "string"
                }
              ],
              "internalType": "struct Producers.PersonalInformation",
              "name": "personal_information",
              "type": "tuple"
            },
            {
              "components": [
                {
                  "internalType": "string",
                  "name": "name",
                  "type": "string"
                },
                {
                  "internalType": "string",
                  "name": "zone_description",
                  "type": "string"
                },
                {
                  "internalType": "string",
                  "name": "belonging_organization",
                  "type": "string"
                },
                {
                  "internalType": "string",
                  "name": "organization_address",
                  "type": "string"
                },
                {
                  "internalType": "string",
                  "name": "location",
                  "type": "string"
                },
                {
                  "internalType": "uint256",
                  "name": "georeference_x",
                  "type": "uint256"
                },
                {
                  "internalType": "uint256",
                  "name": "georeference_y",
                  "type": "uint256"
                },
                {
                  "internalType": "uint256",
                  "name": "msnm_height",
                  "type": "uint256"
                }
              ],
              "internalType": "struct Producers.FarmInfo",
              "name": "farm_info",
              "type": "tuple"
            },
            {
              "components": [
                {
                  "internalType": "uint256",
                  "name": "total",
                  "type": "uint256"
                },
                {
                  "internalType": "uint256",
                  "name": "other_farm",
                  "type": "uint256"
                },
                {
                  "internalType": "uint256",
                  "name": "forest",
                  "type": "uint256"
                },
                {
                  "internalType": "uint256",
                  "name": "cacao",
                  "type": "uint256"
                },
                {
                  "internalType": "uint256",
                  "name": "production",
                  "type": "uint256"
                },
                {
                  "internalType": "uint256",
                  "name": "template",
                  "type": "uint256"
                },
                {
                  "internalType": "uint256",
                  "name": "projection",
                  "type": "uint256"
                }
              ],
              "internalType": "struct Producers.FarmArea",
              "name": "farm_area",
              "type": "tuple"
            },
            {
              "components": [
                {
                  "internalType": "string",
                  "name": "variety_1",
                  "type": "string"
                },
                {
                  "internalType": "string",
                  "name": "variety_2",
                  "type": "string"
                },
                {
                  "internalType": "string",
                  "name": "variety_3",
                  "type": "string"
                },
                {
                  "internalType": "string",
                  "name": "variety_4",
                  "type": "string"
                },
                {
                  "internalType": "string",
                  "name": "variety_5",
                  "type": "string"
                },
                {
                  "internalType": "string",
                  "name": "variety_6",
                  "type": "string"
                },
                {
                  "internalType": "string",
                  "name": "variety_7",
                  "type": "string"
                },
                {
                  "internalType": "string",
                  "name": "variety_8",
                  "type": "string"
                }
              ],
              "internalType": "struct Producers.Plantation",
              "name": "plantation",
              "type": "tuple"
            },
            {
              "components": [
                {
                  "internalType": "uint256",
                  "name": "management",
                  "type": "uint256"
                },
                {
                  "internalType": "uint256",
                  "name": "performance",
                  "type": "uint256"
                }
              ],
              "internalType": "struct Producers.Farm",
              "name": "farm",
              "type": "tuple"
            },
            {
              "components": [
                {
                  "internalType": "uint256",
                  "name": "timber",
                  "type": "uint256"
                },
                {
                  "internalType": "string",
                  "name": "timber_description",
                  "type": "string"
                },
                {
                  "internalType": "uint256",
                  "name": "fruit",
                  "type": "uint256"
                },
                {
                  "internalType": "string",
                  "name": "fruit_description",
                  "type": "string"
                },
                {
                  "internalType": "uint256",
                  "name": "palm",
                  "type": "uint256"
                },
                {
                  "internalType": "string",
                  "name": "palm_description",
                  "type": "string"
                },
                {
                  "internalType": "uint256",
                  "name": "musaceae",
                  "type": "uint256"
                },
                {
                  "internalType": "string",
                  "name": "musaceae_description",
                  "type": "string"
                }
              ],
              "internalType": "struct Producers.CSA",
              "name": "csa",
              "type": "tuple"
            },
            {
              "components": [
                {
                  "internalType": "string",
                  "name": "start_1",
                  "type": "string"
                },
                {
                  "internalType": "string",
                  "name": "end_1",
                  "type": "string"
                },
                {
                  "internalType": "string",
                  "name": "start_2",
                  "type": "string"
                },
                {
                  "internalType": "string",
                  "name": "end_2",
                  "type": "string"
                },
                {
                  "internalType": "uint256",
                  "name": "cob",
                  "type": "uint256"
                },
                {
                  "internalType": "uint256",
                  "name": "slime",
                  "type": "uint256"
                },
                {
                  "internalType": "uint256",
                  "name": "dry_and_fermented",
                  "type": "uint256"
                },
                {
                  "internalType": "uint256",
                  "name": "dry_only",
                  "type": "uint256"
                },
                {
                  "internalType": "uint256",
                  "name": "total_year_volume",
                  "type": "uint256"
                },
                {
                  "internalType": "string",
                  "name": "cacao_atributes_and_profile",
                  "type": "string"
                },
                {
                  "internalType": "uint256",
                  "name": "status",
                  "type": "uint256"
                }
              ],
              "internalType": "struct Producers.Harvest",
              "name": "harvest",
              "type": "tuple"
            }
          ],
          "internalType": "struct Producers.Producer",
          "name": "producer",
          "type": "tuple"
        }
      ],
      "name": "addProducer",
      "outputs": [],
      "stateMutability": "nonpayable",
      "type": "function"
    },
    {
      "inputs": [
        {
          "internalType": "uint256",
          "name": "id",
          "type": "uint256"
        },
        {
          "components": [
            {
              "components": [
                {
                  "internalType": "string",
                  "name": "photo",
                  "type": "string"
                },
                {
                  "internalType": "string",
                  "name": "name",
                  "type": "string"
                },
                {
                  "internalType": "string",
                  "name": "id_number",
                  "type": "string"
                },
                {
                  "internalType": "string",
                  "name": "rtn",
                  "type": "string"
                },
                {
                  "internalType": "string",
                  "name": "birthday",
                  "type": "string"
                },
                {
                  "internalType": "string",
                  "name": "gender",
                  "type": "string"
                },
                {
                  "internalType": "string",
                  "name": "marital_status",
                  "type": "string"
                },
                {
                  "internalType": "uint256",
                  "name": "amount_childs",
                  "type": "uint256"
                },
                {
                  "internalType": "uint256",
                  "name": "amount_sons",
                  "type": "uint256"
                },
                {
                  "internalType": "uint256",
                  "name": "amount_daugters",
                  "type": "uint256"
                },
                {
                  "internalType": "string",
                  "name": "cellphone",
                  "type": "string"
                },
                {
                  "internalType": "string",
                  "name": "email",
                  "type": "string"
                },
                {
                  "internalType": "string",
                  "name": "bio",
                  "type": "string"
                }
              ],
              "internalType": "struct Producers.PersonalInformation",
              "name": "personal_information",
              "type": "tuple"
            },
            {
              "components": [
                {
                  "internalType": "string",
                  "name": "name",
                  "type": "string"
                },
                {
                  "internalType": "string",
                  "name": "zone_description",
                  "type": "string"
                },
                {
                  "internalType": "string",
                  "name": "belonging_organization",
                  "type": "string"
                },
                {
                  "internalType": "string",
                  "name": "organization_address",
                  "type": "string"
                },
                {
                  "internalType": "string",
                  "name": "location",
                  "type": "string"
                },
                {
                  "internalType": "uint256",
                  "name": "georeference_x",
                  "type": "uint256"
                },
                {
                  "internalType": "uint256",
                  "name": "georeference_y",
                  "type": "uint256"
                },
                {
                  "internalType": "uint256",
                  "name": "msnm_height",
                  "type": "uint256"
                }
              ],
              "internalType": "struct Producers.FarmInfo",
              "name": "farm_info",
              "type": "tuple"
            },
            {
              "components": [
                {
                  "internalType": "uint256",
                  "name": "total",
                  "type": "uint256"
                },
                {
                  "internalType": "uint256",
                  "name": "other_farm",
                  "type": "uint256"
                },
                {
                  "internalType": "uint256",
                  "name": "forest",
                  "type": "uint256"
                },
                {
                  "internalType": "uint256",
                  "name": "cacao",
                  "type": "uint256"
                },
                {
                  "internalType": "uint256",
                  "name": "production",
                  "type": "uint256"
                },
                {
                  "internalType": "uint256",
                  "name": "template",
                  "type": "uint256"
                },
                {
                  "internalType": "uint256",
                  "name": "projection",
                  "type": "uint256"
                }
              ],
              "internalType": "struct Producers.FarmArea",
              "name": "farm_area",
              "type": "tuple"
            },
            {
              "components": [
                {
                  "internalType": "string",
                  "name": "variety_1",
                  "type": "string"
                },
                {
                  "internalType": "string",
                  "name": "variety_2",
                  "type": "string"
                },
                {
                  "internalType": "string",
                  "name": "variety_3",
                  "type": "string"
                },
                {
                  "internalType": "string",
                  "name": "variety_4",
                  "type": "string"
                },
                {
                  "internalType": "string",
                  "name": "variety_5",
                  "type": "string"
                },
                {
                  "internalType": "string",
                  "name": "variety_6",
                  "type": "string"
                },
                {
                  "internalType": "string",
                  "name": "variety_7",
                  "type": "string"
                },
                {
                  "internalType": "string",
                  "name": "variety_8",
                  "type": "string"
                }
              ],
              "internalType": "struct Producers.Plantation",
              "name": "plantation",
              "type": "tuple"
            },
            {
              "components": [
                {
                  "internalType": "uint256",
                  "name": "management",
                  "type": "uint256"
                },
                {
                  "internalType": "uint256",
                  "name": "performance",
                  "type": "uint256"
                }
              ],
              "internalType": "struct Producers.Farm",
              "name": "farm",
              "type": "tuple"
            },
            {
              "components": [
                {
                  "internalType": "uint256",
                  "name": "timber",
                  "type": "uint256"
                },
                {
                  "internalType": "string",
                  "name": "timber_description",
                  "type": "string"
                },
                {
                  "internalType": "uint256",
                  "name": "fruit",
                  "type": "uint256"
                },
                {
                  "internalType": "string",
                  "name": "fruit_description",
                  "type": "string"
                },
                {
                  "internalType": "uint256",
                  "name": "palm",
                  "type": "uint256"
                },
                {
                  "internalType": "string",
                  "name": "palm_description",
                  "type": "string"
                },
                {
                  "internalType": "uint256",
                  "name": "musaceae",
                  "type": "uint256"
                },
                {
                  "internalType": "string",
                  "name": "musaceae_description",
                  "type": "string"
                }
              ],
              "internalType": "struct Producers.CSA",
              "name": "csa",
              "type": "tuple"
            },
            {
              "components": [
                {
                  "internalType": "string",
                  "name": "start_1",
                  "type": "string"
                },
                {
                  "internalType": "string",
                  "name": "end_1",
                  "type": "string"
                },
                {
                  "internalType": "string",
                  "name": "start_2",
                  "type": "string"
                },
                {
                  "internalType": "string",
                  "name": "end_2",
                  "type": "string"
                },
                {
                  "internalType": "uint256",
                  "name": "cob",
                  "type": "uint256"
                },
                {
                  "internalType": "uint256",
                  "name": "slime",
                  "type": "uint256"
                },
                {
                  "internalType": "uint256",
                  "name": "dry_and_fermented",
                  "type": "uint256"
                },
                {
                  "internalType": "uint256",
                  "name": "dry_only",
                  "type": "uint256"
                },
                {
                  "internalType": "uint256",
                  "name": "total_year_volume",
                  "type": "uint256"
                },
                {
                  "internalType": "string",
                  "name": "cacao_atributes_and_profile",
                  "type": "string"
                },
                {
                  "internalType": "uint256",
                  "name": "status",
                  "type": "uint256"
                }
              ],
              "internalType": "struct Producers.Harvest",
              "name": "harvest",
              "type": "tuple"
            }
          ],
          "internalType": "struct Producers.Producer",
          "name": "producer",
          "type": "tuple"
        }
      ],
      "name": "editProducer",
      "outputs": [],
      "stateMutability": "nonpayable",
      "type": "function"
    }
  ],
  "bytecode": "0x60806040523480156200001157600080fd5b5062000032620000266200003860201b60201c565b6200004060201b60201c565b62000104565b600033905090565b60008060009054906101000a900473ffffffffffffffffffffffffffffffffffffffff169050816000806101000a81548173ffffffffffffffffffffffffffffffffffffffff021916908373ffffffffffffffffffffffffffffffffffffffff1602179055508173ffffffffffffffffffffffffffffffffffffffff168173ffffffffffffffffffffffffffffffffffffffff167f8be0079c531659141344cd1fd0a4f28419497f9722a3daafe3b4186f6b6457e060405160405180910390a35050565b613c5a80620001146000396000f3fe608060405234801561001057600080fd5b506004361061007d5760003560e01c8063715018a61161005b578063715018a6146100d85780638da5cb5b146100e25780639b68ade714610100578063f2fde38b146101365761007d565b80633ed8dff7146100825780634a4461491461009e578063587c601b146100ba575b600080fd5b61009c6004803603810190610097919061303d565b610152565b005b6100b860048036038101906100b39190612fc7565b610774565b005b6100c2610db0565b6040516100cf919061384f565b60405180910390f35b6100e0610db6565b005b6100ea610e3e565b6040516100f7919061371d565b60405180910390f35b61011a60048036038101906101159190613010565b610e67565b60405161012d97969594939291906137b8565b60405180910390f35b610150600480360381019061014b9190612f9a565b61222e565b005b61015a612326565b73ffffffffffffffffffffffffffffffffffffffff16610178610e3e565b73ffffffffffffffffffffffffffffffffffffffff16146101ce576040517f08c379a00000000000000000000000000000000000000000000000000000000081526004016101c590613798565b60405180910390fd5b80600081600001516020015151141561021c576040517f08c379a000000000000000000000000000000000000000000000000000000000815260040161021390613778565b60405180910390fd5b6000816000015160400151511415610269576040517f08c379a000000000000000000000000000000000000000000000000000000000815260040161026090613758565b60405180910390fd5b816002600085815260200190815260200160002060008201518160000160008201518160000190805190602001906102a29291906123f2565b5060208201518160010190805190602001906102bf9291906123f2565b5060408201518160020190805190602001906102dc9291906123f2565b5060608201518160030190805190602001906102f99291906123f2565b5060808201518160040190805190602001906103169291906123f2565b5060a08201518160050190805190602001906103339291906123f2565b5060c08201518160060190805190602001906103509291906123f2565b5060e082015181600701556101008201518160080155610120820151816009015561014082015181600a01908051906020019061038e9291906123f2565b5061016082015181600b0190805190602001906103ac9291906123f2565b5061018082015181600c0190805190602001906103ca9291906123f2565b505050602082015181600d0160008201518160000190805190602001906103f29291906123f2565b50602082015181600101908051906020019061040f9291906123f2565b50604082015181600201908051906020019061042c9291906123f2565b5060608201518160030190805190602001906104499291906123f2565b5060808201518160040190805190602001906104669291906123f2565b5060a0820151816005015560c0820151816006015560e082015181600701555050604082015181601501600082015181600001556020820151816001015560408201518160020155606082015181600301556080820151816004015560a0820151816005015560c082015181600601555050606082015181601c0160008201518160000190805190602001906104fd9291906123f2565b50602082015181600101908051906020019061051a9291906123f2565b5060408201518160020190805190602001906105379291906123f2565b5060608201518160030190805190602001906105549291906123f2565b5060808201518160040190805190602001906105719291906123f2565b5060a082015181600501908051906020019061058e9291906123f2565b5060c08201518160060190805190602001906105ab9291906123f2565b5060e08201518160070190805190602001906105c89291906123f2565b5050506080820151816024016000820151816000015560208201518160010155505060a0820151816026016000820151816000015560208201518160010190805190602001906106199291906123f2565b506040820151816002015560608201518160030190805190602001906106409291906123f2565b506080820151816004015560a08201518160050190805190602001906106679291906123f2565b5060c0820151816006015560e082015181600701908051906020019061068e9291906123f2565b50505060c082015181602e0160008201518160000190805190602001906106b69291906123f2565b5060208201518160010190805190602001906106d39291906123f2565b5060408201518160020190805190602001906106f09291906123f2565b50606082015181600301908051906020019061070d9291906123f2565b506080820151816004015560a0820151816005015560c0820151816006015560e08201518160070155610100820151816008015561012082015181600901908051906020019061075e9291906123f2565b5061014082015181600a01555050905050505050565b61077c612326565b73ffffffffffffffffffffffffffffffffffffffff1661079a610e3e565b73ffffffffffffffffffffffffffffffffffffffff16146107f0576040517f08c379a00000000000000000000000000000000000000000000000000000000081526004016107e790613798565b60405180910390fd5b80600081600001516020015151141561083e576040517f08c379a000000000000000000000000000000000000000000000000000000000815260040161083590613778565b60405180910390fd5b600081600001516040015151141561088b576040517f08c379a000000000000000000000000000000000000000000000000000000000815260040161088290613758565b60405180910390fd5b600180600082825461089d91906138ed565b925050819055508160026000600154815260200190815260200160002060008201518160000160008201518160000190805190602001906108df9291906123f2565b5060208201518160010190805190602001906108fc9291906123f2565b5060408201518160020190805190602001906109199291906123f2565b5060608201518160030190805190602001906109369291906123f2565b5060808201518160040190805190602001906109539291906123f2565b5060a08201518160050190805190602001906109709291906123f2565b5060c082015181600601908051906020019061098d9291906123f2565b5060e082015181600701556101008201518160080155610120820151816009015561014082015181600a0190805190602001906109cb9291906123f2565b5061016082015181600b0190805190602001906109e99291906123f2565b5061018082015181600c019080519060200190610a079291906123f2565b505050602082015181600d016000820151816000019080519060200190610a2f9291906123f2565b506020820151816001019080519060200190610a4c9291906123f2565b506040820151816002019080519060200190610a699291906123f2565b506060820151816003019080519060200190610a869291906123f2565b506080820151816004019080519060200190610aa39291906123f2565b5060a0820151816005015560c0820151816006015560e082015181600701555050604082015181601501600082015181600001556020820151816001015560408201518160020155606082015181600301556080820151816004015560a0820151816005015560c082015181600601555050606082015181601c016000820151816000019080519060200190610b3a9291906123f2565b506020820151816001019080519060200190610b579291906123f2565b506040820151816002019080519060200190610b749291906123f2565b506060820151816003019080519060200190610b919291906123f2565b506080820151816004019080519060200190610bae9291906123f2565b5060a0820151816005019080519060200190610bcb9291906123f2565b5060c0820151816006019080519060200190610be89291906123f2565b5060e0820151816007019080519060200190610c059291906123f2565b5050506080820151816024016000820151816000015560208201518160010155505060a082015181602601600082015181600001556020820151816001019080519060200190610c569291906123f2565b50604082015181600201556060820151816003019080519060200190610c7d9291906123f2565b506080820151816004015560a0820151816005019080519060200190610ca49291906123f2565b5060c0820151816006015560e0820151816007019080519060200190610ccb9291906123f2565b50505060c082015181602e016000820151816000019080519060200190610cf39291906123f2565b506020820151816001019080519060200190610d109291906123f2565b506040820151816002019080519060200190610d2d9291906123f2565b506060820151816003019080519060200190610d4a9291906123f2565b506080820151816004015560a0820151816005015560c0820151816006015560e082015181600701556101008201518160080155610120820151816009019080519060200190610d9b9291906123f2565b5061014082015181600a015550509050505050565b60015481565b610dbe612326565b73ffffffffffffffffffffffffffffffffffffffff16610ddc610e3e565b73ffffffffffffffffffffffffffffffffffffffff1614610e32576040517f08c379a0000000000000000000000000000000000000000000000000000000008152600401610e2990613798565b60405180910390fd5b610e3c600061232e565b565b60008060009054906101000a900473ffffffffffffffffffffffffffffffffffffffff16905090565b600260205280600052604060002060009150905080600001604051806101a0016040529081600082018054610e9b906139c1565b80601f0160208091040260200160405190810160405280929190818152602001828054610ec7906139c1565b8015610f145780601f10610ee957610100808354040283529160200191610f14565b820191906000526020600020905b815481529060010190602001808311610ef757829003601f168201915b50505050508152602001600182018054610f2d906139c1565b80601f0160208091040260200160405190810160405280929190818152602001828054610f59906139c1565b8015610fa65780601f10610f7b57610100808354040283529160200191610fa6565b820191906000526020600020905b815481529060010190602001808311610f8957829003601f168201915b50505050508152602001600282018054610fbf906139c1565b80601f0160208091040260200160405190810160405280929190818152602001828054610feb906139c1565b80156110385780601f1061100d57610100808354040283529160200191611038565b820191906000526020600020905b81548152906001019060200180831161101b57829003601f168201915b50505050508152602001600382018054611051906139c1565b80601f016020809104026020016040519081016040528092919081815260200182805461107d906139c1565b80156110ca5780601f1061109f576101008083540402835291602001916110ca565b820191906000526020600020905b8154815290600101906020018083116110ad57829003601f168201915b505050505081526020016004820180546110e3906139c1565b80601f016020809104026020016040519081016040528092919081815260200182805461110f906139c1565b801561115c5780601f106111315761010080835404028352916020019161115c565b820191906000526020600020905b81548152906001019060200180831161113f57829003601f168201915b50505050508152602001600582018054611175906139c1565b80601f01602080910402602001604051908101604052809291908181526020018280546111a1906139c1565b80156111ee5780601f106111c3576101008083540402835291602001916111ee565b820191906000526020600020905b8154815290600101906020018083116111d157829003601f168201915b50505050508152602001600682018054611207906139c1565b80601f0160208091040260200160405190810160405280929190818152602001828054611233906139c1565b80156112805780601f1061125557610100808354040283529160200191611280565b820191906000526020600020905b81548152906001019060200180831161126357829003601f168201915b50505050508152602001600782015481526020016008820154815260200160098201548152602001600a820180546112b7906139c1565b80601f01602080910402602001604051908101604052809291908181526020018280546112e3906139c1565b80156113305780601f1061130557610100808354040283529160200191611330565b820191906000526020600020905b81548152906001019060200180831161131357829003601f168201915b50505050508152602001600b82018054611349906139c1565b80601f0160208091040260200160405190810160405280929190818152602001828054611375906139c1565b80156113c25780601f10611397576101008083540402835291602001916113c2565b820191906000526020600020905b8154815290600101906020018083116113a557829003601f168201915b50505050508152602001600c820180546113db906139c1565b80601f0160208091040260200160405190810160405280929190818152602001828054611407906139c1565b80156114545780601f1061142957610100808354040283529160200191611454565b820191906000526020600020905b81548152906001019060200180831161143757829003601f168201915b5050505050815250509080600d016040518061010001604052908160008201805461147e906139c1565b80601f01602080910402602001604051908101604052809291908181526020018280546114aa906139c1565b80156114f75780601f106114cc576101008083540402835291602001916114f7565b820191906000526020600020905b8154815290600101906020018083116114da57829003601f168201915b50505050508152602001600182018054611510906139c1565b80601f016020809104026020016040519081016040528092919081815260200182805461153c906139c1565b80156115895780601f1061155e57610100808354040283529160200191611589565b820191906000526020600020905b81548152906001019060200180831161156c57829003601f168201915b505050505081526020016002820180546115a2906139c1565b80601f01602080910402602001604051908101604052809291908181526020018280546115ce906139c1565b801561161b5780601f106115f05761010080835404028352916020019161161b565b820191906000526020600020905b8154815290600101906020018083116115fe57829003601f168201915b50505050508152602001600382018054611634906139c1565b80601f0160208091040260200160405190810160405280929190818152602001828054611660906139c1565b80156116ad5780601f10611682576101008083540402835291602001916116ad565b820191906000526020600020905b81548152906001019060200180831161169057829003601f168201915b505050505081526020016004820180546116c6906139c1565b80601f01602080910402602001604051908101604052809291908181526020018280546116f2906139c1565b801561173f5780601f106117145761010080835404028352916020019161173f565b820191906000526020600020905b81548152906001019060200180831161172257829003601f168201915b50505050508152602001600582015481526020016006820154815260200160078201548152505090806015016040518060e00160405290816000820154815260200160018201548152602001600282015481526020016003820154815260200160048201548152602001600582015481526020016006820154815250509080601c01604051806101000160405290816000820180546117dd906139c1565b80601f0160208091040260200160405190810160405280929190818152602001828054611809906139c1565b80156118565780601f1061182b57610100808354040283529160200191611856565b820191906000526020600020905b81548152906001019060200180831161183957829003601f168201915b5050505050815260200160018201805461186f906139c1565b80601f016020809104026020016040519081016040528092919081815260200182805461189b906139c1565b80156118e85780601f106118bd576101008083540402835291602001916118e8565b820191906000526020600020905b8154815290600101906020018083116118cb57829003601f168201915b50505050508152602001600282018054611901906139c1565b80601f016020809104026020016040519081016040528092919081815260200182805461192d906139c1565b801561197a5780601f1061194f5761010080835404028352916020019161197a565b820191906000526020600020905b81548152906001019060200180831161195d57829003601f168201915b50505050508152602001600382018054611993906139c1565b80601f01602080910402602001604051908101604052809291908181526020018280546119bf906139c1565b8015611a0c5780601f106119e157610100808354040283529160200191611a0c565b820191906000526020600020905b8154815290600101906020018083116119ef57829003601f168201915b50505050508152602001600482018054611a25906139c1565b80601f0160208091040260200160405190810160405280929190818152602001828054611a51906139c1565b8015611a9e5780601f10611a7357610100808354040283529160200191611a9e565b820191906000526020600020905b815481529060010190602001808311611a8157829003601f168201915b50505050508152602001600582018054611ab7906139c1565b80601f0160208091040260200160405190810160405280929190818152602001828054611ae3906139c1565b8015611b305780601f10611b0557610100808354040283529160200191611b30565b820191906000526020600020905b815481529060010190602001808311611b1357829003601f168201915b50505050508152602001600682018054611b49906139c1565b80601f0160208091040260200160405190810160405280929190818152602001828054611b75906139c1565b8015611bc25780601f10611b9757610100808354040283529160200191611bc2565b820191906000526020600020905b815481529060010190602001808311611ba557829003601f168201915b50505050508152602001600782018054611bdb906139c1565b80601f0160208091040260200160405190810160405280929190818152602001828054611c07906139c1565b8015611c545780601f10611c2957610100808354040283529160200191611c54565b820191906000526020600020905b815481529060010190602001808311611c3757829003601f168201915b50505050508152505090806024016040518060400160405290816000820154815260200160018201548152505090806026016040518061010001604052908160008201548152602001600182018054611cac906139c1565b80601f0160208091040260200160405190810160405280929190818152602001828054611cd8906139c1565b8015611d255780601f10611cfa57610100808354040283529160200191611d25565b820191906000526020600020905b815481529060010190602001808311611d0857829003601f168201915b5050505050815260200160028201548152602001600382018054611d48906139c1565b80601f0160208091040260200160405190810160405280929190818152602001828054611d74906139c1565b8015611dc15780601f10611d9657610100808354040283529160200191611dc1565b820191906000526020600020905b815481529060010190602001808311611da457829003601f168201915b5050505050815260200160048201548152602001600582018054611de4906139c1565b80601f0160208091040260200160405190810160405280929190818152602001828054611e10906139c1565b8015611e5d5780601f10611e3257610100808354040283529160200191611e5d565b820191906000526020600020905b815481529060010190602001808311611e4057829003601f168201915b5050505050815260200160068201548152602001600782018054611e80906139c1565b80601f0160208091040260200160405190810160405280929190818152602001828054611eac906139c1565b8015611ef95780601f10611ece57610100808354040283529160200191611ef9565b820191906000526020600020905b815481529060010190602001808311611edc57829003601f168201915b5050505050815250509080602e0160405180610160016040529081600082018054611f23906139c1565b80601f0160208091040260200160405190810160405280929190818152602001828054611f4f906139c1565b8015611f9c5780601f10611f7157610100808354040283529160200191611f9c565b820191906000526020600020905b815481529060010190602001808311611f7f57829003601f168201915b50505050508152602001600182018054611fb5906139c1565b80601f0160208091040260200160405190810160405280929190818152602001828054611fe1906139c1565b801561202e5780601f106120035761010080835404028352916020019161202e565b820191906000526020600020905b81548152906001019060200180831161201157829003601f168201915b50505050508152602001600282018054612047906139c1565b80601f0160208091040260200160405190810160405280929190818152602001828054612073906139c1565b80156120c05780601f10612095576101008083540402835291602001916120c0565b820191906000526020600020905b8154815290600101906020018083116120a357829003601f168201915b505050505081526020016003820180546120d9906139c1565b80601f0160208091040260200160405190810160405280929190818152602001828054612105906139c1565b80156121525780601f1061212757610100808354040283529160200191612152565b820191906000526020600020905b81548152906001019060200180831161213557829003601f168201915b50505050508152602001600482015481526020016005820154815260200160068201548152602001600782015481526020016008820154815260200160098201805461219d906139c1565b80601f01602080910402602001604051908101604052809291908181526020018280546121c9906139c1565b80156122165780601f106121eb57610100808354040283529160200191612216565b820191906000526020600020905b8154815290600101906020018083116121f957829003601f168201915b50505050508152602001600a82015481525050905087565b612236612326565b73ffffffffffffffffffffffffffffffffffffffff16612254610e3e565b73ffffffffffffffffffffffffffffffffffffffff16146122aa576040517f08c379a00000000000000000000000000000000000000000000000000000000081526004016122a190613798565b60405180910390fd5b600073ffffffffffffffffffffffffffffffffffffffff168173ffffffffffffffffffffffffffffffffffffffff16141561231a576040517f08c379a000000000000000000000000000000000000000000000000000000000815260040161231190613738565b60405180910390fd5b6123238161232e565b50565b600033905090565b60008060009054906101000a900473ffffffffffffffffffffffffffffffffffffffff169050816000806101000a81548173ffffffffffffffffffffffffffffffffffffffff021916908373ffffffffffffffffffffffffffffffffffffffff1602179055508173ffffffffffffffffffffffffffffffffffffffff168173ffffffffffffffffffffffffffffffffffffffff167f8be0079c531659141344cd1fd0a4f28419497f9722a3daafe3b4186f6b6457e060405160405180910390a35050565b8280546123fe906139c1565b90600052602060002090601f0160209004810192826124205760008555612467565b82601f1061243957805160ff1916838001178555612467565b82800160010185558215612467579182015b8281111561246657825182559160200191906001019061244b565b5b5090506124749190612478565b5090565b5b80821115612491576000816000905550600101612479565b5090565b60006124a86124a38461388f565b61386a565b9050828152602081018484840111156124c4576124c3613ac0565b5b6124cf84828561397f565b509392505050565b6000813590506124e681613bf6565b92915050565b600082601f83011261250157612500613ab1565b5b8135612511848260208601612495565b91505092915050565b6000610100828403121561253157612530613ab6565b5b61253c61010061386a565b9050600061254c84828501612f85565b600083015250602082013567ffffffffffffffff8111156125705761256f613abb565b5b61257c848285016124ec565b602083015250604061259084828501612f85565b604083015250606082013567ffffffffffffffff8111156125b4576125b3613abb565b5b6125c0848285016124ec565b60608301525060806125d484828501612f85565b60808301525060a082013567ffffffffffffffff8111156125f8576125f7613abb565b5b612604848285016124ec565b60a08301525060c061261884828501612f85565b60c08301525060e082013567ffffffffffffffff81111561263c5761263b613abb565b5b612648848285016124ec565b60e08301525092915050565b600060e0828403121561266a57612669613ab6565b5b61267460e061386a565b9050600061268484828501612f85565b600083015250602061269884828501612f85565b60208301525060406126ac84828501612f85565b60408301525060606126c084828501612f85565b60608301525060806126d484828501612f85565b60808301525060a06126e884828501612f85565b60a08301525060c06126fc84828501612f85565b60c08301525092915050565b6000610100828403121561271f5761271e613ab6565b5b61272a61010061386a565b9050600082013567ffffffffffffffff81111561274a57612749613abb565b5b612756848285016124ec565b600083015250602082013567ffffffffffffffff81111561277a57612779613abb565b5b612786848285016124ec565b602083015250604082013567ffffffffffffffff8111156127aa576127a9613abb565b5b6127b6848285016124ec565b604083015250606082013567ffffffffffffffff8111156127da576127d9613abb565b5b6127e6848285016124ec565b606083015250608082013567ffffffffffffffff81111561280a57612809613abb565b5b612816848285016124ec565b60808301525060a061282a84828501612f85565b60a08301525060c061283e84828501612f85565b60c08301525060e061285284828501612f85565b60e08301525092915050565b60006040828403121561287457612873613ab6565b5b61287e604061386a565b9050600061288e84828501612f85565b60008301525060206128a284828501612f85565b60208301525092915050565b600061016082840312156128c5576128c4613ab6565b5b6128d061016061386a565b9050600082013567ffffffffffffffff8111156128f0576128ef613abb565b5b6128fc848285016124ec565b600083015250602082013567ffffffffffffffff8111156129205761291f613abb565b5b61292c848285016124ec565b602083015250604082013567ffffffffffffffff8111156129505761294f613abb565b5b61295c848285016124ec565b604083015250606082013567ffffffffffffffff8111156129805761297f613abb565b5b61298c848285016124ec565b60608301525060806129a084828501612f85565b60808301525060a06129b484828501612f85565b60a08301525060c06129c884828501612f85565b60c08301525060e06129dc84828501612f85565b60e0830152506101006129f184828501612f85565b6101008301525061012082013567ffffffffffffffff811115612a1757612a16613abb565b5b612a23848285016124ec565b61012083015250610140612a3984828501612f85565b6101408301525092915050565b60006101a08284031215612a5d57612a5c613ab6565b5b612a686101a061386a565b9050600082013567ffffffffffffffff811115612a8857612a87613abb565b5b612a94848285016124ec565b600083015250602082013567ffffffffffffffff811115612ab857612ab7613abb565b5b612ac4848285016124ec565b602083015250604082013567ffffffffffffffff811115612ae857612ae7613abb565b5b612af4848285016124ec565b604083015250606082013567ffffffffffffffff811115612b1857612b17613abb565b5b612b24848285016124ec565b606083015250608082013567ffffffffffffffff811115612b4857612b47613abb565b5b612b54848285016124ec565b60808301525060a082013567ffffffffffffffff811115612b7857612b77613abb565b5b612b84848285016124ec565b60a08301525060c082013567ffffffffffffffff811115612ba857612ba7613abb565b5b612bb4848285016124ec565b60c08301525060e0612bc884828501612f85565b60e083015250610100612bdd84828501612f85565b61010083015250610120612bf384828501612f85565b6101208301525061014082013567ffffffffffffffff811115612c1957612c18613abb565b5b612c25848285016124ec565b6101408301525061016082013567ffffffffffffffff811115612c4b57612c4a613abb565b5b612c57848285016124ec565b6101608301525061018082013567ffffffffffffffff811115612c7d57612c7c613abb565b5b612c89848285016124ec565b6101808301525092915050565b60006101008284031215612cad57612cac613ab6565b5b612cb861010061386a565b9050600082013567ffffffffffffffff811115612cd857612cd7613abb565b5b612ce4848285016124ec565b600083015250602082013567ffffffffffffffff811115612d0857612d07613abb565b5b612d14848285016124ec565b602083015250604082013567ffffffffffffffff811115612d3857612d37613abb565b5b612d44848285016124ec565b604083015250606082013567ffffffffffffffff811115612d6857612d67613abb565b5b612d74848285016124ec565b606083015250608082013567ffffffffffffffff811115612d9857612d97613abb565b5b612da4848285016124ec565b60808301525060a082013567ffffffffffffffff811115612dc857612dc7613abb565b5b612dd4848285016124ec565b60a08301525060c082013567ffffffffffffffff811115612df857612df7613abb565b5b612e04848285016124ec565b60c08301525060e082013567ffffffffffffffff811115612e2857612e27613abb565b5b612e34848285016124ec565b60e08301525092915050565b60006101c08284031215612e5757612e56613ab6565b5b612e6160e061386a565b9050600082013567ffffffffffffffff811115612e8157612e80613abb565b5b612e8d84828501612a46565b600083015250602082013567ffffffffffffffff811115612eb157612eb0613abb565b5b612ebd84828501612708565b6020830152506040612ed184828501612654565b60408301525061012082013567ffffffffffffffff811115612ef657612ef5613abb565b5b612f0284828501612c96565b606083015250610140612f178482850161285e565b60808301525061018082013567ffffffffffffffff811115612f3c57612f3b613abb565b5b612f488482850161251a565b60a0830152506101a082013567ffffffffffffffff811115612f6d57612f6c613abb565b5b612f79848285016128ae565b60c08301525092915050565b600081359050612f9481613c0d565b92915050565b600060208284031215612fb057612faf613aca565b5b6000612fbe848285016124d7565b91505092915050565b600060208284031215612fdd57612fdc613aca565b5b600082013567ffffffffffffffff811115612ffb57612ffa613ac5565b5b61300784828501612e40565b91505092915050565b60006020828403121561302657613025613aca565b5b600061303484828501612f85565b91505092915050565b6000806040838503121561305457613053613aca565b5b600061306285828601612f85565b925050602083013567ffffffffffffffff81111561308357613082613ac5565b5b61308f85828601612e40565b9150509250929050565b6130a281613943565b82525050565b60006130b3826138c0565b6130bd81856138cb565b93506130cd81856020860161398e565b6130d681613acf565b840191505092915050565b60006130ee6026836138dc565b91506130f982613ae0565b604082019050919050565b60006131116028836138dc565b915061311c82613b2f565b604082019050919050565b60006131346023836138dc565b915061313f82613b7e565b604082019050919050565b60006131576020836138dc565b915061316282613bcd565b602082019050919050565b60006101008301600083015161318660008601826136ff565b506020830151848203602086015261319e82826130a8565b91505060408301516131b360408601826136ff565b50606083015184820360608601526131cb82826130a8565b91505060808301516131e060808601826136ff565b5060a083015184820360a08601526131f882826130a8565b91505060c083015161320d60c08601826136ff565b5060e083015184820360e086015261322582826130a8565b9150508091505092915050565b60e08201600082015161324860008501826136ff565b50602082015161325b60208501826136ff565b50604082015161326e60408501826136ff565b50606082015161328160608501826136ff565b50608082015161329460808501826136ff565b5060a08201516132a760a08501826136ff565b5060c08201516132ba60c08501826136ff565b50505050565b60006101008301600083015184820360008601526132de82826130a8565b915050602083015184820360208601526132f882826130a8565b9150506040830151848203604086015261331282826130a8565b9150506060830151848203606086015261332c82826130a8565b9150506080830151848203608086015261334682826130a8565b91505060a083015161335b60a08601826136ff565b5060c083015161336e60c08601826136ff565b5060e083015161338160e08601826136ff565b508091505092915050565b6040820160008201516133a260008501826136ff565b5060208201516133b560208501826136ff565b50505050565b60006101608301600083015184820360008601526133d982826130a8565b915050602083015184820360208601526133f382826130a8565b9150506040830151848203604086015261340d82826130a8565b9150506060830151848203606086015261342782826130a8565b915050608083015161343c60808601826136ff565b5060a083015161344f60a08601826136ff565b5060c083015161346260c08601826136ff565b5060e083015161347560e08601826136ff565b5061010083015161348a6101008601826136ff565b506101208301518482036101208601526134a482826130a8565b9150506101408301516134bb6101408601826136ff565b508091505092915050565b60006101a08301600083015184820360008601526134e482826130a8565b915050602083015184820360208601526134fe82826130a8565b9150506040830151848203604086015261351882826130a8565b9150506060830151848203606086015261353282826130a8565b9150506080830151848203608086015261354c82826130a8565b91505060a083015184820360a086015261356682826130a8565b91505060c083015184820360c086015261358082826130a8565b91505060e083015161359560e08601826136ff565b506101008301516135aa6101008601826136ff565b506101208301516135bf6101208601826136ff565b506101408301518482036101408601526135d982826130a8565b9150506101608301518482036101608601526135f582826130a8565b91505061018083015184820361018086015261361182826130a8565b9150508091505092915050565b600061010083016000830151848203600086015261363c82826130a8565b9150506020830151848203602086015261365682826130a8565b9150506040830151848203604086015261367082826130a8565b9150506060830151848203606086015261368a82826130a8565b915050608083015184820360808601526136a482826130a8565b91505060a083015184820360a08601526136be82826130a8565b91505060c083015184820360c08601526136d882826130a8565b91505060e083015184820360e08601526136f282826130a8565b9150508091505092915050565b61370881613975565b82525050565b61371781613975565b82525050565b60006020820190506137326000830184613099565b92915050565b60006020820190508181036000830152613751816130e1565b9050919050565b6000602082019050818103600083015261377181613104565b9050919050565b6000602082019050818103600083015261379181613127565b9050919050565b600060208201905081810360008301526137b18161314a565b9050919050565b60006101c08201905081810360008301526137d3818a6134c6565b905081810360208301526137e781896132c0565b90506137f66040830188613232565b818103610120830152613809818761361e565b905061381961014083018661338c565b81810361018083015261382c818561316d565b90508181036101a083015261384181846133bb565b905098975050505050505050565b6000602082019050613864600083018461370e565b92915050565b6000613874613885565b905061388082826139f3565b919050565b6000604051905090565b600067ffffffffffffffff8211156138aa576138a9613a82565b5b6138b382613acf565b9050602081019050919050565b600081519050919050565b600082825260208201905092915050565b600082825260208201905092915050565b60006138f882613975565b915061390383613975565b9250827fffffffffffffffffffffffffffffffffffffffffffffffffffffffffffffffff0382111561393857613937613a24565b5b828201905092915050565b600061394e82613955565b9050919050565b600073ffffffffffffffffffffffffffffffffffffffff82169050919050565b6000819050919050565b82818337600083830152505050565b60005b838110156139ac578082015181840152602081019050613991565b838111156139bb576000848401525b50505050565b600060028204905060018216806139d957607f821691505b602082108114156139ed576139ec613a53565b5b50919050565b6139fc82613acf565b810181811067ffffffffffffffff82111715613a1b57613a1a613a82565b5b80604052505050565b7f4e487b7100000000000000000000000000000000000000000000000000000000600052601160045260246000fd5b7f4e487b7100000000000000000000000000000000000000000000000000000000600052602260045260246000fd5b7f4e487b7100000000000000000000000000000000000000000000000000000000600052604160045260246000fd5b600080fd5b600080fd5b600080fd5b600080fd5b600080fd5b600080fd5b6000601f19601f8301169050919050565b7f4f776e61626c653a206e6577206f776e657220697320746865207a65726f206160008201527f6464726573730000000000000000000000000000000000000000000000000000602082015250565b7f4d757374206861766520706572736f6e616c20696e666f726d6174696f6e206960008201527f64206e756d626572000000000000000000000000000000000000000000000000602082015250565b7f4d757374206861766520706572736f6e616c20696e666f726d6174696f6e206e60008201527f616d650000000000000000000000000000000000000000000000000000000000602082015250565b7f4f776e61626c653a2063616c6c6572206973206e6f7420746865206f776e6572600082015250565b613bff81613943565b8114613c0a57600080fd5b50565b613c1681613975565b8114613c2157600080fd5b5056fea2646970667358221220399fcb4aaa479e31ca9d73da6b2ecf0b7a22e9e7d57c25e8add7edcb35de434964736f6c63430008060033",
  "immutableReferences": {},
  "source": "// SPDX-License-Identifier: MIT\n\npragma solidity 0.8.6;\n\nimport \"./Ownable.sol\";\n\ncontract Producers is Ownable\n{\n  /* Structs */\n  struct Producer {\n    PersonalInformation personal_information;\n    FarmInfo farm_info;\n    FarmArea farm_area;\n    Plantation plantation;\n    Farm farm;\n    CSA csa;\n    Harvest harvest;\n  }\n\n  struct PersonalInformation {\n    string photo;\n    string name;\n    string id_number;\n    string rtn;\n    string birthday;\n    string gender;\n    string marital_status;\n    uint256 amount_childs;\n    uint256 amount_sons;\n    uint256 amount_daugters;\n    string cellphone;\n    string email;\n    string bio;\n  }\n\n  struct FarmInfo {\n    string name;\n    string zone_description;\n    string belonging_organization;\n    string organization_address;\n    string location;\n    uint256 georeference_x;\n    uint256 georeference_y;\n    uint256 msnm_height;\n  }\n\n  struct FarmArea {\n    uint256 total;\n    uint256 other_farm;\n    uint256 forest;\n    uint256 cacao;\n    uint256 production;\n    uint256 template;\n    uint256 projection;\n  }\n\n  struct Plantation {\n    string variety_1;\n    string variety_2;\n    string variety_3;\n    string variety_4;\n    string variety_5;\n    string variety_6;\n    string variety_7;\n    string variety_8;\n  }\n\n  struct Farm {\n    uint256 management;\n    uint256 performance;\n  }\n\n  struct CSA {\n    uint256 timber;\n    string timber_description;\n    uint256 fruit;\n    string fruit_description;\n    uint256 palm;\n    string palm_description;\n    uint256 musaceae;\n    string musaceae_description;\n  }\n\n  struct Harvest {\n    string start_1;\n    string end_1;\n    string start_2;\n    string end_2;\n\n    uint256 cob;\n    uint256 slime;\n    uint256 dry_and_fermented;\n    uint256 dry_only;\n\n    uint256 total_year_volume;\n    string cacao_atributes_and_profile;\n\n    uint256 status;\n  }\n\n  /* Public Variables */\n  uint256 public producer_count;\n  mapping(uint256 => Producer) public producers;\n\n  constructor()\n  {\n  }\n\n  function addProducer(Producer memory producer) public onlyOwner requiredFields(producer)\n  {\n    producer_count += 1;\n    producers[producer_count] = producer;\n  }\n\n  function editProducer(uint256 id, Producer memory producer) public onlyOwner requiredFields(producer)\n  {\n    producers[id] = producer;\n  }\n\n   modifier requiredFields(Producer memory producer)\n   {\n    require(bytes(producer.personal_information.name).length != 0,\"Must have personal information name\");\n    require(bytes(producer.personal_information.id_number).length != 0,\"Must have personal information id number\");\n    //require(producer.harvest.status != 0,\"Must have harvest status\");\n    _;\n   }\n}\n",
  "sourcePath": "/home/turupawn/Projects/Blockchain/Productores/contracts/Producers.sol",
  "compiler": {
    "name": "solc",
    "version": "0.8.6+commit.11564f7e.Emscripten.clang"
  },
  "schemaVersion": "3.4.1",
  "updatedAt": "2021-08-20T08:27:18.184Z",
  "networkType": "ethereum",
  "devdoc": {
    "kind": "dev",
    "methods": {
      "owner()": {
        "details": "Returns the address of the current owner."
      },
      "renounceOwnership()": {
        "details": "Leaves the contract without owner. It will not be possible to call `onlyOwner` functions anymore. Can only be called by the current owner. NOTE: Renouncing ownership will leave the contract without an owner, thereby removing any functionality that is only available to the owner."
      },
      "transferOwnership(address)": {
        "details": "Transfers ownership of the contract to a new account (`newOwner`). Can only be called by the current owner."
      }
    },
    "version": 1
  },
  "userdoc": {
    "kind": "user",
    "methods": {},
    "version": 1
  }
}