{
  "contractName": "Producers",
  "abi": [
    {
      "inputs": [],
      "stateMutability": "nonpayable",
      "type": "constructor"
    },
    {
      "anonymous": false,
      "inputs": [
        {
          "indexed": true,
          "internalType": "address",
          "name": "previousOwner",
          "type": "address"
        },
        {
          "indexed": true,
          "internalType": "address",
          "name": "newOwner",
          "type": "address"
        }
      ],
      "name": "OwnershipTransferred",
      "type": "event"
    },
    {
      "inputs": [],
      "name": "owner",
      "outputs": [
        {
          "internalType": "address",
          "name": "",
          "type": "address"
        }
      ],
      "stateMutability": "view",
      "type": "function",
      "constant": true
    },
    {
      "inputs": [
        {
          "internalType": "uint256",
          "name": "",
          "type": "uint256"
        }
      ],
      "name": "producers",
      "outputs": [
        {
          "components": [
            {
              "internalType": "string",
              "name": "name",
              "type": "string"
            },
            {
              "internalType": "string",
              "name": "id_number",
              "type": "string"
            },
            {
              "internalType": "string",
              "name": "rtn",
              "type": "string"
            },
            {
              "internalType": "string",
              "name": "birthday",
              "type": "string"
            },
            {
              "internalType": "string",
              "name": "gender",
              "type": "string"
            },
            {
              "internalType": "string",
              "name": "marital_status",
              "type": "string"
            },
            {
              "internalType": "uint256",
              "name": "amount_childs",
              "type": "uint256"
            },
            {
              "internalType": "uint256",
              "name": "amount_sons",
              "type": "uint256"
            },
            {
              "internalType": "uint256",
              "name": "amount_daugters",
              "type": "uint256"
            },
            {
              "internalType": "string",
              "name": "cellphone",
              "type": "string"
            },
            {
              "internalType": "string",
              "name": "email",
              "type": "string"
            },
            {
              "internalType": "string",
              "name": "bio",
              "type": "string"
            }
          ],
          "internalType": "struct Producers.PersonalInformation",
          "name": "personal_information",
          "type": "tuple"
        },
        {
          "components": [
            {
              "internalType": "string",
              "name": "name",
              "type": "string"
            },
            {
              "internalType": "string",
              "name": "zone_description",
              "type": "string"
            },
            {
              "internalType": "string",
              "name": "belonging_organization",
              "type": "string"
            },
            {
              "internalType": "string",
              "name": "organization_address",
              "type": "string"
            },
            {
              "internalType": "string",
              "name": "location",
              "type": "string"
            },
            {
              "internalType": "uint256",
              "name": "georeference_x",
              "type": "uint256"
            },
            {
              "internalType": "uint256",
              "name": "georeference_y",
              "type": "uint256"
            },
            {
              "internalType": "uint256",
              "name": "msnm_height",
              "type": "uint256"
            }
          ],
          "internalType": "struct Producers.FarmInfo",
          "name": "farm_info",
          "type": "tuple"
        },
        {
          "components": [
            {
              "internalType": "uint256",
              "name": "total",
              "type": "uint256"
            },
            {
              "internalType": "uint256",
              "name": "other_farm",
              "type": "uint256"
            },
            {
              "internalType": "uint256",
              "name": "forest",
              "type": "uint256"
            },
            {
              "internalType": "uint256",
              "name": "cacao",
              "type": "uint256"
            },
            {
              "internalType": "uint256",
              "name": "production",
              "type": "uint256"
            },
            {
              "internalType": "uint256",
              "name": "template",
              "type": "uint256"
            },
            {
              "internalType": "uint256",
              "name": "projection",
              "type": "uint256"
            }
          ],
          "internalType": "struct Producers.FarmArea",
          "name": "farm_area",
          "type": "tuple"
        },
        {
          "components": [
            {
              "internalType": "string",
              "name": "variety_1",
              "type": "string"
            },
            {
              "internalType": "string",
              "name": "variety_2",
              "type": "string"
            },
            {
              "internalType": "string",
              "name": "variety_3",
              "type": "string"
            },
            {
              "internalType": "string",
              "name": "variety_4",
              "type": "string"
            },
            {
              "internalType": "string",
              "name": "variety_5",
              "type": "string"
            },
            {
              "internalType": "string",
              "name": "variety_6",
              "type": "string"
            },
            {
              "internalType": "string",
              "name": "variety_7",
              "type": "string"
            },
            {
              "internalType": "string",
              "name": "variety_8",
              "type": "string"
            }
          ],
          "internalType": "struct Producers.Plantation",
          "name": "plantation",
          "type": "tuple"
        },
        {
          "components": [
            {
              "internalType": "string",
              "name": "management",
              "type": "string"
            },
            {
              "internalType": "uint256",
              "name": "performance",
              "type": "uint256"
            }
          ],
          "internalType": "struct Producers.Farm",
          "name": "farm",
          "type": "tuple"
        },
        {
          "components": [
            {
              "internalType": "uint256",
              "name": "timber",
              "type": "uint256"
            },
            {
              "internalType": "string",
              "name": "timber_description",
              "type": "string"
            },
            {
              "internalType": "uint256",
              "name": "fruit",
              "type": "uint256"
            },
            {
              "internalType": "string",
              "name": "fruit_description",
              "type": "string"
            },
            {
              "internalType": "uint256",
              "name": "palm",
              "type": "uint256"
            },
            {
              "internalType": "string",
              "name": "palm_description",
              "type": "string"
            },
            {
              "internalType": "uint256",
              "name": "musaceae",
              "type": "uint256"
            },
            {
              "internalType": "string",
              "name": "musaceae_description",
              "type": "string"
            }
          ],
          "internalType": "struct Producers.CSA",
          "name": "csa",
          "type": "tuple"
        },
        {
          "components": [
            {
              "internalType": "string",
              "name": "start_1",
              "type": "string"
            },
            {
              "internalType": "string",
              "name": "end_1",
              "type": "string"
            },
            {
              "internalType": "string",
              "name": "start_2",
              "type": "string"
            },
            {
              "internalType": "string",
              "name": "end_2",
              "type": "string"
            },
            {
              "internalType": "uint256",
              "name": "cob",
              "type": "uint256"
            },
            {
              "internalType": "uint256",
              "name": "slime",
              "type": "uint256"
            },
            {
              "internalType": "uint256",
              "name": "dry_and_fermented",
              "type": "uint256"
            },
            {
              "internalType": "uint256",
              "name": "dry_only",
              "type": "uint256"
            },
            {
              "internalType": "uint256",
              "name": "total_year_volume",
              "type": "uint256"
            },
            {
              "internalType": "string",
              "name": "cacao_atributes_and_profile",
              "type": "string"
            },
            {
              "internalType": "string",
              "name": "other_data",
              "type": "string"
            },
            {
              "internalType": "uint256",
              "name": "status",
              "type": "uint256"
            }
          ],
          "internalType": "struct Producers.Harvest",
          "name": "harvest",
          "type": "tuple"
        }
      ],
      "stateMutability": "view",
      "type": "function",
      "constant": true
    },
    {
      "inputs": [],
      "name": "renounceOwnership",
      "outputs": [],
      "stateMutability": "nonpayable",
      "type": "function"
    },
    {
      "inputs": [
        {
          "internalType": "address",
          "name": "newOwner",
          "type": "address"
        }
      ],
      "name": "transferOwnership",
      "outputs": [],
      "stateMutability": "nonpayable",
      "type": "function"
    },
    {
      "inputs": [
        {
          "internalType": "uint256",
          "name": "id",
          "type": "uint256"
        },
        {
          "components": [
            {
              "components": [
                {
                  "internalType": "string",
                  "name": "name",
                  "type": "string"
                },
                {
                  "internalType": "string",
                  "name": "id_number",
                  "type": "string"
                },
                {
                  "internalType": "string",
                  "name": "rtn",
                  "type": "string"
                },
                {
                  "internalType": "string",
                  "name": "birthday",
                  "type": "string"
                },
                {
                  "internalType": "string",
                  "name": "gender",
                  "type": "string"
                },
                {
                  "internalType": "string",
                  "name": "marital_status",
                  "type": "string"
                },
                {
                  "internalType": "uint256",
                  "name": "amount_childs",
                  "type": "uint256"
                },
                {
                  "internalType": "uint256",
                  "name": "amount_sons",
                  "type": "uint256"
                },
                {
                  "internalType": "uint256",
                  "name": "amount_daugters",
                  "type": "uint256"
                },
                {
                  "internalType": "string",
                  "name": "cellphone",
                  "type": "string"
                },
                {
                  "internalType": "string",
                  "name": "email",
                  "type": "string"
                },
                {
                  "internalType": "string",
                  "name": "bio",
                  "type": "string"
                }
              ],
              "internalType": "struct Producers.PersonalInformation",
              "name": "personal_information",
              "type": "tuple"
            },
            {
              "components": [
                {
                  "internalType": "string",
                  "name": "name",
                  "type": "string"
                },
                {
                  "internalType": "string",
                  "name": "zone_description",
                  "type": "string"
                },
                {
                  "internalType": "string",
                  "name": "belonging_organization",
                  "type": "string"
                },
                {
                  "internalType": "string",
                  "name": "organization_address",
                  "type": "string"
                },
                {
                  "internalType": "string",
                  "name": "location",
                  "type": "string"
                },
                {
                  "internalType": "uint256",
                  "name": "georeference_x",
                  "type": "uint256"
                },
                {
                  "internalType": "uint256",
                  "name": "georeference_y",
                  "type": "uint256"
                },
                {
                  "internalType": "uint256",
                  "name": "msnm_height",
                  "type": "uint256"
                }
              ],
              "internalType": "struct Producers.FarmInfo",
              "name": "farm_info",
              "type": "tuple"
            },
            {
              "components": [
                {
                  "internalType": "uint256",
                  "name": "total",
                  "type": "uint256"
                },
                {
                  "internalType": "uint256",
                  "name": "other_farm",
                  "type": "uint256"
                },
                {
                  "internalType": "uint256",
                  "name": "forest",
                  "type": "uint256"
                },
                {
                  "internalType": "uint256",
                  "name": "cacao",
                  "type": "uint256"
                },
                {
                  "internalType": "uint256",
                  "name": "production",
                  "type": "uint256"
                },
                {
                  "internalType": "uint256",
                  "name": "template",
                  "type": "uint256"
                },
                {
                  "internalType": "uint256",
                  "name": "projection",
                  "type": "uint256"
                }
              ],
              "internalType": "struct Producers.FarmArea",
              "name": "farm_area",
              "type": "tuple"
            },
            {
              "components": [
                {
                  "internalType": "string",
                  "name": "variety_1",
                  "type": "string"
                },
                {
                  "internalType": "string",
                  "name": "variety_2",
                  "type": "string"
                },
                {
                  "internalType": "string",
                  "name": "variety_3",
                  "type": "string"
                },
                {
                  "internalType": "string",
                  "name": "variety_4",
                  "type": "string"
                },
                {
                  "internalType": "string",
                  "name": "variety_5",
                  "type": "string"
                },
                {
                  "internalType": "string",
                  "name": "variety_6",
                  "type": "string"
                },
                {
                  "internalType": "string",
                  "name": "variety_7",
                  "type": "string"
                },
                {
                  "internalType": "string",
                  "name": "variety_8",
                  "type": "string"
                }
              ],
              "internalType": "struct Producers.Plantation",
              "name": "plantation",
              "type": "tuple"
            },
            {
              "components": [
                {
                  "internalType": "string",
                  "name": "management",
                  "type": "string"
                },
                {
                  "internalType": "uint256",
                  "name": "performance",
                  "type": "uint256"
                }
              ],
              "internalType": "struct Producers.Farm",
              "name": "farm",
              "type": "tuple"
            },
            {
              "components": [
                {
                  "internalType": "uint256",
                  "name": "timber",
                  "type": "uint256"
                },
                {
                  "internalType": "string",
                  "name": "timber_description",
                  "type": "string"
                },
                {
                  "internalType": "uint256",
                  "name": "fruit",
                  "type": "uint256"
                },
                {
                  "internalType": "string",
                  "name": "fruit_description",
                  "type": "string"
                },
                {
                  "internalType": "uint256",
                  "name": "palm",
                  "type": "uint256"
                },
                {
                  "internalType": "string",
                  "name": "palm_description",
                  "type": "string"
                },
                {
                  "internalType": "uint256",
                  "name": "musaceae",
                  "type": "uint256"
                },
                {
                  "internalType": "string",
                  "name": "musaceae_description",
                  "type": "string"
                }
              ],
              "internalType": "struct Producers.CSA",
              "name": "csa",
              "type": "tuple"
            },
            {
              "components": [
                {
                  "internalType": "string",
                  "name": "start_1",
                  "type": "string"
                },
                {
                  "internalType": "string",
                  "name": "end_1",
                  "type": "string"
                },
                {
                  "internalType": "string",
                  "name": "start_2",
                  "type": "string"
                },
                {
                  "internalType": "string",
                  "name": "end_2",
                  "type": "string"
                },
                {
                  "internalType": "uint256",
                  "name": "cob",
                  "type": "uint256"
                },
                {
                  "internalType": "uint256",
                  "name": "slime",
                  "type": "uint256"
                },
                {
                  "internalType": "uint256",
                  "name": "dry_and_fermented",
                  "type": "uint256"
                },
                {
                  "internalType": "uint256",
                  "name": "dry_only",
                  "type": "uint256"
                },
                {
                  "internalType": "uint256",
                  "name": "total_year_volume",
                  "type": "uint256"
                },
                {
                  "internalType": "string",
                  "name": "cacao_atributes_and_profile",
                  "type": "string"
                },
                {
                  "internalType": "string",
                  "name": "other_data",
                  "type": "string"
                },
                {
                  "internalType": "uint256",
                  "name": "status",
                  "type": "uint256"
                }
              ],
              "internalType": "struct Producers.Harvest",
              "name": "harvest",
              "type": "tuple"
            }
          ],
          "internalType": "struct Producers.Producer",
          "name": "producer",
          "type": "tuple"
        }
      ],
      "name": "setProducer",
      "outputs": [],
      "stateMutability": "nonpayable",
      "type": "function"
    }
  ],
  "bytecode": "0x60806040523480156200001157600080fd5b5062000032620000266200003860201b60201c565b6200004060201b60201c565b62000104565b600033905090565b60008060009054906101000a900473ffffffffffffffffffffffffffffffffffffffff169050816000806101000a81548173ffffffffffffffffffffffffffffffffffffffff021916908373ffffffffffffffffffffffffffffffffffffffff1602179055508173ffffffffffffffffffffffffffffffffffffffff168173ffffffffffffffffffffffffffffffffffffffff167f8be0079c531659141344cd1fd0a4f28419497f9722a3daafe3b4186f6b6457e060405160405180910390a35050565b6135a880620001146000396000f3fe608060405234801561001057600080fd5b50600436106100575760003560e01c8063592213461461005c578063715018a6146100785780638da5cb5b146100825780639b68ade7146100a0578063f2fde38b146100d6575b600080fd5b61007660048036038101906100719190612a25565b6100f2565b005b610080610727565b005b61008a6107af565b6040516100979190613104565b60405180910390f35b6100ba60048036038101906100b591906129f8565b6107d8565b6040516100cd979695949392919061319f565b60405180910390f35b6100f060048036038101906100eb91906129cb565b611c27565b005b6100fa611d1f565b73ffffffffffffffffffffffffffffffffffffffff166101186107af565b73ffffffffffffffffffffffffffffffffffffffff161461016e576040517f08c379a00000000000000000000000000000000000000000000000000000000081526004016101659061317f565b60405180910390fd5b8060008160000151600001515114156101bc576040517f08c379a00000000000000000000000000000000000000000000000000000000081526004016101b39061315f565b60405180910390fd5b6000816000015160200151511415610209576040517f08c379a00000000000000000000000000000000000000000000000000000000081526004016102009061313f565b60405180910390fd5b81600160008581526020019081526020016000206000820151816000016000820151816000019080519060200190610242929190611deb565b50602082015181600101908051906020019061025f929190611deb565b50604082015181600201908051906020019061027c929190611deb565b506060820151816003019080519060200190610299929190611deb565b5060808201518160040190805190602001906102b6929190611deb565b5060a08201518160050190805190602001906102d3929190611deb565b5060c0820151816006015560e082015181600701556101008201518160080155610120820151816009019080519060200190610310929190611deb565b5061014082015181600a01908051906020019061032e929190611deb565b5061016082015181600b01908051906020019061034c929190611deb565b505050602082015181600c016000820151816000019080519060200190610374929190611deb565b506020820151816001019080519060200190610391929190611deb565b5060408201518160020190805190602001906103ae929190611deb565b5060608201518160030190805190602001906103cb929190611deb565b5060808201518160040190805190602001906103e8929190611deb565b5060a0820151816005015560c0820151816006015560e082015181600701555050604082015181601401600082015181600001556020820151816001015560408201518160020155606082015181600301556080820151816004015560a0820151816005015560c082015181600601555050606082015181601b01600082015181600001908051906020019061047f929190611deb565b50602082015181600101908051906020019061049c929190611deb565b5060408201518160020190805190602001906104b9929190611deb565b5060608201518160030190805190602001906104d6929190611deb565b5060808201518160040190805190602001906104f3929190611deb565b5060a0820151816005019080519060200190610510929190611deb565b5060c082015181600601908051906020019061052d929190611deb565b5060e082015181600701908051906020019061054a929190611deb565b5050506080820151816023016000820151816000019080519060200190610572929190611deb565b5060208201518160010155505060a0820151816025016000820151816000015560208201518160010190805190602001906105ae929190611deb565b506040820151816002015560608201518160030190805190602001906105d5929190611deb565b506080820151816004015560a08201518160050190805190602001906105fc929190611deb565b5060c0820151816006015560e0820151816007019080519060200190610623929190611deb565b50505060c082015181602d01600082015181600001908051906020019061064b929190611deb565b506020820151816001019080519060200190610668929190611deb565b506040820151816002019080519060200190610685929190611deb565b5060608201518160030190805190602001906106a2929190611deb565b506080820151816004015560a0820151816005015560c0820151816006015560e0820151816007015561010082015181600801556101208201518160090190805190602001906106f3929190611deb565b5061014082015181600a019080519060200190610711929190611deb565b5061016082015181600b01555050905050505050565b61072f611d1f565b73ffffffffffffffffffffffffffffffffffffffff1661074d6107af565b73ffffffffffffffffffffffffffffffffffffffff16146107a3576040517f08c379a000000000000000000000000000000000000000000000000000000000815260040161079a9061317f565b60405180910390fd5b6107ad6000611d27565b565b60008060009054906101000a900473ffffffffffffffffffffffffffffffffffffffff16905090565b6001602052806000526040600020600091509050806000016040518061018001604052908160008201805461080c9061333e565b80601f01602080910402602001604051908101604052809291908181526020018280546108389061333e565b80156108855780601f1061085a57610100808354040283529160200191610885565b820191906000526020600020905b81548152906001019060200180831161086857829003601f168201915b5050505050815260200160018201805461089e9061333e565b80601f01602080910402602001604051908101604052809291908181526020018280546108ca9061333e565b80156109175780601f106108ec57610100808354040283529160200191610917565b820191906000526020600020905b8154815290600101906020018083116108fa57829003601f168201915b505050505081526020016002820180546109309061333e565b80601f016020809104026020016040519081016040528092919081815260200182805461095c9061333e565b80156109a95780601f1061097e576101008083540402835291602001916109a9565b820191906000526020600020905b81548152906001019060200180831161098c57829003601f168201915b505050505081526020016003820180546109c29061333e565b80601f01602080910402602001604051908101604052809291908181526020018280546109ee9061333e565b8015610a3b5780601f10610a1057610100808354040283529160200191610a3b565b820191906000526020600020905b815481529060010190602001808311610a1e57829003601f168201915b50505050508152602001600482018054610a549061333e565b80601f0160208091040260200160405190810160405280929190818152602001828054610a809061333e565b8015610acd5780601f10610aa257610100808354040283529160200191610acd565b820191906000526020600020905b815481529060010190602001808311610ab057829003601f168201915b50505050508152602001600582018054610ae69061333e565b80601f0160208091040260200160405190810160405280929190818152602001828054610b129061333e565b8015610b5f5780601f10610b3457610100808354040283529160200191610b5f565b820191906000526020600020905b815481529060010190602001808311610b4257829003601f168201915b50505050508152602001600682015481526020016007820154815260200160088201548152602001600982018054610b969061333e565b80601f0160208091040260200160405190810160405280929190818152602001828054610bc29061333e565b8015610c0f5780601f10610be457610100808354040283529160200191610c0f565b820191906000526020600020905b815481529060010190602001808311610bf257829003601f168201915b50505050508152602001600a82018054610c289061333e565b80601f0160208091040260200160405190810160405280929190818152602001828054610c549061333e565b8015610ca15780601f10610c7657610100808354040283529160200191610ca1565b820191906000526020600020905b815481529060010190602001808311610c8457829003601f168201915b50505050508152602001600b82018054610cba9061333e565b80601f0160208091040260200160405190810160405280929190818152602001828054610ce69061333e565b8015610d335780601f10610d0857610100808354040283529160200191610d33565b820191906000526020600020905b815481529060010190602001808311610d1657829003601f168201915b5050505050815250509080600c0160405180610100016040529081600082018054610d5d9061333e565b80601f0160208091040260200160405190810160405280929190818152602001828054610d899061333e565b8015610dd65780601f10610dab57610100808354040283529160200191610dd6565b820191906000526020600020905b815481529060010190602001808311610db957829003601f168201915b50505050508152602001600182018054610def9061333e565b80601f0160208091040260200160405190810160405280929190818152602001828054610e1b9061333e565b8015610e685780601f10610e3d57610100808354040283529160200191610e68565b820191906000526020600020905b815481529060010190602001808311610e4b57829003601f168201915b50505050508152602001600282018054610e819061333e565b80601f0160208091040260200160405190810160405280929190818152602001828054610ead9061333e565b8015610efa5780601f10610ecf57610100808354040283529160200191610efa565b820191906000526020600020905b815481529060010190602001808311610edd57829003601f168201915b50505050508152602001600382018054610f139061333e565b80601f0160208091040260200160405190810160405280929190818152602001828054610f3f9061333e565b8015610f8c5780601f10610f6157610100808354040283529160200191610f8c565b820191906000526020600020905b815481529060010190602001808311610f6f57829003601f168201915b50505050508152602001600482018054610fa59061333e565b80601f0160208091040260200160405190810160405280929190818152602001828054610fd19061333e565b801561101e5780601f10610ff35761010080835404028352916020019161101e565b820191906000526020600020905b81548152906001019060200180831161100157829003601f168201915b50505050508152602001600582015481526020016006820154815260200160078201548152505090806014016040518060e00160405290816000820154815260200160018201548152602001600282015481526020016003820154815260200160048201548152602001600582015481526020016006820154815250509080601b01604051806101000160405290816000820180546110bc9061333e565b80601f01602080910402602001604051908101604052809291908181526020018280546110e89061333e565b80156111355780601f1061110a57610100808354040283529160200191611135565b820191906000526020600020905b81548152906001019060200180831161111857829003601f168201915b5050505050815260200160018201805461114e9061333e565b80601f016020809104026020016040519081016040528092919081815260200182805461117a9061333e565b80156111c75780601f1061119c576101008083540402835291602001916111c7565b820191906000526020600020905b8154815290600101906020018083116111aa57829003601f168201915b505050505081526020016002820180546111e09061333e565b80601f016020809104026020016040519081016040528092919081815260200182805461120c9061333e565b80156112595780601f1061122e57610100808354040283529160200191611259565b820191906000526020600020905b81548152906001019060200180831161123c57829003601f168201915b505050505081526020016003820180546112729061333e565b80601f016020809104026020016040519081016040528092919081815260200182805461129e9061333e565b80156112eb5780601f106112c0576101008083540402835291602001916112eb565b820191906000526020600020905b8154815290600101906020018083116112ce57829003601f168201915b505050505081526020016004820180546113049061333e565b80601f01602080910402602001604051908101604052809291908181526020018280546113309061333e565b801561137d5780601f106113525761010080835404028352916020019161137d565b820191906000526020600020905b81548152906001019060200180831161136057829003601f168201915b505050505081526020016005820180546113969061333e565b80601f01602080910402602001604051908101604052809291908181526020018280546113c29061333e565b801561140f5780601f106113e45761010080835404028352916020019161140f565b820191906000526020600020905b8154815290600101906020018083116113f257829003601f168201915b505050505081526020016006820180546114289061333e565b80601f01602080910402602001604051908101604052809291908181526020018280546114549061333e565b80156114a15780601f10611476576101008083540402835291602001916114a1565b820191906000526020600020905b81548152906001019060200180831161148457829003601f168201915b505050505081526020016007820180546114ba9061333e565b80601f01602080910402602001604051908101604052809291908181526020018280546114e69061333e565b80156115335780601f1061150857610100808354040283529160200191611533565b820191906000526020600020905b81548152906001019060200180831161151657829003601f168201915b505050505081525050908060230160405180604001604052908160008201805461155c9061333e565b80601f01602080910402602001604051908101604052809291908181526020018280546115889061333e565b80156115d55780601f106115aa576101008083540402835291602001916115d5565b820191906000526020600020905b8154815290600101906020018083116115b857829003601f168201915b50505050508152602001600182015481525050908060250160405180610100016040529081600082015481526020016001820180546116139061333e565b80601f016020809104026020016040519081016040528092919081815260200182805461163f9061333e565b801561168c5780601f106116615761010080835404028352916020019161168c565b820191906000526020600020905b81548152906001019060200180831161166f57829003601f168201915b50505050508152602001600282015481526020016003820180546116af9061333e565b80601f01602080910402602001604051908101604052809291908181526020018280546116db9061333e565b80156117285780601f106116fd57610100808354040283529160200191611728565b820191906000526020600020905b81548152906001019060200180831161170b57829003601f168201915b505050505081526020016004820154815260200160058201805461174b9061333e565b80601f01602080910402602001604051908101604052809291908181526020018280546117779061333e565b80156117c45780601f10611799576101008083540402835291602001916117c4565b820191906000526020600020905b8154815290600101906020018083116117a757829003601f168201915b50505050508152602001600682015481526020016007820180546117e79061333e565b80601f01602080910402602001604051908101604052809291908181526020018280546118139061333e565b80156118605780601f1061183557610100808354040283529160200191611860565b820191906000526020600020905b81548152906001019060200180831161184357829003601f168201915b5050505050815250509080602d016040518061018001604052908160008201805461188a9061333e565b80601f01602080910402602001604051908101604052809291908181526020018280546118b69061333e565b80156119035780601f106118d857610100808354040283529160200191611903565b820191906000526020600020905b8154815290600101906020018083116118e657829003601f168201915b5050505050815260200160018201805461191c9061333e565b80601f01602080910402602001604051908101604052809291908181526020018280546119489061333e565b80156119955780601f1061196a57610100808354040283529160200191611995565b820191906000526020600020905b81548152906001019060200180831161197857829003601f168201915b505050505081526020016002820180546119ae9061333e565b80601f01602080910402602001604051908101604052809291908181526020018280546119da9061333e565b8015611a275780601f106119fc57610100808354040283529160200191611a27565b820191906000526020600020905b815481529060010190602001808311611a0a57829003601f168201915b50505050508152602001600382018054611a409061333e565b80601f0160208091040260200160405190810160405280929190818152602001828054611a6c9061333e565b8015611ab95780601f10611a8e57610100808354040283529160200191611ab9565b820191906000526020600020905b815481529060010190602001808311611a9c57829003601f168201915b505050505081526020016004820154815260200160058201548152602001600682015481526020016007820154815260200160088201548152602001600982018054611b049061333e565b80601f0160208091040260200160405190810160405280929190818152602001828054611b309061333e565b8015611b7d5780601f10611b5257610100808354040283529160200191611b7d565b820191906000526020600020905b815481529060010190602001808311611b6057829003601f168201915b50505050508152602001600a82018054611b969061333e565b80601f0160208091040260200160405190810160405280929190818152602001828054611bc29061333e565b8015611c0f5780601f10611be457610100808354040283529160200191611c0f565b820191906000526020600020905b815481529060010190602001808311611bf257829003601f168201915b50505050508152602001600b82015481525050905087565b611c2f611d1f565b73ffffffffffffffffffffffffffffffffffffffff16611c4d6107af565b73ffffffffffffffffffffffffffffffffffffffff1614611ca3576040517f08c379a0000000000000000000000000000000000000000000000000000000008152600401611c9a9061317f565b60405180910390fd5b600073ffffffffffffffffffffffffffffffffffffffff168173ffffffffffffffffffffffffffffffffffffffff161415611d13576040517f08c379a0000000000000000000000000000000000000000000000000000000008152600401611d0a9061311f565b60405180910390fd5b611d1c81611d27565b50565b600033905090565b60008060009054906101000a900473ffffffffffffffffffffffffffffffffffffffff169050816000806101000a81548173ffffffffffffffffffffffffffffffffffffffff021916908373ffffffffffffffffffffffffffffffffffffffff1602179055508173ffffffffffffffffffffffffffffffffffffffff168173ffffffffffffffffffffffffffffffffffffffff167f8be0079c531659141344cd1fd0a4f28419497f9722a3daafe3b4186f6b6457e060405160405180910390a35050565b828054611df79061333e565b90600052602060002090601f016020900481019282611e195760008555611e60565b82601f10611e3257805160ff1916838001178555611e60565b82800160010185558215611e60579182015b82811115611e5f578251825591602001919060010190611e44565b5b509050611e6d9190611e71565b5090565b5b80821115611e8a576000816000905550600101611e72565b5090565b6000611ea1611e9c84613262565b61323d565b905082815260208101848484011115611ebd57611ebc61340e565b5b611ec88482856132fc565b509392505050565b600081359050611edf81613544565b92915050565b600082601f830112611efa57611ef96133ff565b5b8135611f0a848260208601611e8e565b91505092915050565b60006101008284031215611f2a57611f29613404565b5b611f3561010061323d565b90506000611f45848285016129b6565b600083015250602082013567ffffffffffffffff811115611f6957611f68613409565b5b611f7584828501611ee5565b6020830152506040611f89848285016129b6565b604083015250606082013567ffffffffffffffff811115611fad57611fac613409565b5b611fb984828501611ee5565b6060830152506080611fcd848285016129b6565b60808301525060a082013567ffffffffffffffff811115611ff157611ff0613409565b5b611ffd84828501611ee5565b60a08301525060c0612011848285016129b6565b60c08301525060e082013567ffffffffffffffff81111561203557612034613409565b5b61204184828501611ee5565b60e08301525092915050565b600060e0828403121561206357612062613404565b5b61206d60e061323d565b9050600061207d848285016129b6565b6000830152506020612091848285016129b6565b60208301525060406120a5848285016129b6565b60408301525060606120b9848285016129b6565b60608301525060806120cd848285016129b6565b60808301525060a06120e1848285016129b6565b60a08301525060c06120f5848285016129b6565b60c08301525092915050565b6000610100828403121561211857612117613404565b5b61212361010061323d565b9050600082013567ffffffffffffffff81111561214357612142613409565b5b61214f84828501611ee5565b600083015250602082013567ffffffffffffffff81111561217357612172613409565b5b61217f84828501611ee5565b602083015250604082013567ffffffffffffffff8111156121a3576121a2613409565b5b6121af84828501611ee5565b604083015250606082013567ffffffffffffffff8111156121d3576121d2613409565b5b6121df84828501611ee5565b606083015250608082013567ffffffffffffffff81111561220357612202613409565b5b61220f84828501611ee5565b60808301525060a0612223848285016129b6565b60a08301525060c0612237848285016129b6565b60c08301525060e061224b848285016129b6565b60e08301525092915050565b60006040828403121561226d5761226c613404565b5b612277604061323d565b9050600082013567ffffffffffffffff81111561229757612296613409565b5b6122a384828501611ee5565b60008301525060206122b7848285016129b6565b60208301525092915050565b600061018082840312156122da576122d9613404565b5b6122e561018061323d565b9050600082013567ffffffffffffffff81111561230557612304613409565b5b61231184828501611ee5565b600083015250602082013567ffffffffffffffff81111561233557612334613409565b5b61234184828501611ee5565b602083015250604082013567ffffffffffffffff81111561236557612364613409565b5b61237184828501611ee5565b604083015250606082013567ffffffffffffffff81111561239557612394613409565b5b6123a184828501611ee5565b60608301525060806123b5848285016129b6565b60808301525060a06123c9848285016129b6565b60a08301525060c06123dd848285016129b6565b60c08301525060e06123f1848285016129b6565b60e083015250610100612406848285016129b6565b6101008301525061012082013567ffffffffffffffff81111561242c5761242b613409565b5b61243884828501611ee5565b6101208301525061014082013567ffffffffffffffff81111561245e5761245d613409565b5b61246a84828501611ee5565b61014083015250610160612480848285016129b6565b6101608301525092915050565b600061018082840312156124a4576124a3613404565b5b6124af61018061323d565b9050600082013567ffffffffffffffff8111156124cf576124ce613409565b5b6124db84828501611ee5565b600083015250602082013567ffffffffffffffff8111156124ff576124fe613409565b5b61250b84828501611ee5565b602083015250604082013567ffffffffffffffff81111561252f5761252e613409565b5b61253b84828501611ee5565b604083015250606082013567ffffffffffffffff81111561255f5761255e613409565b5b61256b84828501611ee5565b606083015250608082013567ffffffffffffffff81111561258f5761258e613409565b5b61259b84828501611ee5565b60808301525060a082013567ffffffffffffffff8111156125bf576125be613409565b5b6125cb84828501611ee5565b60a08301525060c06125df848285016129b6565b60c08301525060e06125f3848285016129b6565b60e083015250610100612608848285016129b6565b6101008301525061012082013567ffffffffffffffff81111561262e5761262d613409565b5b61263a84828501611ee5565b6101208301525061014082013567ffffffffffffffff8111156126605761265f613409565b5b61266c84828501611ee5565b6101408301525061016082013567ffffffffffffffff81111561269257612691613409565b5b61269e84828501611ee5565b6101608301525092915050565b600061010082840312156126c2576126c1613404565b5b6126cd61010061323d565b9050600082013567ffffffffffffffff8111156126ed576126ec613409565b5b6126f984828501611ee5565b600083015250602082013567ffffffffffffffff81111561271d5761271c613409565b5b61272984828501611ee5565b602083015250604082013567ffffffffffffffff81111561274d5761274c613409565b5b61275984828501611ee5565b604083015250606082013567ffffffffffffffff81111561277d5761277c613409565b5b61278984828501611ee5565b606083015250608082013567ffffffffffffffff8111156127ad576127ac613409565b5b6127b984828501611ee5565b60808301525060a082013567ffffffffffffffff8111156127dd576127dc613409565b5b6127e984828501611ee5565b60a08301525060c082013567ffffffffffffffff81111561280d5761280c613409565b5b61281984828501611ee5565b60c08301525060e082013567ffffffffffffffff81111561283d5761283c613409565b5b61284984828501611ee5565b60e08301525092915050565b60006101a0828403121561286c5761286b613404565b5b61287660e061323d565b9050600082013567ffffffffffffffff81111561289657612895613409565b5b6128a28482850161248d565b600083015250602082013567ffffffffffffffff8111156128c6576128c5613409565b5b6128d284828501612101565b60208301525060406128e68482850161204d565b60408301525061012082013567ffffffffffffffff81111561290b5761290a613409565b5b612917848285016126ab565b60608301525061014082013567ffffffffffffffff81111561293c5761293b613409565b5b61294884828501612257565b60808301525061016082013567ffffffffffffffff81111561296d5761296c613409565b5b61297984828501611f13565b60a08301525061018082013567ffffffffffffffff81111561299e5761299d613409565b5b6129aa848285016122c3565b60c08301525092915050565b6000813590506129c58161355b565b92915050565b6000602082840312156129e1576129e0613418565b5b60006129ef84828501611ed0565b91505092915050565b600060208284031215612a0e57612a0d613418565b5b6000612a1c848285016129b6565b91505092915050565b60008060408385031215612a3c57612a3b613418565b5b6000612a4a858286016129b6565b925050602083013567ffffffffffffffff811115612a6b57612a6a613413565b5b612a7785828601612855565b9150509250929050565b612a8a816132c0565b82525050565b6000612a9b82613293565b612aa5818561329e565b9350612ab581856020860161330b565b612abe8161341d565b840191505092915050565b6000612ad66026836132af565b9150612ae18261342e565b604082019050919050565b6000612af96028836132af565b9150612b048261347d565b604082019050919050565b6000612b1c6023836132af565b9150612b27826134cc565b604082019050919050565b6000612b3f6020836132af565b9150612b4a8261351b565b602082019050919050565b600061010083016000830151612b6e60008601826130f5565b5060208301518482036020860152612b868282612a90565b9150506040830151612b9b60408601826130f5565b5060608301518482036060860152612bb38282612a90565b9150506080830151612bc860808601826130f5565b5060a083015184820360a0860152612be08282612a90565b91505060c0830151612bf560c08601826130f5565b5060e083015184820360e0860152612c0d8282612a90565b9150508091505092915050565b60e082016000820151612c3060008501826130f5565b506020820151612c4360208501826130f5565b506040820151612c5660408501826130f5565b506060820151612c6960608501826130f5565b506080820151612c7c60808501826130f5565b5060a0820151612c8f60a08501826130f5565b5060c0820151612ca260c08501826130f5565b50505050565b6000610100830160008301518482036000860152612cc68282612a90565b91505060208301518482036020860152612ce08282612a90565b91505060408301518482036040860152612cfa8282612a90565b91505060608301518482036060860152612d148282612a90565b91505060808301518482036080860152612d2e8282612a90565b91505060a0830151612d4360a08601826130f5565b5060c0830151612d5660c08601826130f5565b5060e0830151612d6960e08601826130f5565b508091505092915050565b60006040830160008301518482036000860152612d918282612a90565b9150506020830151612da660208601826130f5565b508091505092915050565b6000610180830160008301518482036000860152612dcf8282612a90565b91505060208301518482036020860152612de98282612a90565b91505060408301518482036040860152612e038282612a90565b91505060608301518482036060860152612e1d8282612a90565b9150506080830151612e3260808601826130f5565b5060a0830151612e4560a08601826130f5565b5060c0830151612e5860c08601826130f5565b5060e0830151612e6b60e08601826130f5565b50610100830151612e806101008601826130f5565b50610120830151848203610120860152612e9a8282612a90565b915050610140830151848203610140860152612eb68282612a90565b915050610160830151612ecd6101608601826130f5565b508091505092915050565b6000610180830160008301518482036000860152612ef68282612a90565b91505060208301518482036020860152612f108282612a90565b91505060408301518482036040860152612f2a8282612a90565b91505060608301518482036060860152612f448282612a90565b91505060808301518482036080860152612f5e8282612a90565b91505060a083015184820360a0860152612f788282612a90565b91505060c0830151612f8d60c08601826130f5565b5060e0830151612fa060e08601826130f5565b50610100830151612fb56101008601826130f5565b50610120830151848203610120860152612fcf8282612a90565b915050610140830151848203610140860152612feb8282612a90565b9150506101608301518482036101608601526130078282612a90565b9150508091505092915050565b60006101008301600083015184820360008601526130328282612a90565b9150506020830151848203602086015261304c8282612a90565b915050604083015184820360408601526130668282612a90565b915050606083015184820360608601526130808282612a90565b9150506080830151848203608086015261309a8282612a90565b91505060a083015184820360a08601526130b48282612a90565b91505060c083015184820360c08601526130ce8282612a90565b91505060e083015184820360e08601526130e88282612a90565b9150508091505092915050565b6130fe816132f2565b82525050565b60006020820190506131196000830184612a81565b92915050565b6000602082019050818103600083015261313881612ac9565b9050919050565b6000602082019050818103600083015261315881612aec565b9050919050565b6000602082019050818103600083015261317881612b0f565b9050919050565b6000602082019050818103600083015261319881612b32565b9050919050565b60006101a08201905081810360008301526131ba818a612ed8565b905081810360208301526131ce8189612ca8565b90506131dd6040830188612c1a565b8181036101208301526131f08187613014565b90508181036101408301526132058186612d74565b905081810361016083015261321a8185612b55565b905081810361018083015261322f8184612db1565b905098975050505050505050565b6000613247613258565b90506132538282613370565b919050565b6000604051905090565b600067ffffffffffffffff82111561327d5761327c6133d0565b5b6132868261341d565b9050602081019050919050565b600081519050919050565b600082825260208201905092915050565b600082825260208201905092915050565b60006132cb826132d2565b9050919050565b600073ffffffffffffffffffffffffffffffffffffffff82169050919050565b6000819050919050565b82818337600083830152505050565b60005b8381101561332957808201518184015260208101905061330e565b83811115613338576000848401525b50505050565b6000600282049050600182168061335657607f821691505b6020821081141561336a576133696133a1565b5b50919050565b6133798261341d565b810181811067ffffffffffffffff82111715613398576133976133d0565b5b80604052505050565b7f4e487b7100000000000000000000000000000000000000000000000000000000600052602260045260246000fd5b7f4e487b7100000000000000000000000000000000000000000000000000000000600052604160045260246000fd5b600080fd5b600080fd5b600080fd5b600080fd5b600080fd5b600080fd5b6000601f19601f8301169050919050565b7f4f776e61626c653a206e6577206f776e657220697320746865207a65726f206160008201527f6464726573730000000000000000000000000000000000000000000000000000602082015250565b7f4d757374206861766520706572736f6e616c20696e666f726d6174696f6e206960008201527f64206e756d626572000000000000000000000000000000000000000000000000602082015250565b7f4d757374206861766520706572736f6e616c20696e666f726d6174696f6e206e60008201527f616d650000000000000000000000000000000000000000000000000000000000602082015250565b7f4f776e61626c653a2063616c6c6572206973206e6f7420746865206f776e6572600082015250565b61354d816132c0565b811461355857600080fd5b50565b613564816132f2565b811461356f57600080fd5b5056fea264697066735822122074e250099b1e692fbd59f446641e2589e6cadc5a3451318651ead94f2c27efc664736f6c63430008060033",
  "immutableReferences": {},
  "source": "// SPDX-License-Identifier: MIT\n\npragma solidity 0.8.6;\n\nimport \"./Ownable.sol\";\n\ncontract Producers is Ownable\n{\n  /* Structs */\n  struct Producer {\n    PersonalInformation personal_information;\n    FarmInfo farm_info;\n    FarmArea farm_area;\n    Plantation plantation;\n    Farm farm;\n    CSA csa;\n    Harvest harvest;\n  }\n\n  struct PersonalInformation {\n    string name;\n    string id_number;\n    string rtn;\n    string birthday;\n    string gender;\n    string marital_status;\n    uint256 amount_childs;\n    uint256 amount_sons;\n    uint256 amount_daugters;\n    string cellphone;\n    string email;\n    string bio;\n  }\n\n  struct FarmInfo {\n    string name;\n    string zone_description;\n    string belonging_organization;\n    string organization_address;\n    string location;\n    uint256 georeference_x;\n    uint256 georeference_y;\n    uint256 msnm_height;\n  }\n\n  struct FarmArea {\n    uint256 total;\n    uint256 other_farm;\n    uint256 forest;\n    uint256 cacao;\n    uint256 production;\n    uint256 template;\n    uint256 projection;\n  }\n\n  struct Plantation {\n    string variety_1;\n    string variety_2;\n    string variety_3;\n    string variety_4;\n    string variety_5;\n    string variety_6;\n    string variety_7;\n    string variety_8;\n  }\n\n  struct Farm {\n    string management;\n    uint256 performance;\n  }\n\n  struct CSA {\n    uint256 timber;\n    string timber_description;\n    uint256 fruit;\n    string fruit_description;\n    uint256 palm;\n    string palm_description;\n    uint256 musaceae;\n    string musaceae_description;\n  }\n\n  struct Harvest {\n    string start_1;\n    string end_1;\n    string start_2;\n    string end_2;\n\n    uint256 cob;\n    uint256 slime;\n    uint256 dry_and_fermented;\n    uint256 dry_only;\n\n    uint256 total_year_volume;\n    string cacao_atributes_and_profile;\n\n    string other_data;\n    uint256 status;\n  }\n\n  /* Public Variables */\n  mapping(uint256 => Producer) public producers;\n\n  constructor()\n  {\n  }\n\n  function setProducer(uint256 id, Producer memory producer) public onlyOwner requiredFields(producer)\n  {\n    producers[id] = producer;\n  }\n\n   modifier requiredFields(Producer memory producer)\n   {\n    require(bytes(producer.personal_information.name).length != 0,\"Must have personal information name\");\n    require(bytes(producer.personal_information.id_number).length != 0,\"Must have personal information id number\");\n    //require(producer.harvest.status != 0,\"Must have harvest status\");\n    _;\n   }\n}\n",
  "sourcePath": "/home/turupawn/Projects/Blockchain/Productores/contracts/Producers.sol",
  "compiler": {
    "name": "solc",
    "version": "0.8.6+commit.11564f7e.Emscripten.clang"
  },
  "schemaVersion": "3.4.1",
  "updatedAt": "2021-08-21T18:35:01.779Z",
  "networkType": "ethereum",
  "devdoc": {
    "kind": "dev",
    "methods": {
      "owner()": {
        "details": "Returns the address of the current owner."
      },
      "renounceOwnership()": {
        "details": "Leaves the contract without owner. It will not be possible to call `onlyOwner` functions anymore. Can only be called by the current owner. NOTE: Renouncing ownership will leave the contract without an owner, thereby removing any functionality that is only available to the owner."
      },
      "transferOwnership(address)": {
        "details": "Transfers ownership of the contract to a new account (`newOwner`). Can only be called by the current owner."
      }
    },
    "version": 1
  },
  "userdoc": {
    "kind": "user",
    "methods": {},
    "version": 1
  }
}