{
  "contractName": "Producers",
  "abi": [
    {
      "inputs": [],
      "stateMutability": "nonpayable",
      "type": "constructor"
    },
    {
      "anonymous": false,
      "inputs": [
        {
          "indexed": false,
          "internalType": "address",
          "name": "sender",
          "type": "address"
        },
        {
          "indexed": false,
          "internalType": "uint256",
          "name": "id",
          "type": "uint256"
        },
        {
          "indexed": false,
          "internalType": "string",
          "name": "name",
          "type": "string"
        }
      ],
      "name": "AddProducerEvent",
      "type": "event"
    },
    {
      "anonymous": false,
      "inputs": [
        {
          "indexed": false,
          "internalType": "address",
          "name": "sender",
          "type": "address"
        },
        {
          "indexed": false,
          "internalType": "address",
          "name": "new_admin",
          "type": "address"
        }
      ],
      "name": "AdminAdded",
      "type": "event"
    },
    {
      "anonymous": false,
      "inputs": [
        {
          "indexed": false,
          "internalType": "address",
          "name": "sender",
          "type": "address"
        },
        {
          "indexed": false,
          "internalType": "address",
          "name": "new_admin",
          "type": "address"
        }
      ],
      "name": "AdminRevoked",
      "type": "event"
    },
    {
      "anonymous": false,
      "inputs": [
        {
          "indexed": false,
          "internalType": "address",
          "name": "sender",
          "type": "address"
        },
        {
          "indexed": false,
          "internalType": "uint256",
          "name": "id",
          "type": "uint256"
        },
        {
          "indexed": false,
          "internalType": "string",
          "name": "name",
          "type": "string"
        }
      ],
      "name": "EditProducerEvent",
      "type": "event"
    },
    {
      "inputs": [],
      "name": "a",
      "outputs": [
        {
          "internalType": "uint256",
          "name": "x",
          "type": "uint256"
        },
        {
          "internalType": "string",
          "name": "y",
          "type": "string"
        }
      ],
      "stateMutability": "view",
      "type": "function",
      "constant": true
    },
    {
      "inputs": [
        {
          "internalType": "address",
          "name": "",
          "type": "address"
        }
      ],
      "name": "addessIsAdmin",
      "outputs": [
        {
          "internalType": "bool",
          "name": "",
          "type": "bool"
        }
      ],
      "stateMutability": "view",
      "type": "function",
      "constant": true
    },
    {
      "inputs": [],
      "name": "b",
      "outputs": [
        {
          "components": [
            {
              "internalType": "uint256",
              "name": "x",
              "type": "uint256"
            },
            {
              "internalType": "string",
              "name": "y",
              "type": "string"
            }
          ],
          "internalType": "struct Producers.A",
          "name": "a",
          "type": "tuple"
        },
        {
          "internalType": "uint256",
          "name": "x",
          "type": "uint256"
        }
      ],
      "stateMutability": "view",
      "type": "function",
      "constant": true
    },
    {
      "inputs": [],
      "name": "producer_count",
      "outputs": [
        {
          "internalType": "uint256",
          "name": "",
          "type": "uint256"
        }
      ],
      "stateMutability": "view",
      "type": "function",
      "constant": true
    },
    {
      "inputs": [
        {
          "internalType": "uint256",
          "name": "",
          "type": "uint256"
        }
      ],
      "name": "producers",
      "outputs": [
        {
          "internalType": "address",
          "name": "editor",
          "type": "address"
        },
        {
          "components": [
            {
              "internalType": "string",
              "name": "photo",
              "type": "string"
            },
            {
              "internalType": "string",
              "name": "name",
              "type": "string"
            },
            {
              "internalType": "string",
              "name": "bio",
              "type": "string"
            },
            {
              "internalType": "string",
              "name": "id_number",
              "type": "string"
            },
            {
              "internalType": "string",
              "name": "sex",
              "type": "string"
            },
            {
              "internalType": "uint256",
              "name": "birthday_year",
              "type": "uint256"
            },
            {
              "internalType": "uint256",
              "name": "birthday_month",
              "type": "uint256"
            },
            {
              "internalType": "uint256",
              "name": "birthday_day",
              "type": "uint256"
            }
          ],
          "internalType": "struct Producers.PersonalInformation",
          "name": "personal_information",
          "type": "tuple"
        },
        {
          "components": [
            {
              "internalType": "string",
              "name": "name",
              "type": "string"
            },
            {
              "internalType": "string",
              "name": "org_address",
              "type": "string"
            },
            {
              "internalType": "string",
              "name": "location",
              "type": "string"
            },
            {
              "internalType": "string",
              "name": "farm_name",
              "type": "string"
            },
            {
              "internalType": "string",
              "name": "general_description",
              "type": "string"
            }
          ],
          "internalType": "struct Producers.Organization",
          "name": "organization",
          "type": "tuple"
        },
        {
          "components": [
            {
              "internalType": "uint256",
              "name": "georreference_utm_x",
              "type": "uint256"
            },
            {
              "internalType": "uint256",
              "name": "georreference_utm_y",
              "type": "uint256"
            },
            {
              "internalType": "uint256",
              "name": "height",
              "type": "uint256"
            },
            {
              "internalType": "uint256",
              "name": "total_area",
              "type": "uint256"
            },
            {
              "internalType": "uint256",
              "name": "other_farm_area",
              "type": "uint256"
            },
            {
              "internalType": "uint256",
              "name": "forest_area",
              "type": "uint256"
            },
            {
              "internalType": "uint256",
              "name": "cacao_area",
              "type": "uint256"
            },
            {
              "internalType": "uint256",
              "name": "production_area",
              "type": "uint256"
            },
            {
              "internalType": "uint256",
              "name": "template_area",
              "type": "uint256"
            },
            {
              "internalType": "uint256",
              "name": "projection_area",
              "type": "uint256"
            },
            {
              "internalType": "string",
              "name": "variety1",
              "type": "string"
            },
            {
              "internalType": "string",
              "name": "variety2",
              "type": "string"
            },
            {
              "internalType": "string",
              "name": "variety3",
              "type": "string"
            },
            {
              "internalType": "string",
              "name": "variety4",
              "type": "string"
            },
            {
              "internalType": "bool",
              "name": "is_chemical",
              "type": "bool"
            },
            {
              "internalType": "bool",
              "name": "is_organic",
              "type": "bool"
            },
            {
              "internalType": "string",
              "name": "performance",
              "type": "string"
            }
          ],
          "internalType": "struct Producers.Farm",
          "name": "farm",
          "type": "tuple"
        },
        {
          "components": [
            {
              "internalType": "string",
              "name": "start1",
              "type": "string"
            },
            {
              "internalType": "string",
              "name": "end1",
              "type": "string"
            },
            {
              "internalType": "string",
              "name": "start2",
              "type": "string"
            },
            {
              "internalType": "string",
              "name": "end2",
              "type": "string"
            }
          ],
          "internalType": "struct Producers.Harvest",
          "name": "harvest",
          "type": "tuple"
        },
        {
          "components": [
            {
              "internalType": "uint256",
              "name": "punds",
              "type": "uint256"
            },
            {
              "internalType": "uint256",
              "name": "quintal",
              "type": "uint256"
            },
            {
              "internalType": "uint256",
              "name": "fruit",
              "type": "uint256"
            }
          ],
          "internalType": "struct Producers.ProductionVolume",
          "name": "production_volume",
          "type": "tuple"
        },
        {
          "components": [
            {
              "internalType": "bool",
              "name": "has_timber",
              "type": "bool"
            },
            {
              "internalType": "string",
              "name": "timber_specs",
              "type": "string"
            },
            {
              "internalType": "bool",
              "name": "has_fruit",
              "type": "bool"
            },
            {
              "internalType": "string",
              "name": "fruit_specs",
              "type": "string"
            },
            {
              "internalType": "bool",
              "name": "has_palm",
              "type": "bool"
            },
            {
              "internalType": "string",
              "name": "palm_specs",
              "type": "string"
            },
            {
              "internalType": "bool",
              "name": "has_musaceae",
              "type": "bool"
            },
            {
              "internalType": "string",
              "name": "musaceae_specs",
              "type": "string"
            }
          ],
          "internalType": "struct Producers.CacaoAgroforestalSystem",
          "name": "cacao_agroforestal_system",
          "type": "tuple"
        },
        {
          "components": [
            {
              "internalType": "bool",
              "name": "is_handcrafter",
              "type": "bool"
            },
            {
              "internalType": "bool",
              "name": "is_industrial",
              "type": "bool"
            }
          ],
          "internalType": "struct Producers.Beneficiary",
          "name": "beneficiary",
          "type": "tuple"
        }
      ],
      "stateMutability": "view",
      "type": "function",
      "constant": true
    },
    {
      "inputs": [
        {
          "components": [
            {
              "internalType": "uint256",
              "name": "x",
              "type": "uint256"
            },
            {
              "internalType": "string",
              "name": "y",
              "type": "string"
            }
          ],
          "internalType": "struct Producers.A",
          "name": "_a",
          "type": "tuple"
        }
      ],
      "name": "functionA",
      "outputs": [],
      "stateMutability": "nonpayable",
      "type": "function"
    },
    {
      "inputs": [
        {
          "components": [
            {
              "components": [
                {
                  "internalType": "uint256",
                  "name": "x",
                  "type": "uint256"
                },
                {
                  "internalType": "string",
                  "name": "y",
                  "type": "string"
                }
              ],
              "internalType": "struct Producers.A",
              "name": "a",
              "type": "tuple"
            },
            {
              "internalType": "uint256",
              "name": "x",
              "type": "uint256"
            }
          ],
          "internalType": "struct Producers.B",
          "name": "_b",
          "type": "tuple"
        }
      ],
      "name": "functionB",
      "outputs": [],
      "stateMutability": "nonpayable",
      "type": "function"
    },
    {
      "inputs": [
        {
          "internalType": "address",
          "name": "_address",
          "type": "address"
        }
      ],
      "name": "addAdminAddress",
      "outputs": [],
      "stateMutability": "nonpayable",
      "type": "function"
    },
    {
      "inputs": [
        {
          "internalType": "address",
          "name": "_address",
          "type": "address"
        }
      ],
      "name": "revokeAdminAddress",
      "outputs": [],
      "stateMutability": "nonpayable",
      "type": "function"
    },
    {
      "inputs": [
        {
          "components": [
            {
              "internalType": "address",
              "name": "editor",
              "type": "address"
            },
            {
              "components": [
                {
                  "internalType": "string",
                  "name": "photo",
                  "type": "string"
                },
                {
                  "internalType": "string",
                  "name": "name",
                  "type": "string"
                },
                {
                  "internalType": "string",
                  "name": "bio",
                  "type": "string"
                },
                {
                  "internalType": "string",
                  "name": "id_number",
                  "type": "string"
                },
                {
                  "internalType": "string",
                  "name": "sex",
                  "type": "string"
                },
                {
                  "internalType": "uint256",
                  "name": "birthday_year",
                  "type": "uint256"
                },
                {
                  "internalType": "uint256",
                  "name": "birthday_month",
                  "type": "uint256"
                },
                {
                  "internalType": "uint256",
                  "name": "birthday_day",
                  "type": "uint256"
                }
              ],
              "internalType": "struct Producers.PersonalInformation",
              "name": "personal_information",
              "type": "tuple"
            },
            {
              "components": [
                {
                  "internalType": "string",
                  "name": "name",
                  "type": "string"
                },
                {
                  "internalType": "string",
                  "name": "org_address",
                  "type": "string"
                },
                {
                  "internalType": "string",
                  "name": "location",
                  "type": "string"
                },
                {
                  "internalType": "string",
                  "name": "farm_name",
                  "type": "string"
                },
                {
                  "internalType": "string",
                  "name": "general_description",
                  "type": "string"
                }
              ],
              "internalType": "struct Producers.Organization",
              "name": "organization",
              "type": "tuple"
            },
            {
              "components": [
                {
                  "internalType": "uint256",
                  "name": "georreference_utm_x",
                  "type": "uint256"
                },
                {
                  "internalType": "uint256",
                  "name": "georreference_utm_y",
                  "type": "uint256"
                },
                {
                  "internalType": "uint256",
                  "name": "height",
                  "type": "uint256"
                },
                {
                  "internalType": "uint256",
                  "name": "total_area",
                  "type": "uint256"
                },
                {
                  "internalType": "uint256",
                  "name": "other_farm_area",
                  "type": "uint256"
                },
                {
                  "internalType": "uint256",
                  "name": "forest_area",
                  "type": "uint256"
                },
                {
                  "internalType": "uint256",
                  "name": "cacao_area",
                  "type": "uint256"
                },
                {
                  "internalType": "uint256",
                  "name": "production_area",
                  "type": "uint256"
                },
                {
                  "internalType": "uint256",
                  "name": "template_area",
                  "type": "uint256"
                },
                {
                  "internalType": "uint256",
                  "name": "projection_area",
                  "type": "uint256"
                },
                {
                  "internalType": "string",
                  "name": "variety1",
                  "type": "string"
                },
                {
                  "internalType": "string",
                  "name": "variety2",
                  "type": "string"
                },
                {
                  "internalType": "string",
                  "name": "variety3",
                  "type": "string"
                },
                {
                  "internalType": "string",
                  "name": "variety4",
                  "type": "string"
                },
                {
                  "internalType": "bool",
                  "name": "is_chemical",
                  "type": "bool"
                },
                {
                  "internalType": "bool",
                  "name": "is_organic",
                  "type": "bool"
                },
                {
                  "internalType": "string",
                  "name": "performance",
                  "type": "string"
                }
              ],
              "internalType": "struct Producers.Farm",
              "name": "farm",
              "type": "tuple"
            },
            {
              "components": [
                {
                  "internalType": "string",
                  "name": "start1",
                  "type": "string"
                },
                {
                  "internalType": "string",
                  "name": "end1",
                  "type": "string"
                },
                {
                  "internalType": "string",
                  "name": "start2",
                  "type": "string"
                },
                {
                  "internalType": "string",
                  "name": "end2",
                  "type": "string"
                }
              ],
              "internalType": "struct Producers.Harvest",
              "name": "harvest",
              "type": "tuple"
            },
            {
              "components": [
                {
                  "internalType": "uint256",
                  "name": "punds",
                  "type": "uint256"
                },
                {
                  "internalType": "uint256",
                  "name": "quintal",
                  "type": "uint256"
                },
                {
                  "internalType": "uint256",
                  "name": "fruit",
                  "type": "uint256"
                }
              ],
              "internalType": "struct Producers.ProductionVolume",
              "name": "production_volume",
              "type": "tuple"
            },
            {
              "components": [
                {
                  "internalType": "bool",
                  "name": "has_timber",
                  "type": "bool"
                },
                {
                  "internalType": "string",
                  "name": "timber_specs",
                  "type": "string"
                },
                {
                  "internalType": "bool",
                  "name": "has_fruit",
                  "type": "bool"
                },
                {
                  "internalType": "string",
                  "name": "fruit_specs",
                  "type": "string"
                },
                {
                  "internalType": "bool",
                  "name": "has_palm",
                  "type": "bool"
                },
                {
                  "internalType": "string",
                  "name": "palm_specs",
                  "type": "string"
                },
                {
                  "internalType": "bool",
                  "name": "has_musaceae",
                  "type": "bool"
                },
                {
                  "internalType": "string",
                  "name": "musaceae_specs",
                  "type": "string"
                }
              ],
              "internalType": "struct Producers.CacaoAgroforestalSystem",
              "name": "cacao_agroforestal_system",
              "type": "tuple"
            },
            {
              "components": [
                {
                  "internalType": "bool",
                  "name": "is_handcrafter",
                  "type": "bool"
                },
                {
                  "internalType": "bool",
                  "name": "is_industrial",
                  "type": "bool"
                }
              ],
              "internalType": "struct Producers.Beneficiary",
              "name": "beneficiary",
              "type": "tuple"
            }
          ],
          "internalType": "struct Producers.Producer",
          "name": "producer",
          "type": "tuple"
        }
      ],
      "name": "addProducer",
      "outputs": [],
      "stateMutability": "nonpayable",
      "type": "function"
    },
    {
      "inputs": [
        {
          "internalType": "uint256",
          "name": "id",
          "type": "uint256"
        },
        {
          "components": [
            {
              "internalType": "address",
              "name": "editor",
              "type": "address"
            },
            {
              "components": [
                {
                  "internalType": "string",
                  "name": "photo",
                  "type": "string"
                },
                {
                  "internalType": "string",
                  "name": "name",
                  "type": "string"
                },
                {
                  "internalType": "string",
                  "name": "bio",
                  "type": "string"
                },
                {
                  "internalType": "string",
                  "name": "id_number",
                  "type": "string"
                },
                {
                  "internalType": "string",
                  "name": "sex",
                  "type": "string"
                },
                {
                  "internalType": "uint256",
                  "name": "birthday_year",
                  "type": "uint256"
                },
                {
                  "internalType": "uint256",
                  "name": "birthday_month",
                  "type": "uint256"
                },
                {
                  "internalType": "uint256",
                  "name": "birthday_day",
                  "type": "uint256"
                }
              ],
              "internalType": "struct Producers.PersonalInformation",
              "name": "personal_information",
              "type": "tuple"
            },
            {
              "components": [
                {
                  "internalType": "string",
                  "name": "name",
                  "type": "string"
                },
                {
                  "internalType": "string",
                  "name": "org_address",
                  "type": "string"
                },
                {
                  "internalType": "string",
                  "name": "location",
                  "type": "string"
                },
                {
                  "internalType": "string",
                  "name": "farm_name",
                  "type": "string"
                },
                {
                  "internalType": "string",
                  "name": "general_description",
                  "type": "string"
                }
              ],
              "internalType": "struct Producers.Organization",
              "name": "organization",
              "type": "tuple"
            },
            {
              "components": [
                {
                  "internalType": "uint256",
                  "name": "georreference_utm_x",
                  "type": "uint256"
                },
                {
                  "internalType": "uint256",
                  "name": "georreference_utm_y",
                  "type": "uint256"
                },
                {
                  "internalType": "uint256",
                  "name": "height",
                  "type": "uint256"
                },
                {
                  "internalType": "uint256",
                  "name": "total_area",
                  "type": "uint256"
                },
                {
                  "internalType": "uint256",
                  "name": "other_farm_area",
                  "type": "uint256"
                },
                {
                  "internalType": "uint256",
                  "name": "forest_area",
                  "type": "uint256"
                },
                {
                  "internalType": "uint256",
                  "name": "cacao_area",
                  "type": "uint256"
                },
                {
                  "internalType": "uint256",
                  "name": "production_area",
                  "type": "uint256"
                },
                {
                  "internalType": "uint256",
                  "name": "template_area",
                  "type": "uint256"
                },
                {
                  "internalType": "uint256",
                  "name": "projection_area",
                  "type": "uint256"
                },
                {
                  "internalType": "string",
                  "name": "variety1",
                  "type": "string"
                },
                {
                  "internalType": "string",
                  "name": "variety2",
                  "type": "string"
                },
                {
                  "internalType": "string",
                  "name": "variety3",
                  "type": "string"
                },
                {
                  "internalType": "string",
                  "name": "variety4",
                  "type": "string"
                },
                {
                  "internalType": "bool",
                  "name": "is_chemical",
                  "type": "bool"
                },
                {
                  "internalType": "bool",
                  "name": "is_organic",
                  "type": "bool"
                },
                {
                  "internalType": "string",
                  "name": "performance",
                  "type": "string"
                }
              ],
              "internalType": "struct Producers.Farm",
              "name": "farm",
              "type": "tuple"
            },
            {
              "components": [
                {
                  "internalType": "string",
                  "name": "start1",
                  "type": "string"
                },
                {
                  "internalType": "string",
                  "name": "end1",
                  "type": "string"
                },
                {
                  "internalType": "string",
                  "name": "start2",
                  "type": "string"
                },
                {
                  "internalType": "string",
                  "name": "end2",
                  "type": "string"
                }
              ],
              "internalType": "struct Producers.Harvest",
              "name": "harvest",
              "type": "tuple"
            },
            {
              "components": [
                {
                  "internalType": "uint256",
                  "name": "punds",
                  "type": "uint256"
                },
                {
                  "internalType": "uint256",
                  "name": "quintal",
                  "type": "uint256"
                },
                {
                  "internalType": "uint256",
                  "name": "fruit",
                  "type": "uint256"
                }
              ],
              "internalType": "struct Producers.ProductionVolume",
              "name": "production_volume",
              "type": "tuple"
            },
            {
              "components": [
                {
                  "internalType": "bool",
                  "name": "has_timber",
                  "type": "bool"
                },
                {
                  "internalType": "string",
                  "name": "timber_specs",
                  "type": "string"
                },
                {
                  "internalType": "bool",
                  "name": "has_fruit",
                  "type": "bool"
                },
                {
                  "internalType": "string",
                  "name": "fruit_specs",
                  "type": "string"
                },
                {
                  "internalType": "bool",
                  "name": "has_palm",
                  "type": "bool"
                },
                {
                  "internalType": "string",
                  "name": "palm_specs",
                  "type": "string"
                },
                {
                  "internalType": "bool",
                  "name": "has_musaceae",
                  "type": "bool"
                },
                {
                  "internalType": "string",
                  "name": "musaceae_specs",
                  "type": "string"
                }
              ],
              "internalType": "struct Producers.CacaoAgroforestalSystem",
              "name": "cacao_agroforestal_system",
              "type": "tuple"
            },
            {
              "components": [
                {
                  "internalType": "bool",
                  "name": "is_handcrafter",
                  "type": "bool"
                },
                {
                  "internalType": "bool",
                  "name": "is_industrial",
                  "type": "bool"
                }
              ],
              "internalType": "struct Producers.Beneficiary",
              "name": "beneficiary",
              "type": "tuple"
            }
          ],
          "internalType": "struct Producers.Producer",
          "name": "producer",
          "type": "tuple"
        }
      ],
      "name": "editProducer",
      "outputs": [],
      "stateMutability": "nonpayable",
      "type": "function"
    }
  ],
  "bytecode": "0x608060405234801561001057600080fd5b506001600760003373ffffffffffffffffffffffffffffffffffffffff1673ffffffffffffffffffffffffffffffffffffffff16815260200190815260200160002060006101000a81548160ff0219169083151502179055506138e7806100786000396000f3fe608060405234801561001057600080fd5b50600436106100a85760003560e01c80639b68ade7116100715780639b68ade7146101415780639fa5adb214610178578063a7a5eab914610194578063d7a16604146101b0578063e269d021146101cc578063edbc1827146101e8576100a8565b80624fba00146100ad5780630dbe671f146100c95780633077431c146100e85780634df7e3d014610104578063587c601b14610123575b600080fd5b6100c760048036038101906100c29190612c52565b610218565b005b6100d161033a565b6040516100df929190613568565b60405180910390f35b61010260048036038101906100fd9190612c7f565b6103d4565b005b61010c610403565b60405161011a92919061351d565b60405180910390f35b61012b6104bb565b604051610138919061354d565b60405180910390f35b61015b60048036038101906101569190612d5a565b6104c1565b60405161016f9897969594939291906133e1565b60405180910390f35b610192600480360381019061018d9190612cc8565b611408565b005b6101ae60048036038101906101a99190612d11565b61144d565b005b6101ca60048036038101906101c59190612c52565b611a2e565b005b6101e660048036038101906101e19190612d87565b611b50565b005b61020260048036038101906101fd9190612c52565b612150565b60405161020f91906134c2565b60405180910390f35b33600760008273ffffffffffffffffffffffffffffffffffffffff1673ffffffffffffffffffffffffffffffffffffffff16815260200190815260200160002060009054906101000a900460ff166102a5576040517f08c379a000000000000000000000000000000000000000000000000000000000815260040161029c906134dd565b60405180910390fd5b6001600760008473ffffffffffffffffffffffffffffffffffffffff1673ffffffffffffffffffffffffffffffffffffffff16815260200190815260200160002060006101000a81548160ff0219169083151502179055507fbf3f493c772c8c283fd124432c2d0f539ab343faa04258fe88e52912d36b102b338360405161032e9291906133b8565b60405180910390a15050565b6000806000015490806001018054610351906136fb565b80601f016020809104026020016040519081016040528092919081815260200182805461037d906136fb565b80156103ca5780601f1061039f576101008083540402835291602001916103ca565b820191906000526020600020905b8154815290600101906020018083116103ad57829003601f168201915b5050505050905082565b80600080820151816000015560208201518160010190805190602001906103fc929190612170565b5090505050565b6002806000016040518060400160405290816000820154815260200160018201805461042e906136fb565b80601f016020809104026020016040519081016040528092919081815260200182805461045a906136fb565b80156104a75780601f1061047c576101008083540402835291602001916104a7565b820191906000526020600020905b81548152906001019060200180831161048a57829003601f168201915b505050505081525050908060020154905082565b60055481565b60066020528060005260406000206000915090508060000160009054906101000a900473ffffffffffffffffffffffffffffffffffffffff1690806001016040518061010001604052908160008201805461051b906136fb565b80601f0160208091040260200160405190810160405280929190818152602001828054610547906136fb565b80156105945780601f1061056957610100808354040283529160200191610594565b820191906000526020600020905b81548152906001019060200180831161057757829003601f168201915b505050505081526020016001820180546105ad906136fb565b80601f01602080910402602001604051908101604052809291908181526020018280546105d9906136fb565b80156106265780601f106105fb57610100808354040283529160200191610626565b820191906000526020600020905b81548152906001019060200180831161060957829003601f168201915b5050505050815260200160028201805461063f906136fb565b80601f016020809104026020016040519081016040528092919081815260200182805461066b906136fb565b80156106b85780601f1061068d576101008083540402835291602001916106b8565b820191906000526020600020905b81548152906001019060200180831161069b57829003601f168201915b505050505081526020016003820180546106d1906136fb565b80601f01602080910402602001604051908101604052809291908181526020018280546106fd906136fb565b801561074a5780601f1061071f5761010080835404028352916020019161074a565b820191906000526020600020905b81548152906001019060200180831161072d57829003601f168201915b50505050508152602001600482018054610763906136fb565b80601f016020809104026020016040519081016040528092919081815260200182805461078f906136fb565b80156107dc5780601f106107b1576101008083540402835291602001916107dc565b820191906000526020600020905b8154815290600101906020018083116107bf57829003601f168201915b50505050508152602001600582015481526020016006820154815260200160078201548152505090806009016040518060a0016040529081600082018054610823906136fb565b80601f016020809104026020016040519081016040528092919081815260200182805461084f906136fb565b801561089c5780601f106108715761010080835404028352916020019161089c565b820191906000526020600020905b81548152906001019060200180831161087f57829003601f168201915b505050505081526020016001820180546108b5906136fb565b80601f01602080910402602001604051908101604052809291908181526020018280546108e1906136fb565b801561092e5780601f106109035761010080835404028352916020019161092e565b820191906000526020600020905b81548152906001019060200180831161091157829003601f168201915b50505050508152602001600282018054610947906136fb565b80601f0160208091040260200160405190810160405280929190818152602001828054610973906136fb565b80156109c05780601f10610995576101008083540402835291602001916109c0565b820191906000526020600020905b8154815290600101906020018083116109a357829003601f168201915b505050505081526020016003820180546109d9906136fb565b80601f0160208091040260200160405190810160405280929190818152602001828054610a05906136fb565b8015610a525780601f10610a2757610100808354040283529160200191610a52565b820191906000526020600020905b815481529060010190602001808311610a3557829003601f168201915b50505050508152602001600482018054610a6b906136fb565b80601f0160208091040260200160405190810160405280929190818152602001828054610a97906136fb565b8015610ae45780601f10610ab957610100808354040283529160200191610ae4565b820191906000526020600020905b815481529060010190602001808311610ac757829003601f168201915b5050505050815250509080600e016040518061022001604052908160008201548152602001600182015481526020016002820154815260200160038201548152602001600482015481526020016005820154815260200160068201548152602001600782015481526020016008820154815260200160098201548152602001600a82018054610b72906136fb565b80601f0160208091040260200160405190810160405280929190818152602001828054610b9e906136fb565b8015610beb5780601f10610bc057610100808354040283529160200191610beb565b820191906000526020600020905b815481529060010190602001808311610bce57829003601f168201915b50505050508152602001600b82018054610c04906136fb565b80601f0160208091040260200160405190810160405280929190818152602001828054610c30906136fb565b8015610c7d5780601f10610c5257610100808354040283529160200191610c7d565b820191906000526020600020905b815481529060010190602001808311610c6057829003601f168201915b50505050508152602001600c82018054610c96906136fb565b80601f0160208091040260200160405190810160405280929190818152602001828054610cc2906136fb565b8015610d0f5780601f10610ce457610100808354040283529160200191610d0f565b820191906000526020600020905b815481529060010190602001808311610cf257829003601f168201915b50505050508152602001600d82018054610d28906136fb565b80601f0160208091040260200160405190810160405280929190818152602001828054610d54906136fb565b8015610da15780601f10610d7657610100808354040283529160200191610da1565b820191906000526020600020905b815481529060010190602001808311610d8457829003601f168201915b50505050508152602001600e820160009054906101000a900460ff16151515158152602001600e820160019054906101000a900460ff16151515158152602001600f82018054610df0906136fb565b80601f0160208091040260200160405190810160405280929190818152602001828054610e1c906136fb565b8015610e695780601f10610e3e57610100808354040283529160200191610e69565b820191906000526020600020905b815481529060010190602001808311610e4c57829003601f168201915b5050505050815250509080601e01604051806080016040529081600082018054610e92906136fb565b80601f0160208091040260200160405190810160405280929190818152602001828054610ebe906136fb565b8015610f0b5780601f10610ee057610100808354040283529160200191610f0b565b820191906000526020600020905b815481529060010190602001808311610eee57829003601f168201915b50505050508152602001600182018054610f24906136fb565b80601f0160208091040260200160405190810160405280929190818152602001828054610f50906136fb565b8015610f9d5780601f10610f7257610100808354040283529160200191610f9d565b820191906000526020600020905b815481529060010190602001808311610f8057829003601f168201915b50505050508152602001600282018054610fb6906136fb565b80601f0160208091040260200160405190810160405280929190818152602001828054610fe2906136fb565b801561102f5780601f106110045761010080835404028352916020019161102f565b820191906000526020600020905b81548152906001019060200180831161101257829003601f168201915b50505050508152602001600382018054611048906136fb565b80601f0160208091040260200160405190810160405280929190818152602001828054611074906136fb565b80156110c15780601f10611096576101008083540402835291602001916110c1565b820191906000526020600020905b8154815290600101906020018083116110a457829003601f168201915b505050505081525050908060220160405180606001604052908160008201548152602001600182015481526020016002820154815250509080602501604051806101000160405290816000820160009054906101000a900460ff16151515158152602001600182018054611134906136fb565b80601f0160208091040260200160405190810160405280929190818152602001828054611160906136fb565b80156111ad5780601f10611182576101008083540402835291602001916111ad565b820191906000526020600020905b81548152906001019060200180831161119057829003601f168201915b505050505081526020016002820160009054906101000a900460ff161515151581526020016003820180546111e1906136fb565b80601f016020809104026020016040519081016040528092919081815260200182805461120d906136fb565b801561125a5780601f1061122f5761010080835404028352916020019161125a565b820191906000526020600020905b81548152906001019060200180831161123d57829003601f168201915b505050505081526020016004820160009054906101000a900460ff1615151515815260200160058201805461128e906136fb565b80601f01602080910402602001604051908101604052809291908181526020018280546112ba906136fb565b80156113075780601f106112dc57610100808354040283529160200191611307565b820191906000526020600020905b8154815290600101906020018083116112ea57829003601f168201915b505050505081526020016006820160009054906101000a900460ff1615151515815260200160078201805461133b906136fb565b80601f0160208091040260200160405190810160405280929190818152602001828054611367906136fb565b80156113b45780601f10611389576101008083540402835291602001916113b4565b820191906000526020600020905b81548152906001019060200180831161139757829003601f168201915b5050505050815250509080602d016040518060400160405290816000820160009054906101000a900460ff161515151581526020016000820160019054906101000a900460ff161515151581525050905088565b80600260008201518160000160008201518160000155602082015181600101908051906020019061143a929190612170565b5050506020820151816002015590505050565b33600760008273ffffffffffffffffffffffffffffffffffffffff1673ffffffffffffffffffffffffffffffffffffffff16815260200190815260200160002060009054906101000a900460ff166114da576040517f08c379a00000000000000000000000000000000000000000000000000000000081526004016114d1906134dd565b60405180910390fd5b8160066000600554815260200190815260200160002060008201518160000160006101000a81548173ffffffffffffffffffffffffffffffffffffffff021916908373ffffffffffffffffffffffffffffffffffffffff160217905550602082015181600101600082015181600001908051906020019061155c929190612170565b506020820151816001019080519060200190611579929190612170565b506040820151816002019080519060200190611596929190612170565b5060608201518160030190805190602001906115b3929190612170565b5060808201518160040190805190602001906115d0929190612170565b5060a0820151816005015560c0820151816006015560e0820151816007015550506040820151816009016000820151816000019080519060200190611616929190612170565b506020820151816001019080519060200190611633929190612170565b506040820151816002019080519060200190611650929190612170565b50606082015181600301908051906020019061166d929190612170565b50608082015181600401908051906020019061168a929190612170565b505050606082015181600e01600082015181600001556020820151816001015560408201518160020155606082015181600301556080820151816004015560a0820151816005015560c0820151816006015560e082015181600701556101008201518160080155610120820151816009015561014082015181600a019080519060200190611719929190612170565b5061016082015181600b019080519060200190611737929190612170565b5061018082015181600c019080519060200190611755929190612170565b506101a082015181600d019080519060200190611773929190612170565b506101c082015181600e0160006101000a81548160ff0219169083151502179055506101e082015181600e0160016101000a81548160ff02191690831515021790555061020082015181600f0190805190602001906117d3929190612170565b505050608082015181601e0160008201518160000190805190602001906117fb929190612170565b506020820151816001019080519060200190611818929190612170565b506040820151816002019080519060200190611835929190612170565b506060820151816003019080519060200190611852929190612170565b50505060a082015181602201600082015181600001556020820151816001015560408201518160020155505060c08201518160250160008201518160000160006101000a81548160ff02191690831515021790555060208201518160010190805190602001906118c3929190612170565b5060408201518160020160006101000a81548160ff0219169083151502179055506060820151816003019080519060200190611900929190612170565b5060808201518160040160006101000a81548160ff02191690831515021790555060a082015181600501908051906020019061193d929190612170565b5060c08201518160060160006101000a81548160ff02191690831515021790555060e082015181600701908051906020019061197a929190612170565b50505060e082015181602d0160008201518160000160006101000a81548160ff02191690831515021790555060208201518160000160016101000a81548160ff02191690831515021790555050509050507f72eec265048d506496d8a735700f777c16cd3e8374adc2ea6c2a339c7b2b15b633600554846020015160200151604051611a0893929190613484565b60405180910390a1600160056000828254611a23919061361b565b925050819055505050565b33600760008273ffffffffffffffffffffffffffffffffffffffff1673ffffffffffffffffffffffffffffffffffffffff16815260200190815260200160002060009054906101000a900460ff16611abb576040517f08c379a0000000000000000000000000000000000000000000000000000000008152600401611ab2906134dd565b60405180910390fd5b6000600760008473ffffffffffffffffffffffffffffffffffffffff1673ffffffffffffffffffffffffffffffffffffffff16815260200190815260200160002060006101000a81548160ff0219169083151502179055507f7c0c3c84c67c85fcac635147348bfe374c24a1a93d0366d1cfe9d8853cbf89d53383604051611b449291906133b8565b60405180910390a15050565b8060000151600760003373ffffffffffffffffffffffffffffffffffffffff1673ffffffffffffffffffffffffffffffffffffffff16815260200190815260200160002060009054906101000a900460ff1680611bd857508073ffffffffffffffffffffffffffffffffffffffff163373ffffffffffffffffffffffffffffffffffffffff16145b611c17576040517f08c379a0000000000000000000000000000000000000000000000000000000008152600401611c0e906134fd565b60405180910390fd5b816006600085815260200190815260200160002060008201518160000160006101000a81548173ffffffffffffffffffffffffffffffffffffffff021916908373ffffffffffffffffffffffffffffffffffffffff1602179055506020820151816001016000820151816000019080519060200190611c97929190612170565b506020820151816001019080519060200190611cb4929190612170565b506040820151816002019080519060200190611cd1929190612170565b506060820151816003019080519060200190611cee929190612170565b506080820151816004019080519060200190611d0b929190612170565b5060a0820151816005015560c0820151816006015560e0820151816007015550506040820151816009016000820151816000019080519060200190611d51929190612170565b506020820151816001019080519060200190611d6e929190612170565b506040820151816002019080519060200190611d8b929190612170565b506060820151816003019080519060200190611da8929190612170565b506080820151816004019080519060200190611dc5929190612170565b505050606082015181600e01600082015181600001556020820151816001015560408201518160020155606082015181600301556080820151816004015560a0820151816005015560c0820151816006015560e082015181600701556101008201518160080155610120820151816009015561014082015181600a019080519060200190611e54929190612170565b5061016082015181600b019080519060200190611e72929190612170565b5061018082015181600c019080519060200190611e90929190612170565b506101a082015181600d019080519060200190611eae929190612170565b506101c082015181600e0160006101000a81548160ff0219169083151502179055506101e082015181600e0160016101000a81548160ff02191690831515021790555061020082015181600f019080519060200190611f0e929190612170565b505050608082015181601e016000820151816000019080519060200190611f36929190612170565b506020820151816001019080519060200190611f53929190612170565b506040820151816002019080519060200190611f70929190612170565b506060820151816003019080519060200190611f8d929190612170565b50505060a082015181602201600082015181600001556020820151816001015560408201518160020155505060c08201518160250160008201518160000160006101000a81548160ff0219169083151502179055506020820151816001019080519060200190611ffe929190612170565b5060408201518160020160006101000a81548160ff021916908315150217905550606082015181600301908051906020019061203b929190612170565b5060808201518160040160006101000a81548160ff02191690831515021790555060a0820151816005019080519060200190612078929190612170565b5060c08201518160060160006101000a81548160ff02191690831515021790555060e08201518160070190805190602001906120b5929190612170565b50505060e082015181602d0160008201518160000160006101000a81548160ff02191690831515021790555060208201518160000160016101000a81548160ff02191690831515021790555050509050507f755f1ec6a421c918300a1fe03bb60771d8371d1e7578b6d196fe0f374ef257403360055484602001516020015160405161214393929190613484565b60405180910390a1505050565b60076020528060005260406000206000915054906101000a900460ff1681565b82805461217c906136fb565b90600052602060002090601f01602090048101928261219e57600085556121e5565b82601f106121b757805160ff19168380011785556121e5565b828001600101855582156121e5579182015b828111156121e45782518255916020019190600101906121c9565b5b5090506121f291906121f6565b5090565b5b8082111561220f5760008160009055506001016121f7565b5090565b6000612226612221846135bd565b613598565b905082815260208101848484011115612242576122416137fa565b5b61224d8482856136b9565b509392505050565b6000813590506122648161386c565b92915050565b60008135905061227981613883565b92915050565b600082601f830112612294576122936137eb565b5b81356122a4848260208601612213565b91505092915050565b6000604082840312156122c3576122c26137f0565b5b6122cd6040613598565b905060006122dd84828501612c3d565b600083015250602082013567ffffffffffffffff811115612301576123006137f5565b5b61230d8482850161227f565b60208301525092915050565b60006040828403121561232f5761232e6137f0565b5b6123396040613598565b9050600082013567ffffffffffffffff811115612359576123586137f5565b5b612365848285016122ad565b600083015250602061237984828501612c3d565b60208301525092915050565b60006040828403121561239b5761239a6137f0565b5b6123a56040613598565b905060006123b58482850161226a565b60008301525060206123c98482850161226a565b60208301525092915050565b600061010082840312156123ec576123eb6137f0565b5b6123f7610100613598565b905060006124078482850161226a565b600083015250602082013567ffffffffffffffff81111561242b5761242a6137f5565b5b6124378482850161227f565b602083015250604061244b8482850161226a565b604083015250606082013567ffffffffffffffff81111561246f5761246e6137f5565b5b61247b8482850161227f565b606083015250608061248f8482850161226a565b60808301525060a082013567ffffffffffffffff8111156124b3576124b26137f5565b5b6124bf8482850161227f565b60a08301525060c06124d38482850161226a565b60c08301525060e082013567ffffffffffffffff8111156124f7576124f66137f5565b5b6125038482850161227f565b60e08301525092915050565b60006102208284031215612526576125256137f0565b5b612531610220613598565b9050600061254184828501612c3d565b600083015250602061255584828501612c3d565b602083015250604061256984828501612c3d565b604083015250606061257d84828501612c3d565b606083015250608061259184828501612c3d565b60808301525060a06125a584828501612c3d565b60a08301525060c06125b984828501612c3d565b60c08301525060e06125cd84828501612c3d565b60e0830152506101006125e284828501612c3d565b610100830152506101206125f884828501612c3d565b6101208301525061014082013567ffffffffffffffff81111561261e5761261d6137f5565b5b61262a8482850161227f565b6101408301525061016082013567ffffffffffffffff8111156126505761264f6137f5565b5b61265c8482850161227f565b6101608301525061018082013567ffffffffffffffff811115612682576126816137f5565b5b61268e8482850161227f565b610180830152506101a082013567ffffffffffffffff8111156126b4576126b36137f5565b5b6126c08482850161227f565b6101a0830152506101c06126d68482850161226a565b6101c0830152506101e06126ec8482850161226a565b6101e08301525061020082013567ffffffffffffffff811115612712576127116137f5565b5b61271e8482850161227f565b6102008301525092915050565b600060808284031215612741576127406137f0565b5b61274b6080613598565b9050600082013567ffffffffffffffff81111561276b5761276a6137f5565b5b6127778482850161227f565b600083015250602082013567ffffffffffffffff81111561279b5761279a6137f5565b5b6127a78482850161227f565b602083015250604082013567ffffffffffffffff8111156127cb576127ca6137f5565b5b6127d78482850161227f565b604083015250606082013567ffffffffffffffff8111156127fb576127fa6137f5565b5b6128078482850161227f565b60608301525092915050565b600060a08284031215612829576128286137f0565b5b61283360a0613598565b9050600082013567ffffffffffffffff811115612853576128526137f5565b5b61285f8482850161227f565b600083015250602082013567ffffffffffffffff811115612883576128826137f5565b5b61288f8482850161227f565b602083015250604082013567ffffffffffffffff8111156128b3576128b26137f5565b5b6128bf8482850161227f565b604083015250606082013567ffffffffffffffff8111156128e3576128e26137f5565b5b6128ef8482850161227f565b606083015250608082013567ffffffffffffffff811115612913576129126137f5565b5b61291f8482850161227f565b60808301525092915050565b60006101008284031215612942576129416137f0565b5b61294d610100613598565b9050600082013567ffffffffffffffff81111561296d5761296c6137f5565b5b6129798482850161227f565b600083015250602082013567ffffffffffffffff81111561299d5761299c6137f5565b5b6129a98482850161227f565b602083015250604082013567ffffffffffffffff8111156129cd576129cc6137f5565b5b6129d98482850161227f565b604083015250606082013567ffffffffffffffff8111156129fd576129fc6137f5565b5b612a098482850161227f565b606083015250608082013567ffffffffffffffff811115612a2d57612a2c6137f5565b5b612a398482850161227f565b60808301525060a0612a4d84828501612c3d565b60a08301525060c0612a6184828501612c3d565b60c08301525060e0612a7584828501612c3d565b60e08301525092915050565b60006101608284031215612a9857612a976137f0565b5b612aa3610100613598565b90506000612ab384828501612255565b600083015250602082013567ffffffffffffffff811115612ad757612ad66137f5565b5b612ae38482850161292b565b602083015250604082013567ffffffffffffffff811115612b0757612b066137f5565b5b612b1384828501612813565b604083015250606082013567ffffffffffffffff811115612b3757612b366137f5565b5b612b438482850161250f565b606083015250608082013567ffffffffffffffff811115612b6757612b666137f5565b5b612b738482850161272b565b60808301525060a0612b8784828501612bd9565b60a08301525061010082013567ffffffffffffffff811115612bac57612bab6137f5565b5b612bb8848285016123d5565b60c083015250610120612bcd84828501612385565b60e08301525092915050565b600060608284031215612bef57612bee6137f0565b5b612bf96060613598565b90506000612c0984828501612c3d565b6000830152506020612c1d84828501612c3d565b6020830152506040612c3184828501612c3d565b60408301525092915050565b600081359050612c4c8161389a565b92915050565b600060208284031215612c6857612c67613804565b5b6000612c7684828501612255565b91505092915050565b600060208284031215612c9557612c94613804565b5b600082013567ffffffffffffffff811115612cb357612cb26137ff565b5b612cbf848285016122ad565b91505092915050565b600060208284031215612cde57612cdd613804565b5b600082013567ffffffffffffffff811115612cfc57612cfb6137ff565b5b612d0884828501612319565b91505092915050565b600060208284031215612d2757612d26613804565b5b600082013567ffffffffffffffff811115612d4557612d446137ff565b5b612d5184828501612a81565b91505092915050565b600060208284031215612d7057612d6f613804565b5b6000612d7e84828501612c3d565b91505092915050565b60008060408385031215612d9e57612d9d613804565b5b6000612dac85828601612c3d565b925050602083013567ffffffffffffffff811115612dcd57612dcc6137ff565b5b612dd985828601612a81565b9150509250929050565b612dec81613671565b82525050565b612dfb81613683565b82525050565b612e0a81613683565b82525050565b6000612e1b826135ee565b612e2581856135f9565b9350612e358185602086016136c8565b612e3e81613809565b840191505092915050565b6000612e54826135ee565b612e5e818561360a565b9350612e6e8185602086016136c8565b612e7781613809565b840191505092915050565b6000612e8f60148361360a565b9150612e9a8261381a565b602082019050919050565b6000612eb260168361360a565b9150612ebd82613843565b602082019050919050565b6000604083016000830151612ee0600086018261339a565b5060208301518482036020860152612ef88282612e10565b9150508091505092915050565b604082016000820151612f1b6000850182612df2565b506020820151612f2e6020850182612df2565b50505050565b600061010083016000830151612f4d6000860182612df2565b5060208301518482036020860152612f658282612e10565b9150506040830151612f7a6040860182612df2565b5060608301518482036060860152612f928282612e10565b9150506080830151612fa76080860182612df2565b5060a083015184820360a0860152612fbf8282612e10565b91505060c0830151612fd460c0860182612df2565b5060e083015184820360e0860152612fec8282612e10565b9150508091505092915050565b600061022083016000830151613012600086018261339a565b506020830151613025602086018261339a565b506040830151613038604086018261339a565b50606083015161304b606086018261339a565b50608083015161305e608086018261339a565b5060a083015161307160a086018261339a565b5060c083015161308460c086018261339a565b5060e083015161309760e086018261339a565b506101008301516130ac61010086018261339a565b506101208301516130c161012086018261339a565b506101408301518482036101408601526130db8282612e10565b9150506101608301518482036101608601526130f78282612e10565b9150506101808301518482036101808601526131138282612e10565b9150506101a08301518482036101a086015261312f8282612e10565b9150506101c08301516131466101c0860182612df2565b506101e083015161315b6101e0860182612df2565b506102008301518482036102008601526131758282612e10565b9150508091505092915050565b6000608083016000830151848203600086015261319f8282612e10565b915050602083015184820360208601526131b98282612e10565b915050604083015184820360408601526131d38282612e10565b915050606083015184820360608601526131ed8282612e10565b9150508091505092915050565b600060a08301600083015184820360008601526132178282612e10565b915050602083015184820360208601526132318282612e10565b9150506040830151848203604086015261324b8282612e10565b915050606083015184820360608601526132658282612e10565b9150506080830151848203608086015261327f8282612e10565b9150508091505092915050565b60006101008301600083015184820360008601526132aa8282612e10565b915050602083015184820360208601526132c48282612e10565b915050604083015184820360408601526132de8282612e10565b915050606083015184820360608601526132f88282612e10565b915050608083015184820360808601526133128282612e10565b91505060a083015161332760a086018261339a565b5060c083015161333a60c086018261339a565b5060e083015161334d60e086018261339a565b508091505092915050565b60608201600082015161336e600085018261339a565b506020820151613381602085018261339a565b506040820151613394604085018261339a565b50505050565b6133a3816136af565b82525050565b6133b2816136af565b82525050565b60006040820190506133cd6000830185612de3565b6133da6020830184612de3565b9392505050565b6000610160820190506133f7600083018b612de3565b8181036020830152613409818a61328c565b9050818103604083015261341d81896131fa565b905081810360608301526134318188612ff9565b905081810360808301526134458187613182565b905061345460a0830186613358565b8181036101008301526134678185612f34565b9050613477610120830184612f05565b9998505050505050505050565b60006060820190506134996000830186612de3565b6134a660208301856133a9565b81810360408301526134b88184612e49565b9050949350505050565b60006020820190506134d76000830184612e01565b92915050565b600060208201905081810360008301526134f681612e82565b9050919050565b6000602082019050818103600083015261351681612ea5565b9050919050565b600060408201905081810360008301526135378185612ec8565b905061354660208301846133a9565b9392505050565b600060208201905061356260008301846133a9565b92915050565b600060408201905061357d60008301856133a9565b818103602083015261358f8184612e49565b90509392505050565b60006135a26135b3565b90506135ae828261372d565b919050565b6000604051905090565b600067ffffffffffffffff8211156135d8576135d76137bc565b5b6135e182613809565b9050602081019050919050565b600081519050919050565b600082825260208201905092915050565b600082825260208201905092915050565b6000613626826136af565b9150613631836136af565b9250827fffffffffffffffffffffffffffffffffffffffffffffffffffffffffffffffff038211156136665761366561375e565b5b828201905092915050565b600061367c8261368f565b9050919050565b60008115159050919050565b600073ffffffffffffffffffffffffffffffffffffffff82169050919050565b6000819050919050565b82818337600083830152505050565b60005b838110156136e65780820151818401526020810190506136cb565b838111156136f5576000848401525b50505050565b6000600282049050600182168061371357607f821691505b602082108114156137275761372661378d565b5b50919050565b61373682613809565b810181811067ffffffffffffffff82111715613755576137546137bc565b5b80604052505050565b7f4e487b7100000000000000000000000000000000000000000000000000000000600052601160045260246000fd5b7f4e487b7100000000000000000000000000000000000000000000000000000000600052602260045260246000fd5b7f4e487b7100000000000000000000000000000000000000000000000000000000600052604160045260246000fd5b600080fd5b600080fd5b600080fd5b600080fd5b600080fd5b600080fd5b6000601f19601f8301169050919050565b7f53656e646572206d7573742062652061646d696e000000000000000000000000600082015250565b7f53656e646572206d75737420626520656469746f722e00000000000000000000600082015250565b61387581613671565b811461388057600080fd5b50565b61388c81613683565b811461389757600080fd5b50565b6138a3816136af565b81146138ae57600080fd5b5056fea2646970667358221220b39f14abc41a319ec12ba176cb03e7ca27fc4c7958fc6097e4096ae305175c2a64736f6c63430008050033",
  "immutableReferences": {},
  "source": "// SPDX-License-Identifier: MIT\n\npragma solidity 0.8.5;\n\ncontract Producers\n{\n  struct A {\n    uint256 x;\n    string y;\n  }\n  struct B {\n    A a;\n    uint256 x;\n  }\n\n  A public a;\n  B public b;\n\n  function functionA(A memory _a) public\n  {\n    a = _a;\n  }\n\n  function functionB(B memory _b) public\n  {\n    b = _b;\n  }\n\n  /* Structs */\n  struct Producer {\n    address editor;\n    PersonalInformation personal_information;\n    Organization organization;\n    Farm farm;\n    Harvest harvest;\n    ProductionVolume production_volume;\n    CacaoAgroforestalSystem cacao_agroforestal_system;\n    Beneficiary beneficiary;\n  }\n\n  struct PersonalInformation {\n    string photo;\n    string name;\n    string bio;\n    string id_number;\n    string sex;\n    uint256 birthday_year;\n    uint256 birthday_month;\n    uint256 birthday_day;\n  }\n\n  struct Organization {\n    string name;\n    string org_address;\n    string location;\n    string farm_name;\n    string general_description;\n  }\n\n  struct Farm {\n    uint256 georreference_utm_x;\n    uint256 georreference_utm_y;\n    uint256 height;\n    uint256 total_area;\n    uint256 other_farm_area;\n    uint256 forest_area;\n    uint256 cacao_area;\n    uint256 production_area;\n    uint256 template_area;\n    uint256 projection_area;\n    string variety1;\n    string variety2;\n    string variety3;\n    string variety4;\n    bool is_chemical;\n    bool is_organic;\n    string performance;\n  }\n\n  struct Harvest {\n    string start1;\n    string end1;\n    string start2;\n    string end2;\n  }\n\n  struct ProductionVolume {\n    uint256 punds;\n    uint256 quintal;\n    uint256 fruit;\n  }\n\n  struct CacaoAgroforestalSystem {\n    bool has_timber;\n    string timber_specs;\n    bool has_fruit;\n    string fruit_specs;\n    bool has_palm;\n    string palm_specs;\n    bool has_musaceae;\n    string musaceae_specs;\n  }\n\n  struct Beneficiary {\n    bool is_handcrafter;\n    bool is_industrial;\n  }\n\n  /* Events */\n  event AddProducerEvent(\n    address sender,\n    uint256 id,\n    string name\n  );\n\n  event EditProducerEvent(\n    address sender,\n    uint256 id,\n    string name\n  );\n\n  event AdminAdded(\n    address sender,\n    address new_admin\n  );\n\n  event AdminRevoked(\n    address sender,\n    address new_admin\n  );\n  \n  /* Public Variables */\n  uint256 public producer_count;\n  mapping(uint256 => Producer) public producers;\n  mapping(address => bool) public addessIsAdmin;\n\n  constructor()\n  {\n    addessIsAdmin[msg.sender] = true;\n  }\n\n  /* Modifer */\n  modifier addressIsAdmin(address _address) {\n    require(addessIsAdmin[_address], \"Sender must be admin\");\n    _;\n  }\n\n  modifier addressIsEditor(address editor) {\n    require(addessIsAdmin[msg.sender] || msg.sender == editor, \"Sender must be editor.\");\n    _;\n  }\n\n  /* Public Functions */\n  function addAdminAddress(address _address) public addressIsAdmin(msg.sender)\n  {\n    addessIsAdmin[_address] = true;\n    emit AdminAdded(\n      msg.sender, _address\n    );\n  }\n\n  function revokeAdminAddress(address _address) public addressIsAdmin(msg.sender)\n  {\n    addessIsAdmin[_address] = false;\n    emit AdminRevoked(\n      msg.sender, _address\n    );\n  }\n\n  function addProducer(Producer memory producer)\n    public addressIsAdmin(msg.sender)\n  {\n    producers[producer_count] = producer;\n    emit AddProducerEvent(\n      msg.sender, producer_count, producer.personal_information.name\n    );\n    producer_count += 1;\n  }\n\n  function editProducer(uint256 id, Producer memory producer)\n    public addressIsEditor(producer.editor)\n  {\n    producers[id] = producer;\n    emit EditProducerEvent(\n      msg.sender, producer_count, producer.personal_information.name\n    );\n  }\n}",
  "sourcePath": "/home/turupawn/Projects/Blockchain/Productores/contracts/Producers.sol",
  "compiler": {
    "name": "solc",
    "version": "0.8.5+commit.a4f2e591.Emscripten.clang"
  },
  "schemaVersion": "3.3.4",
  "updatedAt": "2021-07-04T17:37:37.586Z",
  "networkType": "ethereum",
  "devdoc": {
    "kind": "dev",
    "methods": {},
    "version": 1
  },
  "userdoc": {
    "kind": "user",
    "methods": {},
    "version": 1
  }
}