{
  "contractName": "Producers",
  "abi": [
    {
      "inputs": [],
      "stateMutability": "nonpayable",
      "type": "constructor"
    },
    {
      "anonymous": false,
      "inputs": [
        {
          "indexed": false,
          "internalType": "address",
          "name": "sender",
          "type": "address"
        },
        {
          "indexed": false,
          "internalType": "uint256",
          "name": "id",
          "type": "uint256"
        },
        {
          "indexed": false,
          "internalType": "string",
          "name": "name",
          "type": "string"
        }
      ],
      "name": "AddProducerEvent",
      "type": "event"
    },
    {
      "anonymous": false,
      "inputs": [
        {
          "indexed": false,
          "internalType": "address",
          "name": "sender",
          "type": "address"
        },
        {
          "indexed": false,
          "internalType": "address",
          "name": "new_admin",
          "type": "address"
        }
      ],
      "name": "AdminAdded",
      "type": "event"
    },
    {
      "anonymous": false,
      "inputs": [
        {
          "indexed": false,
          "internalType": "address",
          "name": "sender",
          "type": "address"
        },
        {
          "indexed": false,
          "internalType": "address",
          "name": "new_admin",
          "type": "address"
        }
      ],
      "name": "AdminRevoked",
      "type": "event"
    },
    {
      "anonymous": false,
      "inputs": [
        {
          "indexed": false,
          "internalType": "address",
          "name": "sender",
          "type": "address"
        },
        {
          "indexed": false,
          "internalType": "uint256",
          "name": "id",
          "type": "uint256"
        },
        {
          "indexed": false,
          "internalType": "string",
          "name": "name",
          "type": "string"
        }
      ],
      "name": "EditProducerEvent",
      "type": "event"
    },
    {
      "inputs": [],
      "name": "producer_count",
      "outputs": [
        {
          "internalType": "uint256",
          "name": "",
          "type": "uint256"
        }
      ],
      "stateMutability": "view",
      "type": "function",
      "constant": true
    },
    {
      "inputs": [
        {
          "internalType": "uint256",
          "name": "",
          "type": "uint256"
        }
      ],
      "name": "producers",
      "outputs": [
        {
          "internalType": "address",
          "name": "editor",
          "type": "address"
        },
        {
          "components": [
            {
              "internalType": "string",
              "name": "photo",
              "type": "string"
            },
            {
              "internalType": "string",
              "name": "name",
              "type": "string"
            },
            {
              "internalType": "string",
              "name": "bio",
              "type": "string"
            },
            {
              "internalType": "string",
              "name": "id_number",
              "type": "string"
            },
            {
              "internalType": "string",
              "name": "sex",
              "type": "string"
            },
            {
              "internalType": "uint256",
              "name": "birthday_year",
              "type": "uint256"
            },
            {
              "internalType": "uint256",
              "name": "birthday_month",
              "type": "uint256"
            },
            {
              "internalType": "uint256",
              "name": "birthday_day",
              "type": "uint256"
            }
          ],
          "internalType": "struct Producers.PersonalInformation",
          "name": "personal_information",
          "type": "tuple"
        },
        {
          "components": [
            {
              "internalType": "string",
              "name": "name",
              "type": "string"
            },
            {
              "internalType": "string",
              "name": "org_address",
              "type": "string"
            },
            {
              "internalType": "string",
              "name": "location",
              "type": "string"
            },
            {
              "internalType": "string",
              "name": "farm_name",
              "type": "string"
            },
            {
              "internalType": "string",
              "name": "general_description",
              "type": "string"
            }
          ],
          "internalType": "struct Producers.Organization",
          "name": "organization",
          "type": "tuple"
        },
        {
          "components": [
            {
              "internalType": "uint256",
              "name": "georreference_utm_x",
              "type": "uint256"
            },
            {
              "internalType": "uint256",
              "name": "georreference_utm_y",
              "type": "uint256"
            },
            {
              "internalType": "uint256",
              "name": "height",
              "type": "uint256"
            },
            {
              "internalType": "uint256",
              "name": "total_area",
              "type": "uint256"
            },
            {
              "internalType": "uint256",
              "name": "other_farm_area",
              "type": "uint256"
            },
            {
              "internalType": "uint256",
              "name": "forest_area",
              "type": "uint256"
            },
            {
              "internalType": "uint256",
              "name": "cacao_area",
              "type": "uint256"
            },
            {
              "internalType": "uint256",
              "name": "production_area",
              "type": "uint256"
            },
            {
              "internalType": "uint256",
              "name": "template_area",
              "type": "uint256"
            },
            {
              "internalType": "uint256",
              "name": "projection_area",
              "type": "uint256"
            },
            {
              "internalType": "string",
              "name": "variety1",
              "type": "string"
            },
            {
              "internalType": "string",
              "name": "variety2",
              "type": "string"
            },
            {
              "internalType": "string",
              "name": "variety3",
              "type": "string"
            },
            {
              "internalType": "string",
              "name": "variety4",
              "type": "string"
            },
            {
              "internalType": "bool",
              "name": "is_chemical",
              "type": "bool"
            },
            {
              "internalType": "bool",
              "name": "is_organic",
              "type": "bool"
            },
            {
              "internalType": "string",
              "name": "performance",
              "type": "string"
            }
          ],
          "internalType": "struct Producers.Farm",
          "name": "farm",
          "type": "tuple"
        },
        {
          "components": [
            {
              "internalType": "string",
              "name": "start1",
              "type": "string"
            },
            {
              "internalType": "string",
              "name": "end1",
              "type": "string"
            },
            {
              "internalType": "string",
              "name": "start2",
              "type": "string"
            },
            {
              "internalType": "string",
              "name": "end2",
              "type": "string"
            }
          ],
          "internalType": "struct Producers.Harvest",
          "name": "harvest",
          "type": "tuple"
        },
        {
          "components": [
            {
              "internalType": "uint256",
              "name": "punds",
              "type": "uint256"
            },
            {
              "internalType": "uint256",
              "name": "quintal",
              "type": "uint256"
            },
            {
              "internalType": "uint256",
              "name": "fruit",
              "type": "uint256"
            }
          ],
          "internalType": "struct Producers.ProductionVolume",
          "name": "production_volume",
          "type": "tuple"
        },
        {
          "components": [
            {
              "internalType": "bool",
              "name": "has_timber",
              "type": "bool"
            },
            {
              "internalType": "string",
              "name": "timber_specs",
              "type": "string"
            },
            {
              "internalType": "bool",
              "name": "has_fruit",
              "type": "bool"
            },
            {
              "internalType": "string",
              "name": "fruit_specs",
              "type": "string"
            },
            {
              "internalType": "bool",
              "name": "has_palm",
              "type": "bool"
            },
            {
              "internalType": "string",
              "name": "palm_specs",
              "type": "string"
            },
            {
              "internalType": "bool",
              "name": "has_musaceae",
              "type": "bool"
            },
            {
              "internalType": "string",
              "name": "musaceae_specs",
              "type": "string"
            }
          ],
          "internalType": "struct Producers.CacaoAgroforestalSystem",
          "name": "cacao_agroforestal_system",
          "type": "tuple"
        },
        {
          "components": [
            {
              "internalType": "bool",
              "name": "is_handcrafter",
              "type": "bool"
            },
            {
              "internalType": "bool",
              "name": "is_industrial",
              "type": "bool"
            }
          ],
          "internalType": "struct Producers.Beneficiary",
          "name": "beneficiary",
          "type": "tuple"
        }
      ],
      "stateMutability": "view",
      "type": "function",
      "constant": true
    },
    {
      "inputs": [
        {
          "components": [
            {
              "internalType": "address",
              "name": "editor",
              "type": "address"
            },
            {
              "components": [
                {
                  "internalType": "string",
                  "name": "photo",
                  "type": "string"
                },
                {
                  "internalType": "string",
                  "name": "name",
                  "type": "string"
                },
                {
                  "internalType": "string",
                  "name": "bio",
                  "type": "string"
                },
                {
                  "internalType": "string",
                  "name": "id_number",
                  "type": "string"
                },
                {
                  "internalType": "string",
                  "name": "sex",
                  "type": "string"
                },
                {
                  "internalType": "uint256",
                  "name": "birthday_year",
                  "type": "uint256"
                },
                {
                  "internalType": "uint256",
                  "name": "birthday_month",
                  "type": "uint256"
                },
                {
                  "internalType": "uint256",
                  "name": "birthday_day",
                  "type": "uint256"
                }
              ],
              "internalType": "struct Producers.PersonalInformation",
              "name": "personal_information",
              "type": "tuple"
            },
            {
              "components": [
                {
                  "internalType": "string",
                  "name": "name",
                  "type": "string"
                },
                {
                  "internalType": "string",
                  "name": "org_address",
                  "type": "string"
                },
                {
                  "internalType": "string",
                  "name": "location",
                  "type": "string"
                },
                {
                  "internalType": "string",
                  "name": "farm_name",
                  "type": "string"
                },
                {
                  "internalType": "string",
                  "name": "general_description",
                  "type": "string"
                }
              ],
              "internalType": "struct Producers.Organization",
              "name": "organization",
              "type": "tuple"
            },
            {
              "components": [
                {
                  "internalType": "uint256",
                  "name": "georreference_utm_x",
                  "type": "uint256"
                },
                {
                  "internalType": "uint256",
                  "name": "georreference_utm_y",
                  "type": "uint256"
                },
                {
                  "internalType": "uint256",
                  "name": "height",
                  "type": "uint256"
                },
                {
                  "internalType": "uint256",
                  "name": "total_area",
                  "type": "uint256"
                },
                {
                  "internalType": "uint256",
                  "name": "other_farm_area",
                  "type": "uint256"
                },
                {
                  "internalType": "uint256",
                  "name": "forest_area",
                  "type": "uint256"
                },
                {
                  "internalType": "uint256",
                  "name": "cacao_area",
                  "type": "uint256"
                },
                {
                  "internalType": "uint256",
                  "name": "production_area",
                  "type": "uint256"
                },
                {
                  "internalType": "uint256",
                  "name": "template_area",
                  "type": "uint256"
                },
                {
                  "internalType": "uint256",
                  "name": "projection_area",
                  "type": "uint256"
                },
                {
                  "internalType": "string",
                  "name": "variety1",
                  "type": "string"
                },
                {
                  "internalType": "string",
                  "name": "variety2",
                  "type": "string"
                },
                {
                  "internalType": "string",
                  "name": "variety3",
                  "type": "string"
                },
                {
                  "internalType": "string",
                  "name": "variety4",
                  "type": "string"
                },
                {
                  "internalType": "bool",
                  "name": "is_chemical",
                  "type": "bool"
                },
                {
                  "internalType": "bool",
                  "name": "is_organic",
                  "type": "bool"
                },
                {
                  "internalType": "string",
                  "name": "performance",
                  "type": "string"
                }
              ],
              "internalType": "struct Producers.Farm",
              "name": "farm",
              "type": "tuple"
            },
            {
              "components": [
                {
                  "internalType": "string",
                  "name": "start1",
                  "type": "string"
                },
                {
                  "internalType": "string",
                  "name": "end1",
                  "type": "string"
                },
                {
                  "internalType": "string",
                  "name": "start2",
                  "type": "string"
                },
                {
                  "internalType": "string",
                  "name": "end2",
                  "type": "string"
                }
              ],
              "internalType": "struct Producers.Harvest",
              "name": "harvest",
              "type": "tuple"
            },
            {
              "components": [
                {
                  "internalType": "uint256",
                  "name": "punds",
                  "type": "uint256"
                },
                {
                  "internalType": "uint256",
                  "name": "quintal",
                  "type": "uint256"
                },
                {
                  "internalType": "uint256",
                  "name": "fruit",
                  "type": "uint256"
                }
              ],
              "internalType": "struct Producers.ProductionVolume",
              "name": "production_volume",
              "type": "tuple"
            },
            {
              "components": [
                {
                  "internalType": "bool",
                  "name": "has_timber",
                  "type": "bool"
                },
                {
                  "internalType": "string",
                  "name": "timber_specs",
                  "type": "string"
                },
                {
                  "internalType": "bool",
                  "name": "has_fruit",
                  "type": "bool"
                },
                {
                  "internalType": "string",
                  "name": "fruit_specs",
                  "type": "string"
                },
                {
                  "internalType": "bool",
                  "name": "has_palm",
                  "type": "bool"
                },
                {
                  "internalType": "string",
                  "name": "palm_specs",
                  "type": "string"
                },
                {
                  "internalType": "bool",
                  "name": "has_musaceae",
                  "type": "bool"
                },
                {
                  "internalType": "string",
                  "name": "musaceae_specs",
                  "type": "string"
                }
              ],
              "internalType": "struct Producers.CacaoAgroforestalSystem",
              "name": "cacao_agroforestal_system",
              "type": "tuple"
            },
            {
              "components": [
                {
                  "internalType": "bool",
                  "name": "is_handcrafter",
                  "type": "bool"
                },
                {
                  "internalType": "bool",
                  "name": "is_industrial",
                  "type": "bool"
                }
              ],
              "internalType": "struct Producers.Beneficiary",
              "name": "beneficiary",
              "type": "tuple"
            }
          ],
          "internalType": "struct Producers.Producer",
          "name": "producer",
          "type": "tuple"
        }
      ],
      "name": "addProducer",
      "outputs": [],
      "stateMutability": "nonpayable",
      "type": "function"
    },
    {
      "inputs": [
        {
          "internalType": "uint256",
          "name": "id",
          "type": "uint256"
        },
        {
          "components": [
            {
              "internalType": "address",
              "name": "editor",
              "type": "address"
            },
            {
              "components": [
                {
                  "internalType": "string",
                  "name": "photo",
                  "type": "string"
                },
                {
                  "internalType": "string",
                  "name": "name",
                  "type": "string"
                },
                {
                  "internalType": "string",
                  "name": "bio",
                  "type": "string"
                },
                {
                  "internalType": "string",
                  "name": "id_number",
                  "type": "string"
                },
                {
                  "internalType": "string",
                  "name": "sex",
                  "type": "string"
                },
                {
                  "internalType": "uint256",
                  "name": "birthday_year",
                  "type": "uint256"
                },
                {
                  "internalType": "uint256",
                  "name": "birthday_month",
                  "type": "uint256"
                },
                {
                  "internalType": "uint256",
                  "name": "birthday_day",
                  "type": "uint256"
                }
              ],
              "internalType": "struct Producers.PersonalInformation",
              "name": "personal_information",
              "type": "tuple"
            },
            {
              "components": [
                {
                  "internalType": "string",
                  "name": "name",
                  "type": "string"
                },
                {
                  "internalType": "string",
                  "name": "org_address",
                  "type": "string"
                },
                {
                  "internalType": "string",
                  "name": "location",
                  "type": "string"
                },
                {
                  "internalType": "string",
                  "name": "farm_name",
                  "type": "string"
                },
                {
                  "internalType": "string",
                  "name": "general_description",
                  "type": "string"
                }
              ],
              "internalType": "struct Producers.Organization",
              "name": "organization",
              "type": "tuple"
            },
            {
              "components": [
                {
                  "internalType": "uint256",
                  "name": "georreference_utm_x",
                  "type": "uint256"
                },
                {
                  "internalType": "uint256",
                  "name": "georreference_utm_y",
                  "type": "uint256"
                },
                {
                  "internalType": "uint256",
                  "name": "height",
                  "type": "uint256"
                },
                {
                  "internalType": "uint256",
                  "name": "total_area",
                  "type": "uint256"
                },
                {
                  "internalType": "uint256",
                  "name": "other_farm_area",
                  "type": "uint256"
                },
                {
                  "internalType": "uint256",
                  "name": "forest_area",
                  "type": "uint256"
                },
                {
                  "internalType": "uint256",
                  "name": "cacao_area",
                  "type": "uint256"
                },
                {
                  "internalType": "uint256",
                  "name": "production_area",
                  "type": "uint256"
                },
                {
                  "internalType": "uint256",
                  "name": "template_area",
                  "type": "uint256"
                },
                {
                  "internalType": "uint256",
                  "name": "projection_area",
                  "type": "uint256"
                },
                {
                  "internalType": "string",
                  "name": "variety1",
                  "type": "string"
                },
                {
                  "internalType": "string",
                  "name": "variety2",
                  "type": "string"
                },
                {
                  "internalType": "string",
                  "name": "variety3",
                  "type": "string"
                },
                {
                  "internalType": "string",
                  "name": "variety4",
                  "type": "string"
                },
                {
                  "internalType": "bool",
                  "name": "is_chemical",
                  "type": "bool"
                },
                {
                  "internalType": "bool",
                  "name": "is_organic",
                  "type": "bool"
                },
                {
                  "internalType": "string",
                  "name": "performance",
                  "type": "string"
                }
              ],
              "internalType": "struct Producers.Farm",
              "name": "farm",
              "type": "tuple"
            },
            {
              "components": [
                {
                  "internalType": "string",
                  "name": "start1",
                  "type": "string"
                },
                {
                  "internalType": "string",
                  "name": "end1",
                  "type": "string"
                },
                {
                  "internalType": "string",
                  "name": "start2",
                  "type": "string"
                },
                {
                  "internalType": "string",
                  "name": "end2",
                  "type": "string"
                }
              ],
              "internalType": "struct Producers.Harvest",
              "name": "harvest",
              "type": "tuple"
            },
            {
              "components": [
                {
                  "internalType": "uint256",
                  "name": "punds",
                  "type": "uint256"
                },
                {
                  "internalType": "uint256",
                  "name": "quintal",
                  "type": "uint256"
                },
                {
                  "internalType": "uint256",
                  "name": "fruit",
                  "type": "uint256"
                }
              ],
              "internalType": "struct Producers.ProductionVolume",
              "name": "production_volume",
              "type": "tuple"
            },
            {
              "components": [
                {
                  "internalType": "bool",
                  "name": "has_timber",
                  "type": "bool"
                },
                {
                  "internalType": "string",
                  "name": "timber_specs",
                  "type": "string"
                },
                {
                  "internalType": "bool",
                  "name": "has_fruit",
                  "type": "bool"
                },
                {
                  "internalType": "string",
                  "name": "fruit_specs",
                  "type": "string"
                },
                {
                  "internalType": "bool",
                  "name": "has_palm",
                  "type": "bool"
                },
                {
                  "internalType": "string",
                  "name": "palm_specs",
                  "type": "string"
                },
                {
                  "internalType": "bool",
                  "name": "has_musaceae",
                  "type": "bool"
                },
                {
                  "internalType": "string",
                  "name": "musaceae_specs",
                  "type": "string"
                }
              ],
              "internalType": "struct Producers.CacaoAgroforestalSystem",
              "name": "cacao_agroforestal_system",
              "type": "tuple"
            },
            {
              "components": [
                {
                  "internalType": "bool",
                  "name": "is_handcrafter",
                  "type": "bool"
                },
                {
                  "internalType": "bool",
                  "name": "is_industrial",
                  "type": "bool"
                }
              ],
              "internalType": "struct Producers.Beneficiary",
              "name": "beneficiary",
              "type": "tuple"
            }
          ],
          "internalType": "struct Producers.Producer",
          "name": "producer",
          "type": "tuple"
        }
      ],
      "name": "editProducer",
      "outputs": [],
      "stateMutability": "nonpayable",
      "type": "function"
    }
  ],
  "bytecode": "0x608060405234801561001057600080fd5b50612ecc806100206000396000f3fe608060405234801561001057600080fd5b506004361061004c5760003560e01c8063587c601b146100515780639b68ade71461006f578063a7a5eab9146100a6578063e269d021146100c2575b600080fd5b6100596100de565b6040516100669190612bb4565b60405180910390f35b61008960048036038101906100849190612507565b6100e4565b60405161009d989796959493929190612ad3565b60405180910390f35b6100c060048036038101906100bb91906124be565b61102b565b005b6100dc60048036038101906100d79190612534565b61157c565b005b60005481565b60016020528060005260406000206000915090508060000160009054906101000a900473ffffffffffffffffffffffffffffffffffffffff1690806001016040518061010001604052908160008201805461013e90612d32565b80601f016020809104026020016040519081016040528092919081815260200182805461016a90612d32565b80156101b75780601f1061018c576101008083540402835291602001916101b7565b820191906000526020600020905b81548152906001019060200180831161019a57829003601f168201915b505050505081526020016001820180546101d090612d32565b80601f01602080910402602001604051908101604052809291908181526020018280546101fc90612d32565b80156102495780601f1061021e57610100808354040283529160200191610249565b820191906000526020600020905b81548152906001019060200180831161022c57829003601f168201915b5050505050815260200160028201805461026290612d32565b80601f016020809104026020016040519081016040528092919081815260200182805461028e90612d32565b80156102db5780601f106102b0576101008083540402835291602001916102db565b820191906000526020600020905b8154815290600101906020018083116102be57829003601f168201915b505050505081526020016003820180546102f490612d32565b80601f016020809104026020016040519081016040528092919081815260200182805461032090612d32565b801561036d5780601f106103425761010080835404028352916020019161036d565b820191906000526020600020905b81548152906001019060200180831161035057829003601f168201915b5050505050815260200160048201805461038690612d32565b80601f01602080910402602001604051908101604052809291908181526020018280546103b290612d32565b80156103ff5780601f106103d4576101008083540402835291602001916103ff565b820191906000526020600020905b8154815290600101906020018083116103e257829003601f168201915b50505050508152602001600582015481526020016006820154815260200160078201548152505090806009016040518060a001604052908160008201805461044690612d32565b80601f016020809104026020016040519081016040528092919081815260200182805461047290612d32565b80156104bf5780601f10610494576101008083540402835291602001916104bf565b820191906000526020600020905b8154815290600101906020018083116104a257829003601f168201915b505050505081526020016001820180546104d890612d32565b80601f016020809104026020016040519081016040528092919081815260200182805461050490612d32565b80156105515780601f1061052657610100808354040283529160200191610551565b820191906000526020600020905b81548152906001019060200180831161053457829003601f168201915b5050505050815260200160028201805461056a90612d32565b80601f016020809104026020016040519081016040528092919081815260200182805461059690612d32565b80156105e35780601f106105b8576101008083540402835291602001916105e3565b820191906000526020600020905b8154815290600101906020018083116105c657829003601f168201915b505050505081526020016003820180546105fc90612d32565b80601f016020809104026020016040519081016040528092919081815260200182805461062890612d32565b80156106755780601f1061064a57610100808354040283529160200191610675565b820191906000526020600020905b81548152906001019060200180831161065857829003601f168201915b5050505050815260200160048201805461068e90612d32565b80601f01602080910402602001604051908101604052809291908181526020018280546106ba90612d32565b80156107075780601f106106dc57610100808354040283529160200191610707565b820191906000526020600020905b8154815290600101906020018083116106ea57829003601f168201915b5050505050815250509080600e016040518061022001604052908160008201548152602001600182015481526020016002820154815260200160038201548152602001600482015481526020016005820154815260200160068201548152602001600782015481526020016008820154815260200160098201548152602001600a8201805461079590612d32565b80601f01602080910402602001604051908101604052809291908181526020018280546107c190612d32565b801561080e5780601f106107e35761010080835404028352916020019161080e565b820191906000526020600020905b8154815290600101906020018083116107f157829003601f168201915b50505050508152602001600b8201805461082790612d32565b80601f016020809104026020016040519081016040528092919081815260200182805461085390612d32565b80156108a05780601f10610875576101008083540402835291602001916108a0565b820191906000526020600020905b81548152906001019060200180831161088357829003601f168201915b50505050508152602001600c820180546108b990612d32565b80601f01602080910402602001604051908101604052809291908181526020018280546108e590612d32565b80156109325780601f1061090757610100808354040283529160200191610932565b820191906000526020600020905b81548152906001019060200180831161091557829003601f168201915b50505050508152602001600d8201805461094b90612d32565b80601f016020809104026020016040519081016040528092919081815260200182805461097790612d32565b80156109c45780601f10610999576101008083540402835291602001916109c4565b820191906000526020600020905b8154815290600101906020018083116109a757829003601f168201915b50505050508152602001600e820160009054906101000a900460ff16151515158152602001600e820160019054906101000a900460ff16151515158152602001600f82018054610a1390612d32565b80601f0160208091040260200160405190810160405280929190818152602001828054610a3f90612d32565b8015610a8c5780601f10610a6157610100808354040283529160200191610a8c565b820191906000526020600020905b815481529060010190602001808311610a6f57829003601f168201915b5050505050815250509080601e01604051806080016040529081600082018054610ab590612d32565b80601f0160208091040260200160405190810160405280929190818152602001828054610ae190612d32565b8015610b2e5780601f10610b0357610100808354040283529160200191610b2e565b820191906000526020600020905b815481529060010190602001808311610b1157829003601f168201915b50505050508152602001600182018054610b4790612d32565b80601f0160208091040260200160405190810160405280929190818152602001828054610b7390612d32565b8015610bc05780601f10610b9557610100808354040283529160200191610bc0565b820191906000526020600020905b815481529060010190602001808311610ba357829003601f168201915b50505050508152602001600282018054610bd990612d32565b80601f0160208091040260200160405190810160405280929190818152602001828054610c0590612d32565b8015610c525780601f10610c2757610100808354040283529160200191610c52565b820191906000526020600020905b815481529060010190602001808311610c3557829003601f168201915b50505050508152602001600382018054610c6b90612d32565b80601f0160208091040260200160405190810160405280929190818152602001828054610c9790612d32565b8015610ce45780601f10610cb957610100808354040283529160200191610ce4565b820191906000526020600020905b815481529060010190602001808311610cc757829003601f168201915b505050505081525050908060220160405180606001604052908160008201548152602001600182015481526020016002820154815250509080602501604051806101000160405290816000820160009054906101000a900460ff16151515158152602001600182018054610d5790612d32565b80601f0160208091040260200160405190810160405280929190818152602001828054610d8390612d32565b8015610dd05780601f10610da557610100808354040283529160200191610dd0565b820191906000526020600020905b815481529060010190602001808311610db357829003601f168201915b505050505081526020016002820160009054906101000a900460ff16151515158152602001600382018054610e0490612d32565b80601f0160208091040260200160405190810160405280929190818152602001828054610e3090612d32565b8015610e7d5780601f10610e5257610100808354040283529160200191610e7d565b820191906000526020600020905b815481529060010190602001808311610e6057829003601f168201915b505050505081526020016004820160009054906101000a900460ff16151515158152602001600582018054610eb190612d32565b80601f0160208091040260200160405190810160405280929190818152602001828054610edd90612d32565b8015610f2a5780601f10610eff57610100808354040283529160200191610f2a565b820191906000526020600020905b815481529060010190602001808311610f0d57829003601f168201915b505050505081526020016006820160009054906101000a900460ff16151515158152602001600782018054610f5e90612d32565b80601f0160208091040260200160405190810160405280929190818152602001828054610f8a90612d32565b8015610fd75780601f10610fac57610100808354040283529160200191610fd7565b820191906000526020600020905b815481529060010190602001808311610fba57829003601f168201915b5050505050815250509080602d016040518060400160405290816000820160009054906101000a900460ff161515151581526020016000820160019054906101000a900460ff161515151581525050905088565b80600160008054815260200190815260200160002060008201518160000160006101000a81548173ffffffffffffffffffffffffffffffffffffffff021916908373ffffffffffffffffffffffffffffffffffffffff16021790555060208201518160010160008201518160000190805190602001906110ac929190611ab4565b5060208201518160010190805190602001906110c9929190611ab4565b5060408201518160020190805190602001906110e6929190611ab4565b506060820151816003019080519060200190611103929190611ab4565b506080820151816004019080519060200190611120929190611ab4565b5060a0820151816005015560c0820151816006015560e0820151816007015550506040820151816009016000820151816000019080519060200190611166929190611ab4565b506020820151816001019080519060200190611183929190611ab4565b5060408201518160020190805190602001906111a0929190611ab4565b5060608201518160030190805190602001906111bd929190611ab4565b5060808201518160040190805190602001906111da929190611ab4565b505050606082015181600e01600082015181600001556020820151816001015560408201518160020155606082015181600301556080820151816004015560a0820151816005015560c0820151816006015560e082015181600701556101008201518160080155610120820151816009015561014082015181600a019080519060200190611269929190611ab4565b5061016082015181600b019080519060200190611287929190611ab4565b5061018082015181600c0190805190602001906112a5929190611ab4565b506101a082015181600d0190805190602001906112c3929190611ab4565b506101c082015181600e0160006101000a81548160ff0219169083151502179055506101e082015181600e0160016101000a81548160ff02191690831515021790555061020082015181600f019080519060200190611323929190611ab4565b505050608082015181601e01600082015181600001908051906020019061134b929190611ab4565b506020820151816001019080519060200190611368929190611ab4565b506040820151816002019080519060200190611385929190611ab4565b5060608201518160030190805190602001906113a2929190611ab4565b50505060a082015181602201600082015181600001556020820151816001015560408201518160020155505060c08201518160250160008201518160000160006101000a81548160ff0219169083151502179055506020820151816001019080519060200190611413929190611ab4565b5060408201518160020160006101000a81548160ff0219169083151502179055506060820151816003019080519060200190611450929190611ab4565b5060808201518160040160006101000a81548160ff02191690831515021790555060a082015181600501908051906020019061148d929190611ab4565b5060c08201518160060160006101000a81548160ff02191690831515021790555060e08201518160070190805190602001906114ca929190611ab4565b50505060e082015181602d0160008201518160000160006101000a81548160ff02191690831515021790555060208201518160000160016101000a81548160ff02191690831515021790555050509050507f72eec265048d506496d8a735700f777c16cd3e8374adc2ea6c2a339c7b2b15b63360005483602001516020015160405161155893929190612b76565b60405180910390a160016000808282546115729190612c52565b9250508190555050565b806001600084815260200190815260200160002060008201518160000160006101000a81548173ffffffffffffffffffffffffffffffffffffffff021916908373ffffffffffffffffffffffffffffffffffffffff16021790555060208201518160010160008201518160000190805190602001906115fc929190611ab4565b506020820151816001019080519060200190611619929190611ab4565b506040820151816002019080519060200190611636929190611ab4565b506060820151816003019080519060200190611653929190611ab4565b506080820151816004019080519060200190611670929190611ab4565b5060a0820151816005015560c0820151816006015560e08201518160070155505060408201518160090160008201518160000190805190602001906116b6929190611ab4565b5060208201518160010190805190602001906116d3929190611ab4565b5060408201518160020190805190602001906116f0929190611ab4565b50606082015181600301908051906020019061170d929190611ab4565b50608082015181600401908051906020019061172a929190611ab4565b505050606082015181600e01600082015181600001556020820151816001015560408201518160020155606082015181600301556080820151816004015560a0820151816005015560c0820151816006015560e082015181600701556101008201518160080155610120820151816009015561014082015181600a0190805190602001906117b9929190611ab4565b5061016082015181600b0190805190602001906117d7929190611ab4565b5061018082015181600c0190805190602001906117f5929190611ab4565b506101a082015181600d019080519060200190611813929190611ab4565b506101c082015181600e0160006101000a81548160ff0219169083151502179055506101e082015181600e0160016101000a81548160ff02191690831515021790555061020082015181600f019080519060200190611873929190611ab4565b505050608082015181601e01600082015181600001908051906020019061189b929190611ab4565b5060208201518160010190805190602001906118b8929190611ab4565b5060408201518160020190805190602001906118d5929190611ab4565b5060608201518160030190805190602001906118f2929190611ab4565b50505060a082015181602201600082015181600001556020820151816001015560408201518160020155505060c08201518160250160008201518160000160006101000a81548160ff0219169083151502179055506020820151816001019080519060200190611963929190611ab4565b5060408201518160020160006101000a81548160ff02191690831515021790555060608201518160030190805190602001906119a0929190611ab4565b5060808201518160040160006101000a81548160ff02191690831515021790555060a08201518160050190805190602001906119dd929190611ab4565b5060c08201518160060160006101000a81548160ff02191690831515021790555060e0820151816007019080519060200190611a1a929190611ab4565b50505060e082015181602d0160008201518160000160006101000a81548160ff02191690831515021790555060208201518160000160016101000a81548160ff02191690831515021790555050509050507f755f1ec6a421c918300a1fe03bb60771d8371d1e7578b6d196fe0f374ef2574033600054836020015160200151604051611aa893929190612b76565b60405180910390a15050565b828054611ac090612d32565b90600052602060002090601f016020900481019282611ae25760008555611b29565b82601f10611afb57805160ff1916838001178555611b29565b82800160010185558215611b29579182015b82811115611b28578251825591602001919060010190611b0d565b5b509050611b369190611b3a565b5090565b5b80821115611b53576000816000905550600101611b3b565b5090565b6000611b6a611b6584612bf4565b612bcf565b905082815260208101848484011115611b8657611b85612e31565b5b611b91848285612cf0565b509392505050565b600081359050611ba881612e51565b92915050565b600081359050611bbd81612e68565b92915050565b600082601f830112611bd857611bd7612e22565b5b8135611be8848260208601611b57565b91505092915050565b600060408284031215611c0757611c06612e27565b5b611c116040612bcf565b90506000611c2184828501611bae565b6000830152506020611c3584828501611bae565b60208301525092915050565b60006101008284031215611c5857611c57612e27565b5b611c63610100612bcf565b90506000611c7384828501611bae565b600083015250602082013567ffffffffffffffff811115611c9757611c96612e2c565b5b611ca384828501611bc3565b6020830152506040611cb784828501611bae565b604083015250606082013567ffffffffffffffff811115611cdb57611cda612e2c565b5b611ce784828501611bc3565b6060830152506080611cfb84828501611bae565b60808301525060a082013567ffffffffffffffff811115611d1f57611d1e612e2c565b5b611d2b84828501611bc3565b60a08301525060c0611d3f84828501611bae565b60c08301525060e082013567ffffffffffffffff811115611d6357611d62612e2c565b5b611d6f84828501611bc3565b60e08301525092915050565b60006102208284031215611d9257611d91612e27565b5b611d9d610220612bcf565b90506000611dad848285016124a9565b6000830152506020611dc1848285016124a9565b6020830152506040611dd5848285016124a9565b6040830152506060611de9848285016124a9565b6060830152506080611dfd848285016124a9565b60808301525060a0611e11848285016124a9565b60a08301525060c0611e25848285016124a9565b60c08301525060e0611e39848285016124a9565b60e083015250610100611e4e848285016124a9565b61010083015250610120611e64848285016124a9565b6101208301525061014082013567ffffffffffffffff811115611e8a57611e89612e2c565b5b611e9684828501611bc3565b6101408301525061016082013567ffffffffffffffff811115611ebc57611ebb612e2c565b5b611ec884828501611bc3565b6101608301525061018082013567ffffffffffffffff811115611eee57611eed612e2c565b5b611efa84828501611bc3565b610180830152506101a082013567ffffffffffffffff811115611f2057611f1f612e2c565b5b611f2c84828501611bc3565b6101a0830152506101c0611f4284828501611bae565b6101c0830152506101e0611f5884828501611bae565b6101e08301525061020082013567ffffffffffffffff811115611f7e57611f7d612e2c565b5b611f8a84828501611bc3565b6102008301525092915050565b600060808284031215611fad57611fac612e27565b5b611fb76080612bcf565b9050600082013567ffffffffffffffff811115611fd757611fd6612e2c565b5b611fe384828501611bc3565b600083015250602082013567ffffffffffffffff81111561200757612006612e2c565b5b61201384828501611bc3565b602083015250604082013567ffffffffffffffff81111561203757612036612e2c565b5b61204384828501611bc3565b604083015250606082013567ffffffffffffffff81111561206757612066612e2c565b5b61207384828501611bc3565b60608301525092915050565b600060a0828403121561209557612094612e27565b5b61209f60a0612bcf565b9050600082013567ffffffffffffffff8111156120bf576120be612e2c565b5b6120cb84828501611bc3565b600083015250602082013567ffffffffffffffff8111156120ef576120ee612e2c565b5b6120fb84828501611bc3565b602083015250604082013567ffffffffffffffff81111561211f5761211e612e2c565b5b61212b84828501611bc3565b604083015250606082013567ffffffffffffffff81111561214f5761214e612e2c565b5b61215b84828501611bc3565b606083015250608082013567ffffffffffffffff81111561217f5761217e612e2c565b5b61218b84828501611bc3565b60808301525092915050565b600061010082840312156121ae576121ad612e27565b5b6121b9610100612bcf565b9050600082013567ffffffffffffffff8111156121d9576121d8612e2c565b5b6121e584828501611bc3565b600083015250602082013567ffffffffffffffff81111561220957612208612e2c565b5b61221584828501611bc3565b602083015250604082013567ffffffffffffffff81111561223957612238612e2c565b5b61224584828501611bc3565b604083015250606082013567ffffffffffffffff81111561226957612268612e2c565b5b61227584828501611bc3565b606083015250608082013567ffffffffffffffff81111561229957612298612e2c565b5b6122a584828501611bc3565b60808301525060a06122b9848285016124a9565b60a08301525060c06122cd848285016124a9565b60c08301525060e06122e1848285016124a9565b60e08301525092915050565b6000610160828403121561230457612303612e27565b5b61230f610100612bcf565b9050600061231f84828501611b99565b600083015250602082013567ffffffffffffffff81111561234357612342612e2c565b5b61234f84828501612197565b602083015250604082013567ffffffffffffffff81111561237357612372612e2c565b5b61237f8482850161207f565b604083015250606082013567ffffffffffffffff8111156123a3576123a2612e2c565b5b6123af84828501611d7b565b606083015250608082013567ffffffffffffffff8111156123d3576123d2612e2c565b5b6123df84828501611f97565b60808301525060a06123f384828501612445565b60a08301525061010082013567ffffffffffffffff81111561241857612417612e2c565b5b61242484828501611c41565b60c08301525061012061243984828501611bf1565b60e08301525092915050565b60006060828403121561245b5761245a612e27565b5b6124656060612bcf565b90506000612475848285016124a9565b6000830152506020612489848285016124a9565b602083015250604061249d848285016124a9565b60408301525092915050565b6000813590506124b881612e7f565b92915050565b6000602082840312156124d4576124d3612e3b565b5b600082013567ffffffffffffffff8111156124f2576124f1612e36565b5b6124fe848285016122ed565b91505092915050565b60006020828403121561251d5761251c612e3b565b5b600061252b848285016124a9565b91505092915050565b6000806040838503121561254b5761254a612e3b565b5b6000612559858286016124a9565b925050602083013567ffffffffffffffff81111561257a57612579612e36565b5b612586858286016122ed565b9150509250929050565b61259981612ca8565b82525050565b6125a881612cba565b82525050565b60006125b982612c25565b6125c38185612c30565b93506125d3818560208601612cff565b6125dc81612e40565b840191505092915050565b60006125f282612c25565b6125fc8185612c41565b935061260c818560208601612cff565b61261581612e40565b840191505092915050565b604082016000820151612636600085018261259f565b506020820151612649602085018261259f565b50505050565b600061010083016000830151612668600086018261259f565b506020830151848203602086015261268082826125ae565b9150506040830151612695604086018261259f565b50606083015184820360608601526126ad82826125ae565b91505060808301516126c2608086018261259f565b5060a083015184820360a08601526126da82826125ae565b91505060c08301516126ef60c086018261259f565b5060e083015184820360e086015261270782826125ae565b9150508091505092915050565b60006102208301600083015161272d6000860182612ab5565b5060208301516127406020860182612ab5565b5060408301516127536040860182612ab5565b5060608301516127666060860182612ab5565b5060808301516127796080860182612ab5565b5060a083015161278c60a0860182612ab5565b5060c083015161279f60c0860182612ab5565b5060e08301516127b260e0860182612ab5565b506101008301516127c7610100860182612ab5565b506101208301516127dc610120860182612ab5565b506101408301518482036101408601526127f682826125ae565b91505061016083015184820361016086015261281282826125ae565b91505061018083015184820361018086015261282e82826125ae565b9150506101a08301518482036101a086015261284a82826125ae565b9150506101c08301516128616101c086018261259f565b506101e08301516128766101e086018261259f565b5061020083015184820361020086015261289082826125ae565b9150508091505092915050565b600060808301600083015184820360008601526128ba82826125ae565b915050602083015184820360208601526128d482826125ae565b915050604083015184820360408601526128ee82826125ae565b9150506060830151848203606086015261290882826125ae565b9150508091505092915050565b600060a083016000830151848203600086015261293282826125ae565b9150506020830151848203602086015261294c82826125ae565b9150506040830151848203604086015261296682826125ae565b9150506060830151848203606086015261298082826125ae565b9150506080830151848203608086015261299a82826125ae565b9150508091505092915050565b60006101008301600083015184820360008601526129c582826125ae565b915050602083015184820360208601526129df82826125ae565b915050604083015184820360408601526129f982826125ae565b91505060608301518482036060860152612a1382826125ae565b91505060808301518482036080860152612a2d82826125ae565b91505060a0830151612a4260a0860182612ab5565b5060c0830151612a5560c0860182612ab5565b5060e0830151612a6860e0860182612ab5565b508091505092915050565b606082016000820151612a896000850182612ab5565b506020820151612a9c6020850182612ab5565b506040820151612aaf6040850182612ab5565b50505050565b612abe81612ce6565b82525050565b612acd81612ce6565b82525050565b600061016082019050612ae9600083018b612590565b8181036020830152612afb818a6129a7565b90508181036040830152612b0f8189612915565b90508181036060830152612b238188612714565b90508181036080830152612b37818761289d565b9050612b4660a0830186612a73565b818103610100830152612b59818561264f565b9050612b69610120830184612620565b9998505050505050505050565b6000606082019050612b8b6000830186612590565b612b986020830185612ac4565b8181036040830152612baa81846125e7565b9050949350505050565b6000602082019050612bc96000830184612ac4565b92915050565b6000612bd9612bea565b9050612be58282612d64565b919050565b6000604051905090565b600067ffffffffffffffff821115612c0f57612c0e612df3565b5b612c1882612e40565b9050602081019050919050565b600081519050919050565b600082825260208201905092915050565b600082825260208201905092915050565b6000612c5d82612ce6565b9150612c6883612ce6565b9250827fffffffffffffffffffffffffffffffffffffffffffffffffffffffffffffffff03821115612c9d57612c9c612d95565b5b828201905092915050565b6000612cb382612cc6565b9050919050565b60008115159050919050565b600073ffffffffffffffffffffffffffffffffffffffff82169050919050565b6000819050919050565b82818337600083830152505050565b60005b83811015612d1d578082015181840152602081019050612d02565b83811115612d2c576000848401525b50505050565b60006002820490506001821680612d4a57607f821691505b60208210811415612d5e57612d5d612dc4565b5b50919050565b612d6d82612e40565b810181811067ffffffffffffffff82111715612d8c57612d8b612df3565b5b80604052505050565b7f4e487b7100000000000000000000000000000000000000000000000000000000600052601160045260246000fd5b7f4e487b7100000000000000000000000000000000000000000000000000000000600052602260045260246000fd5b7f4e487b7100000000000000000000000000000000000000000000000000000000600052604160045260246000fd5b600080fd5b600080fd5b600080fd5b600080fd5b600080fd5b600080fd5b6000601f19601f8301169050919050565b612e5a81612ca8565b8114612e6557600080fd5b50565b612e7181612cba565b8114612e7c57600080fd5b50565b612e8881612ce6565b8114612e9357600080fd5b5056fea26469706673582212205bb773cd4253d4fb644267c113f4cf510b546653568afa53699d9e1c3ef1caaa64736f6c63430008050033",
  "immutableReferences": {},
  "source": "// SPDX-License-Identifier: MIT\n\npragma solidity 0.8.5;\n\ncontract Producers\n{\n  /* Structs */\n  struct Producer {\n    address editor;\n    PersonalInformation personal_information;\n    Organization organization;\n    Farm farm;\n    Harvest harvest;\n    ProductionVolume production_volume;\n    CacaoAgroforestalSystem cacao_agroforestal_system;\n    Beneficiary beneficiary;\n  }\n\n  struct PersonalInformation {\n    string photo;\n    string name;\n    string bio;\n    string id_number;\n    string sex;\n    uint256 birthday_year;\n    uint256 birthday_month;\n    uint256 birthday_day;\n  }\n\n  struct Organization {\n    string name;\n    string org_address;\n    string location;\n    string farm_name;\n    string general_description;\n  }\n\n  struct Farm {\n    uint256 georreference_utm_x;\n    uint256 georreference_utm_y;\n    uint256 height;\n    uint256 total_area;\n    uint256 other_farm_area;\n    uint256 forest_area;\n    uint256 cacao_area;\n    uint256 production_area;\n    uint256 template_area;\n    uint256 projection_area;\n    string variety1;\n    string variety2;\n    string variety3;\n    string variety4;\n    bool is_chemical;\n    bool is_organic;\n    string performance;\n  }\n\n  struct Harvest {\n    string start1;\n    string end1;\n    string start2;\n    string end2;\n  }\n\n  struct ProductionVolume {\n    uint256 punds;\n    uint256 quintal;\n    uint256 fruit;\n  }\n\n  struct CacaoAgroforestalSystem {\n    bool has_timber;\n    string timber_specs;\n    bool has_fruit;\n    string fruit_specs;\n    bool has_palm;\n    string palm_specs;\n    bool has_musaceae;\n    string musaceae_specs;\n  }\n\n  struct Beneficiary {\n    bool is_handcrafter;\n    bool is_industrial;\n  }\n\n  /* Events */\n  event AddProducerEvent(\n    address sender,\n    uint256 id,\n    string name\n  );\n\n  event EditProducerEvent(\n    address sender,\n    uint256 id,\n    string name\n  );\n\n  event AdminAdded(\n    address sender,\n    address new_admin\n  );\n\n  event AdminRevoked(\n    address sender,\n    address new_admin\n  );\n  \n  /* Public Variables */\n  uint256 public producer_count;\n  mapping(uint256 => Producer) public producers;\n\n  constructor()\n  {\n  }\n\n  function addProducer(Producer memory producer) public\n  {\n    producers[producer_count] = producer;\n    emit AddProducerEvent(\n      msg.sender, producer_count, producer.personal_information.name\n    );\n    producer_count += 1;\n  }\n\n  function editProducer(uint256 id, Producer memory producer) public\n  {\n    producers[id] = producer;\n    emit EditProducerEvent(\n      msg.sender, producer_count, producer.personal_information.name\n    );\n  }\n}",
  "sourcePath": "/home/turupawn/Projects/Blockchain/Productores/contracts/Producers.sol",
  "compiler": {
    "name": "solc",
    "version": "0.8.5+commit.a4f2e591.Emscripten.clang"
  },
  "schemaVersion": "3.3.4",
  "updatedAt": "2021-08-12T04:57:35.560Z",
  "networkType": "ethereum",
  "devdoc": {
    "kind": "dev",
    "methods": {},
    "version": 1
  },
  "userdoc": {
    "kind": "user",
    "methods": {},
    "version": 1
  }
}